:020000040800F2
:10000000E8090020010100081F120008C5100008BF
:100010001D120008210C00081D230008000000002C
:10002000000000000000000000000000D5170008DC
:100030006F0D0008000000002D1600083D1A000892
:100040001B0100081B0100081B0100081B01000820
:100050001B0100081B0100081B0100081B01000810
:100060001B0100081B0100081B0100081B01000800
:100070001B0100081B0100081B0100081B010008F0
:100080001B0100081B0100081B0100081B010008E0
:100090001B0100081B0100081B0100081B010008D0
:1000A0001B0100081B0100081B0100081B010008C0
:1000B0001B0100081B0100081B0100081B010008B0
:1000C0001B0100081B0100081B0100081B010008A0
:1000D0001B010008CD2000081B0100081B010008BF
:1000E0001B0100081B0100081B010008DFF80CD0F1
:1000F00000F052FB00480047CD2B0008E809002023
:100100000648804706480047FEE7FEE7FEE7FEE7B1
:10011000FEE7FEE7FEE7FEE7FEE7FEE7A91A0008B6
:10012000ED000008202A04DB203A00FA02F100204A
:1001300070479140C2F1200320FA03F31943904025
:100140007047F0B480EA0102D40F4200B2EB410FD5
:1001500002D20246084611464A0042D0C30DDDB223
:10016000C1F3C752AD1A202D35DAC1F3160141F49F
:10017000000204B15242C5F1200602FA06F12A41FA
:100180001044B3EBD05F23D0C4B1012DA0EBC3501A
:1001900009DCF0BC4FF0004202EAC352DBB200F5CA
:1001A000000000F06EBA400000F1807000EBC35018
:1001B000A0F1807040EAD170490009E0490841EAA5
:1001C000C071A0EBC35000F50000400800EBC35025
:1001D000F0BC00F04DBA6142012202EB4101001B6C
:1001E000F6E7F0BC704781F00041AAE780F00040DC
:1001F000A7E780EA010210B502F00043400022D0D8
:100200004A001FD0010E01EB1261C0F35600C2F389
:10021000560240F4000042F40002A0FB0220000459
:100220007F39140400D0401C50EA124001D4400031
:10023000491EC2B20C0604EBD010401C4008802AB4
:1002400002D003E0002010BD20F00100002900DAF8
:100250000020184310BD30B480EA010202F00045CE
:1002600030F0004221F0004013D090B1C30DD40D06
:10027000C2F31601C0F31600E41A41F4000140F481
:1002800000027D34914201D3641C00E04900002C3F
:1002900002DA30BC002070474FF400000023914286
:1002A00001D3891A034340084FEA4101F7D151B104
:1002B000914202D14FF0004105E002D24FF001011E
:1002C00001E06FF0010103EBC450284430BC00F0A2
:1002D000CFB9420005D0C0F3C7525242914201DC6F
:1002E0000020704700EBC15070472DE9FE4F80465B
:1002F00081EA0300C00F0C46009021F0004123F07A
:100300000045B8EB0200A94105D24046214690467F
:100310001C460B46024623F00040104347D0270DF1
:10032000C7F30A00C3F30A510290401A0190402813
:100330006BDAC3F3130040F4801B0098924620B19F
:100340000023D2EB030A63EB0B0B01985946C0F173
:1003500040025046FFF7E6FE06460D465046594617
:10036000019A00F073F910EB08006141002487EA5C
:10037000115284EAE7731A4340D0009A62B3019A9B
:10038000012A4FEA075215DC001B61EB02014FF016
:10039000004202EA0752CDE90042001C41F58011FB
:1003A00032462B4600F0AAF903B0BDE8F08F404674
:1003B0002146F9E7001B61EB0201001C41F58013A7
:1003C00000185B412018A2F5001747EB030140EA33
:1003D000D570B6196D4111E06D084FEA360645EA51
:1003E000C0754FEA0752001B61EB0201001C41F58A
:1003F000801149084FEA30000019514132462B461E
:1004000003B0BDE8F04F00F06AB900980122400047
:100410000023D0EB020263EBE073009821464FEA21
:10042000E074B8EB000061EB0401E9E783F00043FE
:100430005BE781F0004158E72DE9FE4F81EA0304B4
:1004400004F0004421F0004100944FF0000B23F031
:10045000004350EA01045ED052EA03045BD0C3F3C8
:100460000A54C1F30A552C44A4F2F3340194A0FBBE
:100470000254C1F3130141F48011C3F3130343F495
:10048000801301FB024400FB034E840A970A44EAEE
:10049000815447EA8357A4FB076802958D0A05FB40
:1004A00007854FEA932C04FB0C542705029D4FEA65
:1004B000065847EA1637B5EB08056EEB070C870EB2
:1004C000920E47EA811742EA8312A7FB0201B6EBBC
:1004D0000B0164EB00042B0D43EA0C335E1844EB74
:1004E0001C50DA465146E7FB0201C5F313044FEAFC
:1004F0000B3343EA14534FEA0432019C43EA0603E8
:10050000A4F10C040294009CCDE900B400F0F6F8CC
:1005100003B0BDE8F08F00200146F9E7C10F80EA83
:10052000E0700844CA079623002100F0AAB8962379
:100530000022114600F0A5B80EB5C10F80EAE070A8
:100540000844CA07002140F233438DE80E000A46F2
:100550000B4600F0D3F803B000BD0EB540F23341B6
:1005600002910021CDE900110A460B4600F0C6F8C1
:1005700003B000BD20F00040C10DC0F3160040F4F0
:1005800000007F2901DA00207047962903DCC1F1C1
:100590009601C8407047963988407047C1F30A52A7
:1005A00010B5C1F3130140F2FF3341F480119A42B8
:1005B00001DA002010BD40F233439A42A2F23342E6
:1005C00003DC524200F032F810BD904010BD00F044
:1005D000004230F000400AD0C10D01F56071C0F357
:1005E000160042EA0151C20840071143704700203B
:1005F0000146704701F0004330B421F0004150EA59
:10060000010206D00A0DA2F56072C1F31301002A9F
:1006100002DC30BC00207047440F44EAC104C10032
:10062000E01830BC00EBC25000F022B8202A04DBF6
:10063000203A21FA02F00021704721FA02F3D0405B
:10064000C2F120029140084319467047202A06DB78
:10065000CB17203A41FA02F043EAE07306E041FA90
:1006600002F3D040C2F1200291400843194670477E
:100670000029A8BF7047401C490008BF20F00100B6
:10068000704710B4B0FA80FC00FA0CF050EA010494
:1006900004BF10BC704749B1CCF1200421FA04F426
:1006A00011FA0CF118BF012121430843A3EB0C01FF
:1006B000CB1D4FEA00614FEA102042BF002010BC62
:1006C000704700EBC35010440029A4BF10BC704712
:1006D000401C490008BF20F0010010BC704710B555
:1006E000141E73F1000408DA401C41F10001921855
:1006F0005B411A4301D120F0010010BD2DE9F04DFE
:1007000092469B4611B1B1FA81F202E0B0FA80F252
:1007100020329046FFF706FD04460F4640EA0A00E5
:1007200041EA0B0153465A46084313D0114653EA97
:10073000010019D0C8F140025046FFF777FF054687
:100740000E46504659464246FFF7ECFC084305D09A
:10075000012004E020463946BDE8F08D0020054325
:1007600046EAE0762C4337430A986305E40AA0EB97
:1007700008000022FD0A44EA47540A3002D500204E
:100780000146E9E7010510196941DDE9084500194D
:100790006941BDE8F04DA2E7064C074D06E0E06870
:1007A00040F0010394E8070098471034AC42F6D3B8
:1007B000FFF7A0FC484D0008684D0008002904D050
:1007C000816841F0010181607047816821F0010179
:1007D00081607047002904D0816841F48071816094
:1007E0007047816821F48071816070470146002064
:1007F0008968490700D501207047014600208968B3
:10080000090700D50120704710B542680E4B1A4009
:100810000C790B6842EA04221343436082680B4B55
:100820001A40D1E9024323434C7942EA440213437C
:100830008360C26A22F47002097C491EC9B242EA8E
:100840000151C16210BD0000FFFEF0FFFDF7F1FF96
:1008500070B5072609290AD9C568A1F10A0404EB75
:100860004404A640B543A3401D43C56007E00569A5
:1008700001EB4104A640B543A3401D4305611F237E
:10088000072A09D2446B521E02EB820293409C431A
:1008900091400C43446370BD0D2A09D2046BD21FF2
:1008A00002EB820293409C4391400C43046370BD71
:1008B000C46A0D3A02EB820293409C4391400C4380
:1008C000C46270BD816841F00801816070470029F1
:1008D00004D0816841F4A00181607047816821F4EF
:1008E000A00181607047816841F004018160704718
:1008F00008B50121042000F0C1FE0F20ADF8000072
:1009000004208DF803006946014800F039FB08BD5A
:100910000008014010B5FFF7EBFFBDE8104000F004
:1009200001B8000070B590B00121084600F08AFEC1
:100930000121480200F0A2FE354E304600F07EF95B
:1009400034480590344806900024079404250895FF
:10095000099480210A9148000B9080000C9020207F
:100960000D9000020E900F9405A9304600F0E2F9B8
:100970000121304600F055F9009401208DF8040063
:100980008DF805004FF46020029003948DF810500C
:10099000204C69464C3C2046FFF736FF4FF4404060
:1009A00000F046FE0723012200212046FFF750FFFA
:1009B0000723022201212046FFF74AFF07230322D3
:1009C00002212046FFF744FF07230422032120468B
:1009D000FFF73EFF01212046FFF7FCFE01212046E4
:1009E000FFF7ECFE2046FFF76DFF2046FFF705FFFF
:1009F0000028FAD12046FFF776FF2046FFF7F6FEE3
:100A00000028FAD101212046FFF761FF10B070BD28
:100A1000080002404C2401404806002030B4002366
:100A200000223349AA240C704C70F1248C700024ED
:100A3000CC70C4780C7184784C7144788C710478D3
:100A4000CC71C4790C7284794C7244798C720479BB
:100A5000CC72C47A0C73847A4C73447A8C73047AA3
:100A6000CC73C47B0C74847B4C74447B8C74047B8B
:100A7000CC74C47C0C75847C4C75447C8C75047C73
:100A8000CC75447D0C76047D4C76C47D8C76847D5B
:100A9000CC76C47E0C77847E4C77447E8C77047E43
:100AA000CC77C47F81F82040847F81F82140447F47
:100AB00081F82240047F81F8234090F8214081F89A
:100AC000244090F82040262081F825402224CC7034
:100AD00004E08C5C2344DBB2521CD2B28242F8D3D5
:100AE000421CD2B20B5430BC0149024801F062BD35
:100AF000B0050020003801403FB4002300214348E6
:100B0000AA2202704270F12282709DF803200271C5
:100B10009DF8022042719DF8012082719DF800200D
:100B2000C2719DF8072002729DF8062042729DF85E
:100B3000052082729DF80420C2729DF80B2002737A
:100B40009DF80A2042739DF8092082739DF80820C1
:100B5000C2739DF80F2002749DF80E2042749DF818
:100B60000D2082749DF80C20C2749DF81B20027524
:100B70009DF81A2042759DF8192082759DF818205D
:100B8000C2759DF81D2002769DF81C2042769DF8C6
:100B9000212082769DF82020C2769DF827200277BA
:100BA0009DF8262042779DF8252082779DF8242005
:100BB000C2779DF82B2080F820209DF82A2080F80D
:100BC00021209DF8292080F822209DF8282080F8F7
:100BD00023209DF82D2080F824209DF82C20262409
:100BE00080F825202222C27004E0425C1A44D3B26D
:100BF000491CC9B2A142F8D3611CCAB2035504B062
:100C0000024930BC024801F0D5BC0000B00500200C
:100C1000003801400148FFF701BF0000B406002082
:100C2000FEE7002904D0016841F00101016070472E
:100C300001684FF6FE7211400160704701684FF67F
:100C4000FE72114001600021016041608160C1605D
:100C50003649364A0839904204D1486840F00F00BE
:100C600048607047314A1432904204D1486840F0DD
:100C7000F000486070472D4A2832904204D14868FD
:100C800040F4706048607047284A3C32904204D17A
:100C9000486840F4704048607047244A503290429F
:100CA00004D1486840F47020486070471F4A64329D
:100CB000904204D1486840F47000486070471B4A75
:100CC0007832904204D1486840F0706048607047C4
:100CD000174A111F904204D1086840F00F000860C5
:100CE0007047134A1432904204D1086840F0F00073
:100CF000086070470E4A2832904204D1086840F4D8
:100D00007060086070470A4A3C32904204D108681B
:100D100040F4704008607047054A50329042FAD162
:100D2000086840F470200860704700000800024026
:100D30000804024030B5026847F6F0739A430C6A23
:100D40008B682343D1E904452C4323438C69234317
:100D5000CC6923434C6A23438C6A234313430360C7
:100D6000CA6842600A6882604968C16030BD7047E5
:100D70002DE9FC4702F088F80025244B24A210211D
:100D80002846009502F0CAFFFF2630237F2220214B
:100D90000020009601F08EFC1C4F6FF00B08DFF86E
:100DA000749002F067FA0246CDE900751021042321
:100DB000084602F0D9FF02F05DFAFFF7B8FB4146A2
:100DC000FFF787FA4946FFF714FAFFF7D3FB04460B
:100DD000E2B22E2322210220009501F06BFCE0B24A
:100DE00030237F222021009601F064FC01F068FE90
:100DF000032805D0042803D00528D2D1BDE8FC87FC
:100E0000012002F06FFE02F03FF8CAE72000002048
:100E1000543A00000000FE4210B502F061F801F003
:100E20004FFE032809D0042802D00528F7D110BDB1
:100E3000FFF79EFF02F054F8F1E7012002F052FEA6
:100E400002F04EF8EBE700000149C860704700006F
:100E50000020024070B505464FF43026304600F0C1
:100E60007FF8042811D1094C206940F0020020616C
:100E70006561206940F040002061304600F070F864
:100E8000216941F6FD721140216170BD00200240D0
:100E900004200849CA68D20701D001207047CA68F7
:100EA000520701D502207047C968C906FBD5032047
:100EB0007047000000200240F0B506460D464FF492
:100EC0000057384600F04CF804280CD1064C206935
:100ED00040F0010020613580384600F041F821697A
:100EE000BA1E11402161F0BD002002402DE9F841F9
:100EF00005460E46002000904FF40057384600F09B
:100F00002FF804280FD10F4C206940F00100206118
:100F10002E80B846404600F023F8BF1E042804D0B7
:100F2000216939402161BDE8F881AD1C0095009927
:100F3000300C0880404600F013F8216939402161E7
:100F4000F1E70000002002400348024941600349E4
:100F5000416070472301674500200240AB89EFCD17
:100F600000B50346FFF794FF02E0FFF791FF5B1E19
:100F7000012801D1002BF8D1002B00D1052000BDA4
:100F80002DE9F0410022CC7804F00F03E40601D5EE
:100F90008C7823430C784FF00F0714F0FF0F4FF0BD
:100FA000010C1CD005680CFA02F40E882640A642FB
:100FB00011D1960007FA06F825EA080503FA06F8A3
:100FC00048EA0505CE78282E02D0482E02D002E04D
:100FD000446100E00461521C082AE4D305600A88D9
:100FE000FF2A1ED94568002202F108060CFA06F411
:100FF0000E882640A64210D1960007FA06F825EA88
:10100000080503FA06F848EA0505CE78282E00D12F
:101010004461CE78482E00D10461521C082AE3D3E3
:101020004560BDE8F0810246002092680A4200D087
:10103000012070474161704701617047F8B5012197
:10104000042000F01BFB4FF48055ADF80050032046
:101050008DF8020010208DF803000F4E69463046CF
:10106000FFF78EFF6C10ADF8004069463046FFF781
:1010700087FF29463046FFF7DDFF21463046FFF760
:10108000DBFFADF8004004218DF8031069463046BF
:10109000FFF776FFF8BD00000008014070B5074D6E
:1010A0004FF4006421462846FFF7BDFF0128F9D020
:1010B00002F02CF90249886070BD00000008014070
:1010C00090000020FEE7000010B5094C20212046CA
:1010D000FFF7B2FF80212046FFF7AEFF80212046B8
:1010E000FFF7A8FF2046BDE810402021FFF7A2BF70
:1010F0000008014010B5074C20212046FFF79CFF57
:1011000080212046FFF796FF2046BDE81040802151
:10111000FFF792BF0008014010B5054C2021204682
:10112000FFF78AFF2046BDE810402021FFF782BF6D
:10113000000801402DE9F047294C6088FFF7F7F9D6
:10114000284D06464FF07E59D5F804804846414662
:10115000FFF749F83146FFF74CF8234E07467088F1
:10116000FFF7E5F94146FFF744F83946FEF7E9FF96
:10117000FFF700FA6080A088FFF7D9F9D5F808805A
:10118000074641464846FFF72EF83946FFF731F843
:101190000746B088FFF7CBF94146FFF72AF83946F2
:1011A000FEF7CFFFFFF7E6F9A080E088FFF7BFF971
:1011B000EF68804639464846FFF715F84146FFF785
:1011C00018F80546F088FFF7B2F93946FFF711F82D
:1011D0002946FEF7B6FFFFF7CDF9E080BDE8F087BE
:1011E00052060020840600204806002007484FF0E1
:1011F0007C51016006494160064A8260064AC2602D
:10120000016102496420143148617047840600205E
:10121000CDCC4C3D9A99193ECDCCCC3DFEE77047E4
:1012200070B50F23C27801260178002A1ED0144A17
:10123000126802F4E062C2F5E062120AC2F104042C
:10124000D3404578A54082781A402A43120101F123
:10125000E02181F80024007800F01F018E40400951
:10126000800000F1E020C0F8006170BD01F01F00B7
:1012700086404809800000F1E020C0F8806170BD20
:101280000CED00E002490843024908607047000085
:101290000000FA050CED00E008B54FF4C060FFF760
:1012A000F1FF25208DF8000000208DF801000120BD
:1012B0008DF802008DF803006846FFF7B1FF08BD06
:1012C00070B50025002105F1B00000F0CFF8002135
:1012D000084600F0CBF80021102000F0C7F80024E9
:1012E0000121002000F0C2F8641CA4B2802CF7D3C6
:1012F0006D1CADB2082DE5D30020054A00214FF446
:1013000080631154401C80B29842FAD370BD000033
:10131000B000002038B50121042000F0AFF9A02072
:10132000ADF8000010208DF8030003208DF80200B6
:101330003A4C69462046FFF723FEA0212046FFF7DE
:101340007BFE0021AE2000F091F80021084600F05D
:101350008DF80021102000F089F80021402000F0D5
:1013600085F80021B02000F081F80021812000F0F4
:101370007DF80021FF2000F079F80021A12000F085
:1013800075F80021A62000F071F80021A82000F0D7
:101390006DF800213F2000F069F80021C82000F01E
:1013A00065F80021D32000F061F80021084600F024
:1013B0005DF80021D52000F059F80021802000F0D0
:1013C00055F80021D82000F051F80021052000F048
:1013D0004DF80021D92000F049F80021F12000F05B
:1013E00045F80021DA2000F041F80021122000F039
:1013F0003DF80021DB2000F039F80021302000F01A
:1014000035F800218D2000F031F80021142000F083
:101410002DF80021AF2000F029F838BD0008014068
:1014200010B507484068002805D0012807D101F011
:101430007FFC02F017FCBDE8104001F041BF10BD79
:101440003806002010B5044608460021B03000F0F0
:101450000DF8102040EA1410002100F007F804F005
:101460000F00BDE810400021AFF30080002902D03A
:10147000C0B200F092BFC0B200F078BF2DE9F041D9
:101480008046B8F1640F01D94FF000081048408839
:10149000FFF763F80F4606460E4A0F4BFEF7CCFFE8
:1014A00004460D464046FFF758F80C4A0C4BFEF731
:1014B000C3FF32463B46FEF7BFFF22462B46FEF7F0
:1014C00014FFFFF76BF807490880BDE8F0810000C2
:1014D0008C0000209A9999999999A93FFCA9F1D279
:1014E0004D62403F3808004002496420C8800248ED
:1014F00000F0D8BCD8060020000800402DE9F041DB
:101500000646B6F57A6F00D900260E484088074691
:10151000FFF723F80C4A0D4BFEF78EFF04460D46ED
:1015200007FB06F0FFF708F8094A0A4BFEF784FFAD
:1015300022462B46FEF7D9FEFFF730F80649088011
:10154000BDE8F0818C0000209A9999999999A93F5A
:101550002D431CEBE236EA3E3808004038B5012145
:10156000082000F08BF818208DF8030003208DF878
:1015700002008020ADF800000A4D69462846FFF7BA
:10158000FFFC6C15ADF8004069462846FFF7F8FCF3
:1015900080212846FFF74EFD21462846FFF74AFDE9
:1015A00038BD0000000C014010B501F0EDFC01F069
:1015B00087FA0528FBD110BD3EB5FFF7CFFF01210B
:1015C000042000F04DF81549154A0888B2FBF0F0E8
:1015D00048804821ADF800100024ADF80240ADF875
:1015E0000400ADF806400F4D6946284600F0FAFCAD
:1015F0000D4960200880012048804FF47A70C8802F
:101600000C81284600F04EFC0749284600F08EFC6D
:101610000121284600F0AEFB3EBD00008C000020FA
:1016200040420F0000080040D8060020704700002C
:10163000034A516821F44041014351607047000062
:1016400000100240054A002903D05169014351614D
:10165000704751698143516170470000001002409A
:10166000054A002903D0D1690143D1617047D1698E
:101670008143D1617047000000100240054A0029F3
:1016800003D09169014391617047916981439161F0
:10169000704700000010024010B5264A516801F062
:1016A0000C01254B002927D0042927D0082927D051
:1016B0000360516801F0F0010909204B5C5C01688E
:1016C000E1404160546804F4E064240A1C5D21FA9E
:1016D00004F48460546804F46054E40A1B5DD94047
:1016E000C160526802F44042920B144B1B1F9A5C7B
:1016F000B1FBF2F1016110BD0360DAE70360D8E7E6
:10170000516801F47011536803F48033022404EB30
:10171000914133B153689B0307D5094B594301608D
:10172000C7E7074B59430160C3E7034B59430160C7
:10173000BFE700000010024000127A000400002001
:1017400000093D0030B587B000F02EF801210220DD
:10175000FFF786FF4FF48760ADF810000024ADF866
:1017600012404FF6FF70ADF81400ADF816400D4D65
:1017700004A9284600F036FC0821ADF80410ADF8A5
:1017800006400121ADF80810ADF80A40ADF80C4054
:1017900001A9284600F0FCFA0121284600F0EAFAE7
:1017A00007B030BD0004004008B501210820FFF754
:1017B00065FF04208DF8030003208DF8020001204E
:1017C000ADF8000069460248FFF7DAFB08BD0000EB
:1017D000000C014070477047AFF300800CB5002249
:1017E000019200922748016841F4803101604FF472
:1017F000A063016801F4003100910199491C019135
:10180000009911B901999942F3D10168890302D570
:101810000121009100E000920099012930D11A497C
:101820000A6842F010020A600A6822F003020A60A5
:101830000A6842F002020A60416841604168416002
:10184000416841F480614160416821F47C1141604C
:10185000416841F4E8114160016841F08071016024
:1018600001688901FCD5416821F0030141604168AC
:1018700041F0020141604168C1F381010229FAD1BE
:101880000CBD000000100240002002402DE9FF4F77
:1018900083B01D4603987F2801D9002003903F297B
:1018A00000D90021287A50430290E8880246401E61
:1018B000C31700EB5370012303EBE000C0B20190AB
:1018C00001F007094FEAD108A9F101001044C1173E
:1018D00000EB517003EBE000C7B2039800EBC816B1
:1018E0000024DFF824A1DFF824B160E00021CAF869
:1018F0000010CAF804100198029901EB040C0AE0E8
:10190000AB882A68411E01FB0322504412F80C20C8
:1019100000F8012CC8B20028F2D1109828B1DAE9F9
:101920000010C943C043CAE90010DAE900014A4681
:10193000FEF7F8FB321992B2FF231BF8022003FADC
:1019400009F39A431043CAE900017B1E06EBC31258
:10195000224492B2B2F5806F19D2B5F806C0CC44D9
:101960005FEA4C7E13D01BF802200CF0070E4FF0FC
:10197000FF0C0CFA0EFC0CEA020CDA000CFA02FC6A
:101980004FEAEC724CEA000C0A43CAE900C200209C
:1019900009E006EBC011214489B21AF800200BF8C7
:1019A0000120401CC0B2B842F3D3641CE4B2A88842
:1019B000A0429BD84FF0000922E041460398FFF770
:1019C00041FD002406EBC91A08E00AEB04000121DE
:1019D0001BF80000FFF74AFD641CE4B2A888A0428F
:1019E000F3D808F1010808F0FF08B8F1070F03D990
:1019F000002007B0BDE8F08F09F1010909F0FF09E7
:101A0000B945DAD30020F4E7A0000020B0000020A0
:101A1000B0F1807F01D30120704720F07F414FF06B
:101A2000E020491E4161044AF021117000218161CA
:101A3000072101610020704723ED00E000F0DABDCE
:101A400010B5002401F0CCFA204600F055FF01F05B
:101A500037F8012809D0022810D0042817D005280B
:101A6000F5D1BDE8104002F049BA641CE4B2082C7C
:101A700000D10024204600F03FFFE8E7641EE4B2F6
:101A8000082C00D90724204600F036FFDFE7204667
:101A900001F0B0FC02E00A2000F0A4FD01F06CF8B7
:101AA0000028D4D0F7E7000010B50F48016841F0D6
:101AB0000101016041680D4A1140416001680C4A12
:101AC00011400160016821F480210160416821F426
:101AD000FE0141604FF41F018160FFF77DFE054963
:101AE0004FF00060086010BD001002400000FFF8D9
:101AF000FFFFF6FE08ED00E070B5048C24F0010451
:101B00000484058B048C25F0F3054FF6FF7606EA76
:101B1000031313432B43104A90420ED00F4A9042B6
:101B20000BD0B0F1804F08D00D4A904205D00D4A3D
:101B3000904202D00C4A904205D124F002020A439E
:101B400042F0010104E024F00A020A4342F00101DC
:101B50000383018470BD0000002C0140003401406B
:101B60000004004000080040000C0040F0B5048C68
:101B700024F010040484068B048C4FF6FF7505EAEC
:101B8000011726F4734605EA0333334305EA0222BC
:101B90001A43104B98420ED00F4B98420BD0B0F125
:101BA000804F08D00D4B984205D00D4B984202D083
:101BB0000C4B984205D124F02001394341F010012B
:101BC00004E024F0A0030B4343F0100102830184DE
:101BD000F0BD0000002C0140003401400004004032
:101BE00000080040000C0040F0B5048C24F4807420
:101BF0000484858B048C4FF6FF7707EA012625F0D5
:101C0000F30507EA031313432B43104A90420ED007
:101C10000F4A90420BD0B0F1804F08D00D4A90424D
:101C200005D00D4A904202D00C4A904205D124F4CE
:101C30000071314341F4807104E024F420620A43CE
:101C400042F4807183830184F0BD0000002C0140C8
:101C5000003401400004004000080040000C004037
:101C6000F0B5048C24F480540484868B048C4FF6E5
:101C7000FF7505EA013726F4734605EA022232436E
:101C800005EA03331343104A90420ED00F4A9042A4
:101C90000BD0B0F1804F08D00D4A904205D00D4ACC
:101CA000904202D00C4A904205D124F400513943AD
:101CB00041F4805104E024F402420A4342F480518A
:101CC00083830184F0BD0000002C014000340140FA
:101CD0000004004000080040000C00403EB5012117
:101CE000C802FFF7CBFC4FF4E150ADF80000002133
:101CF000ADF802100A484FF6FF72008800EB800032
:101D000002EA4000ADF80400ADF80610054C694643
:101D1000204600F067F90021204600F02BF83EBD78
:101D20007A000020002C01403EB50446A4F13200A8
:101D300040F2B73188421CD201210846FFF790FCDF
:101D40004FF4E150ADF8000004EB84004FF6FF7152
:101D500001EA4000ADF804000020ADF806004FF0A5
:101D600080446946204600F03DF90021204600F0FD
:101D700001F83EBD002904D0018841F00101018035
:101D80007047018821F0010101807047808E704703
:101D900070B505460C461D48854209D01C48854251
:101DA00006D0B5F1804F03D01A48854200D01A48BA
:101DB00020886188A288238960B1042813D008286C
:101DC0001AD02846FFF74CFFE1882846BDE870404E
:101DD00000F0FCB82846FFF78FFEE1882846BDE8F2
:101DE000704000F0D7B82846FFF7C0FEE1882846CB
:101DF000BDE8704000F0D6B82846FFF7F5FEE18850
:101E00002846BDE8704000F0D9B80000002C014021
:101E100000340140000400400008004030B5028C4E
:101E200022F001020284028C8388048B24F0700467
:101E300024F003050C882C4322F002020D8915437F
:101E40004A882A43124DA8420BD0124DA84208D00E
:101E5000114DA84205D0114DA84202D0104DA84204
:101E60000FD122F008054A892A4322F004058A8806
:101E70002A4323F4807323F400738D891D43CB8997
:101E80002B4383800483C9888186028430BD00008F
:101E9000002C01400034014000400140004401405A
:101EA0000048014070B5028C22F010020284028CBE
:101EB0008388048B24F4E04424F440760D884FF6A4
:101EC000FF7404EA0525354322F020020E8904EA56
:101ED000061616434A8804EA02123243114EB042F3
:101EE00002D0114EB04217D122F080024E8904EA8E
:101EF0000616164326F040068A8804EA0212324388
:101F000023F4806323F400638E8904EA86061E436B
:101F1000CB8904EA8303334383800583C98801871F
:101F2000028470BD002C01400034014070B5028C69
:101F300022F480520284058C8288838B23F4E04350
:101F400023F440760C884FF6FF7303EA04243443ED
:101F500025F400550E8903EA06362E434D8803EA20
:101F600005353543094EB04202D0094EB04205D185
:101F700022F480468A8903EA821232438280848373
:101F8000C988A0F84010058470BD0000002C0140F5
:101F900000340140028B22F00C020283028B0A43C0
:101FA00002837047028B22F440620283028B4FF659
:101FB000FF7303EA01210A4302837047828B22F0F8
:101FC0000C028283828B0A4382837047828B22F4C5
:101FD00040628283828B4FF6FF7303EA01210A433A
:101FE0008283704730B502881B4C1C4DA0420DD037
:101FF000A8420BD0B0F1804F08D0194B984205D0C1
:10200000184B984202D0184B984203D122F070032B
:102010004A881A43154B984206D0154B984203D074
:1020200022F44073CA881A4302808A8882850A880B
:102030000285A0420AD0A84208D00E4A904205D09C
:102040000D4A904202D00D4A904201D1097A018690
:102050000121818230BD0000002C0140003401408C
:102060000004004000080040000C00400010004048
:10207000001400400040014000440140004801407D
:102080000948002202606421816041600749C16003
:102090000A2141610161064B83610162C161054909
:1020A00041628262C2627047080600202114000863
:1020B000D7170008150C0008034800214160016093
:1020C0000173FFF7FDB800003806002010B5094C79
:1020D00040F22551204600F050F8002808D0204654
:1020E00000F0E4F8044A11884B1C1380034A505452
:1020F00010BD00000038014044000020B004002062
:10210000002904D0818941F400518181704781897F
:1021100021F400518181704738B501210420FFF777
:10212000ADFA01211020FFF7A9FA01210846FFF7B7
:10213000A5FA03208DF8020018208DF803004FF453
:102140000070ADF80000084C69462046FEF718FF05
:1021500004218DF803100902ADF8001069462046ED
:10216000FEF70EFF38BD00000008014002460020C7
:1021700012880A4200D00120704770B5002440F652
:102180006A12C1F3421301F01F05012606FA05F297
:10219000012B0CD0022B0DD0838A1340090A8E40EC
:1021A000008830400BB100B10124204670BD838906
:1021B0001340F3E7038A1340F0E710B540F66A13C3
:1021C000C1F3421301F01F040121A140012B07D0EC
:1021D000022B07D014303AB102680A43026010BDE6
:1021E0000C30F8E71030F6E702688A43026010BD51
:1021F00030B585B004460D46208A4CF6FF71084084
:10220000E98801432182A0894EF6F3110840A9888C
:102210002A8911436A8902431143A181A08A4FF69A
:10222000FF410840A9890143A1826846FFF734FABB
:102230001D48844201D1039800E00298A189090455
:1022400008D500EBC00101EB001029684900B0FB84
:10225000F1F007E000EBC00101EB001029688900F4
:10226000B0FBF1F06422B0FBF2F109010B096FF051
:1022700018056B4300EB8300A3891D044FF0320364
:1022800007D503EBC000B0FBF2F000F007000843F5
:1022900006E003EB0010B0FBF2F000F00F00084383
:1022A000208105B030BD0000003801408088C0F3B7
:1022B00008007047C1F30801818070477FB5FEF7C1
:1022C000EBFFFFF729FF01218803FFF7D7F94FF450
:1022D000612000900020ADF80400ADF80C00ADF8CE
:1022E00006000C21ADF80A10ADF808000A4C69464A
:1022F0002046FFF77DFF40F2255501222946204662
:10230000FFF75BFF01212046FFF7FAFE0022294676
:102310002046FFF752FF7FBD00380140FEE7000076
:1023200070B50446104E20213046FEF783FE00258E
:1023300004F08000802812D080213046FEF77AFE1B
:102340006006040E20213046FEF776FE202130463E
:10235000FEF770FE6D1CEDB2082DE9D370BD802133
:102360003046FEF769FEEBE70008014010B5044671
:10237000FEF7AAFE7820FFF7D3FFFEF7CDFE002080
:10238000FFF7CEFFFEF7C8FE2046FFF7C9FFFEF7B6
:10239000C3FEBDE81040FEF7ADBE10B50446FEF723
:1023A00093FE7820FFF7BCFFFEF7B6FE4020FFF754
:1023B000B7FFFEF7B1FE2046FFF7B2FFFEF7ACFE17
:1023C000BDE81040FEF796BE02E008C8121F08C123
:1023D000002AFAD170477047002001E001C1121FA6
:1023E000002AFBD1704700002DE9FC41002400F0D9
:1023F0009FFC0325434E444F00F062FB012807D0A9
:1024000002283AD004286DD00528F5D1BDE8FC811A
:10241000641CE4B2032C00D10024B4FBF5F005FBEE
:10242000104030B30020CDE9006002233A8800213B
:102430005A2001F099FCB4FBF5F005FB104001288F
:1024400000D00020CDE9006004237A8810215A20B2
:1024500001F08AFCB4FBF5F005FB104002280AD01D
:1024600000200090274B29A22021502001F056FC8B
:10247000C2E70120D7E70120F3E7641EE4B2FF2C96
:1024800000D10224B4FBF5F005FB104030B300206E
:10249000CDE9006002233A8800215A2001F064FC53
:1024A000B4FBF5F005FB1040012800D00020CDE979
:1024B000006004237A8810215A2001F055FCB4FBF7
:1024C000F5F005FB104002280AD0002000900D4BCB
:1024D0000EA22021502001F021FC8DE70120D7E73A
:1024E0000120F3E744B1012C09D0022C84D1FEF77E
:1024F00093FC00F01DFC7FE700F096FF7CE701F005
:10250000ADF979E720000020780000204E455854AE
:102510002D3E00003EB50121C802FFF7AFF84FF491
:10252000E150ADF800000024ADF802400A20ADF8FB
:102530000400ADF80640094D69462846FFF752FDF4
:10254000074960200880012048804FF47A70C880D5
:102550000C812846FFF762FC3EBD0000002C0140C4
:10256000D806002038B5FEF7ABFE0024104B02223F
:102570000E2128200094FFF789F94FF47A75284638
:1025800000F030F80A4B01220E2128200094FFF7BA
:102590007DF9284600F026F8054B00220E21282060
:1025A0000094FFF773F92846BDE8384000F01AB8E8
:1025B000380000202DE9F04107460D46164600245C
:1025C0000BE0295D3846FFF775FE40213846FFF7DE
:1025D000CDFD0028F9D0641CA4B2B442F1D3BDE80B
:1025E000F0810000024908600028FDD1704700001A
:1025F00008060020104A108C401C80B210840F493D
:10260000B0F57A7F04D100201084CA6A8A62C86259
:10261000086808B1401E0860486810B1401E486054
:1026200001E088684860C86910B1401EC861704701
:10263000086AC86170470000E40500200806002011
:1026400010B5144CE06A401CE062FEF773FD00F028
:10265000C3FD4FF400611048FEF7E5FC30B90F48A8
:10266000007818B100F018FA0D4908810D48808AE9
:10267000FEF744FFD4E90101884201D1E0688047B8
:10268000D4E90701884203D1606ABDE810400047E1
:1026900010BD000008060020000801409000002046
:1026A00052060020B40600200148FFF7B1B900002F
:1026B000401901002DE9FF4F83B0039882427DD974
:1026C0008B427BD90398101A00F0FF09581A00F0CA
:1026D000FF0AAAF10100C21700EB5270012202EBBF
:1026E000E000C0B2019001F00708CE080AEB080034
:1026F000401EC11700EB517002EBE000C7B2039817
:1027000000EBC6150024DFF800B154E00021CBF83F
:102710000010CBF80410019806E00BEB00021099B2
:1027200002F8011C401EC0B20028F6D1DBE900010E
:102730004246FDF7F7FC2A1993B2344A4FF0FF0CDA
:102740000CFA08FCD35C23EA0C031843CBE9000124
:102750007B1E029305EBC31323449BB2B3F5806F3A
:102760001AD208EB0A0E5FEA4E7C15D012F803C0AD
:102770000EF0070EFF2303FA0EF303EA0C03DDF855
:1027800008C04FEACC0C03FA0CF34FEAE37C034396
:102790004CEA010CCBE9003C002008E005EBC0113D
:1027A000214489B21BF800305354401CC0B2B842D7
:1027B000F4D3641CE4B24C45A8D300E021E04FF010
:1027C00000081CE031460398FEF73CFE0024DFF8C9
:1027D0003CB005EBC81A08E00AEB040001211BF825
:1027E0000000FEF743FE641CE4B24C45F4D3761CB3
:1027F000F6B2072E05D808F1010808F0FF08B84521
:10280000E0D307B0BDE8F08FA0000020B0000020AA
:1028100010B51C4C2046FEF71DFB4FF6BF2120468D
:10282000FEF74AFB18480188A01CFEF745FB174835
:102830000188201DFEF740FB15480188A01DFEF70A
:102840003BFB144801880F480830FEF735FB12485F
:1028500001880C480A30FEF72FFB10480178094820
:102860000C30FEF729FB0E48016806480E30FEF7D3
:102870003DFB0C4801680348BDE810401230FEF7EC
:1028800035BB000000FC0008800000207E00002016
:10289000780000207A0000208C00002046000020F4
:1028A000840000208800002010B5002821D0114BA2
:1028B0000022001F196803E0814203D80A464968D4
:1028C0000029F9D152B11368841A9C4204D10068DE
:1028D00018441060104602E0506000E0186039B102
:1028E00002680B1A934203D10B681A4402604968CC
:1028F000416010BDA80000203EB50446A10802D0EA
:10290000012905D102E000F06BFB01E000F0DEFBE5
:10291000032301212E4A2F48082C0DD2DFE804F0B2
:10292000040D16202D38424DCDE9002102880223E6
:102930000021502001F018FA3EBDCDE90021428867
:1029400004231021502001F00FFA3EBDCDE90021F3
:102950002148032320210288502001F005FA3EBDC2
:10296000CDE900211E491D480723097850F8212090
:102970003021462001F0F8F93EBDCDE9003219487A
:1029800002910123026800214B2001F025F93EBD90
:10299000CDE9002114480423102102884B2001F0C6
:1029A000E3F93EBDCDE900321048029101230268EF
:1029B00020214B2001F010F93EBDCDE900210C484B
:1029C0000423302102884B2001F0CEF93EBD0000E7
:1029D00020000020780000208C000020480000200B
:1029E0004600002088000020800000208400002095
:1029F0007E000020FEB5224D02270024214ECDE9A5
:102A0000007502943B4621461020726801F0E4F8FC
:102A1000CDE900750294102102230846326801F0C6
:102A2000DBF83069FDF7A6FDCDE90054024604232A
:102A30002021102001F098F9CDE90054F28A0423F6
:102A40003021102001F090F9CDE90054B28A04231E
:102A50000021502001F088F9CDE90075029402238D
:102A600010215020B26801F0B7F8CDE9007502944A
:102A7000022320215020F26801F0AEF8FEBD0000D4
:102A800020000020B4060020002070470148FFF716
:102A90007DB900000004004010B500F037FC074C81
:102AA000A168401A002800DA4042FDF737FDE168CE
:102AB000FDF7D1FBFDF75EFD80B210BD9000002058
:102AC00000207047F8B5002400F048FA1B4F40F68C
:102AD0003B750026641CE4B2502C00D1002400F0A9
:102AE000C9FB78886538A84211D2282C07D3144B2B
:102AF00014A21E210020009601F010F9EAE7104B05
:102B000014A21E210020009601F008F9E2E70C4B08
:102B100014A21E210020009601F000F9FFF7D0FF5B
:102B2000032804D0042802D00528D3D1F8BD002002
:102B300000F0D8FF00F012FACCE7000052060020A7
:102B40002000002074686F74746C65206E6F7420B0
:102B50003021210020202020202020202020202083
:102B60002020200020202020202020202020202085
:102B7000202020202000000013480088A0F24521DA
:102B8000132901D200207047A0F28B21312901D2F4
:102B900001207047A0F54771272901D20220704714
:102BA000A0F2E931272901D203207047A0F5A761DF
:102BB000402901D204207047A0F2D170312801D2FF
:102BC000052070470020704752060020FEF7BCF930
:102BD0003420FEF739F91348006880B2A0F57A4135
:102BE000BF391CD0FFF714FEFFF794FCFDF792FEEF
:102BF000FEF724FAFEF7E0FCFEF7F8FAFEF74EFACD
:102C0000FEF788FBFFF758FAFEF79CFDFFF756FB2F
:102C1000FFF74AFDFFF734FAFFF712FDFCE700F07B
:102C2000AFFBE1E700FC0008F0B50B30154D20F0DC
:102C300007010024144A0FE003688B420BD38B4238
:102C400005D95E1A43184768C3E9006700E0436886
:102C5000136002C004E0021D10680028ECD1204679
:102C6000002802D1286808B10020F0BD064A0748B4
:102C70001060074A121A22F00702C0E9002401205E
:102C80002860D7E7AC000020A8000020EC06002058
:102C9000E80700200346012000E05843491EC9B25E
:102CA000FBD2704710B58AB0FEF70AFB17A003C825
:102CB000CDE908010024174B08AA214608200094FA
:102CC00000F0EEFE14A003C8CDE90601114B06AAE0
:102CD00010210820009400F0E3FE11A003C8CDE904
:102CE00004010C4B04AA20210820009400F0D8FE17
:102CF0000DA003C8CDE90201064B02AA302108202D
:102D0000009400F0CDFE0AB010BD000000020304E4
:102D1000000000002C00002001020304000000005D
:102D20000506070800000000090A0B0C000000005F
:102D30007FB5FEF7C5FA18A0006803900024174B72
:102D400003AA21462046009400F0AAFE0120144D5B
:102D5000CDE90050134E0223002132885A2001F0A1
:102D600003F811A0006802900C4B02AA1021002069
:102D7000009400F095FECDE90054042372881021E0
:102D80005A2000F0F1FF2B4608A220215020009489
:102D900000F0C4FF7FBD0000181900002C000020C7
:102DA0002000002078000020182000004E455854D4
:102DB0002D3E000038B5FEF783FA00241C4B1DA2FF
:102DC00021462046009400F0A9FF194B1CA21021B7
:102DD0000020009400F0A2FF154B1CA2202100202F
:102DE000009400F09BFF124B1BA2302100200094A6
:102DF00000F094FF0E4B1BA200214020009400F035
:102E00008DFF0B4B18A210214020009400F086FF8C
:102E1000074B18A220214020009400F07FFF044BB4
:102E200017A230214020009400F078FF38BD000048
:102E300020000020553A20202020207600000000AD
:102E4000493A20202020204100000000463A20205E
:102E50002020206700000000523A2020202020730C
:102E600000000000543A0000503A20202020207733
:102E700000000000453A20202020672F7700000046
:102E8000513A2020202000003EB5FEF719FA0DA08F
:102E900003C8CDE9010100240C4B01AA21462046BC
:102EA000009400F0FDFD0A4B0AA23021502000944E
:102EB00000F034FF064B09A230210020009400F0FE
:102EC0002DFF3EBD10010221220000002C00002039
:102ED000200000206E6578743E3E00003C3C0000FF
:102EE0003EB5FEF7EDF914A003C8CDE901010024B9
:102EF000134B01AA08211420009400F0D1FD114BBE
:102F000011A208215420009400F008FF0D4B0FA2DD
:102F100030215020009400F001FF0A4B0DA2302117
:102F20003220009400F0FAFE064B0BA23021002064
:102F3000009400F0F3FE3EBD21220D2400000000AD
:102F40002C000020200000203F000000736B6970FF
:102F50003E3E00002A0000003C3C000008B5FEF7A1
:102F6000AFF900200090034B03A20821142000F0C9
:102F7000D5FE08BD20000020626520636172656691
:102F8000756C21210000000038B5FEF799F9002486
:102F90000A4B0BA221462046009400F0BFFE074BCF
:102FA0000BA210210020009400F0B8FE034B0AA2EF
:102FB00020210020009400F0B1FE38BD2000002048
:102FC00050574D5F6F75745F6D6F64650000000052
:102FD0004672653A000000007468723A0000000012
:102FE00070B588B0FEF76CF92FA000680790002438
:102FF0002E4B07AA21462046009400F051FD2C4D8F
:103000002C4ECDE90054022332880021502000F0DC
:10301000ABFE29A000680690244B06AA10210020D0
:10302000009400F03DFDCDE9005404237288102186
:10303000502000F099FE21A0006805901B4B05AAC6
:1030400020210020009400F02BFD1D48CDE9005404
:10305000028803232021502000F086FE19A003C817
:10306000CDE90301114B03AA30210020009400F0A8
:1030700017FDCDE9005406234FF46122302146208C
:1030800000F072FEFF2000904023802200217A2071
:10309000FFF710FB0F237F2202217B200094FFF714
:1030A00009FB08B070BD0000181900002C000020BA
:1030B0002000002078000020182000001B1C0000C9
:1030C0008C0000201D1E1F1C0000000070B58CB07D
:1030D000FEF7F6F832A003C8CDE90A010024324B0E
:1030E0000AAA21462046009400F0DAFC2F4D032660
:1030F0002F48CDE9006502940268012300214B208E
:1031000000F06AFD2BA003C8CDE90801264B08AAF0
:1031100010210020009400F0C3FC2848CDE90054A1
:103120000288042310214B2000F01EFE24A003C8B7
:10313000CDE906011C4B06AA20210020009400F0D6
:10314000AFFC2148CDE900650294026801232021EB
:103150004B2000F041FD1DA003C8CDE90401124B36
:1031600004AA30210020009400F09AFC1948CDE90F
:1031700000540288042330214B2000F0F5FDFF208D
:1031800000904023802200217A20FFF793FA202329
:103190007F2211217B200094FFF78CFA0CB070BDC8
:1031A0000D0E0F1C000000002C000020200000204D
:1031B000880000200D0E1213000000008000002087
:1031C0000D110F1C00000000840000200D111213CF
:1031D000000000007E0000202DE9F0411E4E1F4837
:1031E000F5880088281A6430FDF798F91C490968A9
:1031F000FCF7FFFF1B4C074620601B49B08809887D
:10320000401A6430FDF78AF918490968FCF7F1FFA4
:10321000606001463846FCF7ECFF0746A060308945
:10322000FDF785F920613946FDF715F8E0607088F3
:10323000A0824FF47A61884200D9A1822846FDF726
:1032400076F9A0610A48C088FDF771F9E061FFF7DF
:103250001DFCE082BDE8F0815206002080000020C5
:1032600088000020B40600207E000020840000209A
:103270004806002070B50F4E7088FDF758F90446D7
:103280000D4845684FF07E502946FCF7ACFF2146BB
:10329000FCF7AFFF044609484088FDF748F9294686
:1032A000FCF7A7FF2146FCF74CFFFDF763F980B25E
:1032B000708070BD52060020840600204806002061
:1032C0003EB50AA003C8CDE901010024094B01AABB
:1032D0000A210420009400F021FD074B07A22D21B4
:1032E0001420009400F01AFD3EBD0000202122238E
:1032F000240000001400002020000020504F5745FB
:103300005220425920584A4A000000002DE9F0415D
:10331000194D0020287068600024184E4FF4805723
:103320004FF4006839463046FDF786FE6868400075
:10333000686039463046FDF77DFE41463046FDF770
:1033400072FE012802D16868401C6860641CE4B207
:10335000182CE7D339463046FDF76EFE6A6882F4D2
:1033600000026A6039463046FDF764FE012028708D
:103370006868BDE8F081000090000020000801406E
:1033800013480068134908801148801C00681249DE
:1033900008800F48001D0068104908800C48801DF7
:1033A00000680F4908800A48083000680D49088005
:1033B00007480A3000680C49087005480C3000685E
:1033C0000A490860024810300068094908607047DF
:1033D00002FC0008800000207E0000207800002011
:1033E0007A0000208C00002046000020840000208D
:1033F00088000020082815D2DFE800F00406080A3B
:103400000C0E101200F010B800F028BA00F0B6B997
:1034100000F08CB800F040B900F0E4B800F0CEBA8B
:1034200000F074BA704700002DE9FC41DFF8988085
:1034300098F8004000250026244FFFF741FB0128A3
:1034400011D0022804D0042819D0052815D118E07D
:10345000641CE4B2CDE9007502232246002150200D
:1034600000F082FC09E0641EE4B2CDE9007502239D
:1034700022460021502000F077FC74B10EE0A8F83D
:1034800000400120CDE900700223B8F8002000219F
:10349000502000F069FCBDE8FC810124192C00D902
:1034A0001924761CB6B2A6F56A406038C5D100264C
:1034B000E843C5B2CDE90075022322460021502021
:1034C00000F052FCB9E70000780000202000002046
:1034D00030B587B005460024ADF81040ADF818406F
:1034E000ADF812400C20ADF81600ADF8144003956D
:1034F00003A90A48FEF77CFE0021094B09A20846F1
:10350000009400F00BFC0648CDE9000407232A468E
:103510000021282000F028FC07B030BD0038014011
:1035200020000020627561643A0000002DE9FC472C
:1035300029480478002581460026DFF8A080284F1E
:10354000FFF7BEFA012812D0022804D004282FD099
:10355000052817D132E0641CE4B2CDE9008557F8A4
:10356000242007233021462000F0FEFB0AE0641EE1
:10357000E4B2CDE9008557F8242007233021462006
:1035800000F0F2FB0C2C00D90C24761CB6B2A6F588
:103590006A406038D4D10026E843C5B2CDE9008541
:1035A00057F8242007233021462000F0DDFBC7E731
:1035B000A9F8004057F82400FFF78AFF0120CDE961
:1035C0000080B9F800000723302157F8202046205A
:1035D00000F0CAFBBDE8FC87460000202000002068
:1035E000480000202DE9FC41294804880025804638
:1035F0000026284FFFF748FA012812D0022804D0ED
:10360000042834D0052817D135E0641CA4B2E8B2F0
:10361000CDE900700423224610214B2000F0A4FBCA
:103620000AE0641EA4B2E8B2CDE900700423224689
:1036300010214B2000F098FBA4F57F40FF3800D10B
:10364000C824C82C00D90024761CB6B2A6F56A405E
:103650006038CFD10026E84385B2E8B2CDE90070EA
:103660000423224610214B2000F07EFBC2E7A8F87D
:10367000004000F043FC0120CDE90070B8F80020C4
:10368000042310214B2000F06FFBBDE8FC810000FB
:1036900080000020200000202DE9FE4F3348D0F8A4
:1036A00000B0002480460025DFF8C4A04FF07E590A
:1036B000304E0327FFF704FA01281AD0022804D05D
:1036C000042844D0052827D143E05846FCF77FFF63
:1036D0005246294BFCF709FEFCF78CFF8346CDE9E7
:1036E000007601235A4600214B20029400F074FA20
:1036F00012E05846FCF76BFF52461F4BFCF796FE54
:10370000FCF778FF8346CDE9007601235A46002175
:103710004B20029400F060FA1BF1FF4F01D34FF0F1
:10372000000BCB4500DDCB466D1CADB2A5F56A4064
:103730006038BFD10025E043C4B2CDE90076012353
:103740005A4600214B20029400F046FAB2E7C8F82E
:1037500000B00120CDE900760290034600214B2005
:10376000D8F8002000F038FABDE8FE8F880000206D
:103770007B14AE4720000020E17A843F2DE9FC470E
:10378000DFF8A880B8F80040002500264FF4C8797B
:10379000274FFFF779F9012812D0022804D0042816
:1037A00032D0052817D134E0641CA4B2E8B2CDE9C8
:1037B0000070032322462021502000F0D5FA0AE0B1
:1037C000641EA4B2E8B2CDE9007003232246202192
:1037D000502000F0C9FA322C00D232244C4500D9D6
:1037E0004C46761CB6B2A6F56A406038D1D10026A8
:1037F000E84385B2E8B2CDE90070032322462021D8
:10380000502000F0B1FAC4E7A8F80040204600F0CC
:1038100011F80120CDE900700323B8F80020202121
:10382000502000F0A1FABDE8FC8700008C000020C9
:103830002000002010B5B0F5C87F01D9002010BDD0
:103840000449B1FBF0F004494880FDF7B5FE0120C2
:1038500010BD000040420F008C0000202DE9FC4705
:10386000DFF8A090B9F802400025002640F6B838ED
:10387000254FFFF725F9012812D0022804D004288B
:1038800032D0052817D131E06434A4B2E8B2CDE9D2
:103890000070042322461021502000F065FA0AE04F
:1038A000643CA4B2E8B2CDE90070042322461021A2
:1038B000502000F059FA642C00D26424444500D909
:1038C0004446761CB6B2A6F56A406038D1D10026CF
:1038D000E84385B2E8B2CDE9007004232246102106
:1038E000502000F041FAC4E7A9F802400120CDE9D8
:1038F00000700423B9F802201021502000F034FA9F
:10390000BDE8FC8778000020200000202DE9FC4164
:1039100028480488002580460026274FFFF7B4F882
:10392000012812D0022804D0042834D0052817D149
:1039300033E0641CA4B2E8B2CDE90070042322464F
:1039400030214B2000F010FA0AE0641EA4B2E8B265
:10395000CDE900700423224630214B2000F004FA08
:10396000A4F57F40FF3800D1C824C82C00D900241A
:10397000761CB6B2A6F56A406038CFD10026E8437F
:1039800085B2E8B2CDE900700423224630214B20F5
:1039900000F0EAF9C2E7A8F800400120CDE9007084
:1039A000B8F80020042330214B2000F0DDF9BDE8F9
:1039B000FC8100007E000020200000202DE9FE4F49
:1039C0003348D0F800B0002480460025DFF8C4A0BA
:1039D0004FF07E59304E0327FFF772F801281AD0B6
:1039E000022804D0042844D0052827D143E05846B3
:1039F000FCF7EDFD5246294BFCF777FCFCF7FAFD8E
:103A00008346CDE9007601235A4620214B200294BB
:103A100000F0E2F812E05846FCF7D9FD52461F4B81
:103A2000FCF704FDFCF7E6FD8346CDE900760123B3
:103A30005A4620214B20029400F0CEF81BF1FF4F94
:103A400001D34FF0000BCB4500DDCB466D1CADB272
:103A5000A5F56A406038BFD10025E043C4B2CDE986
:103A6000007601235A4620214B20029400F0B4F83E
:103A7000B2E7C8F800B00120CDE900760290034615
:103A800020214B20D8F8002000F0A6F8BDE8FE8FDA
:103A9000840000207B14AE4720000020E17A843FA0
:103AA0002DE9F8430546089F884614461E460097B0
:103AB0002278334641462846FDF7E8FE307928440F
:103AC000C5B2641C09E03346414628460097FDF71D
:103AD000DDFE30792844C5B2641C2278002AF2D178
:103AE000BDE8F8832DE9F04F87B006460024FEF7C5
:103AF00039FDFFF75FF96420FEF716F9FEF7EEF8DF
:103B0000FDF7F2FC0020FDF7B9FC4FF0804B0121DE
:103B10005846FEF72FF901212C48FEF72BF92B4FC1
:103B2000A04610372A4DFDF705FBFFF755FB06B100
:103B3000AC82FEF75FFF11E0ABF81080D5E90621FB
:103B4000288CEB8ACDE90232CDE90410A88A2969D4
:103B5000CDE9001095E80F00FCF7CEFFBBF8100090
:103B60000028E9D1B6B1DFF86C904FF47A6A0DE025
:103B7000A7F80080B9F8000000EB800004EBC0005B
:103B800084B22046FDF7BAFC54451CD03888002882
:103B9000EED102E0A88AFDF7B1FCFEF775FF05281B
:103BA00003D00120FEF71EFDBDE70020FDF766FCF7
:103BB00000215846FEF7DEF807B00021BDE8F04FBF
:103BC0000248FEF7D7B807B0BDE8F08F002C0140DF
:103BD000B4060020780000202DE9FF4F83B007468F
:103BE000DDE910A4129D93461E465846FCF7C2FC20
:103BF0001FFA80F80A205146FFF74CF8FCF797FCB3
:103C000081464046FCF793FC5946FCF7EFFA4946DB
:103C1000FCF7EFFAFCF7AEFC1FFA80F93346424698
:103C2000CDE900453846049900F09EF80095A0883B
:103C3000234606FB0070C0B209A2049900F06EF89A
:103C4000CDE90045A088761C06FB0070C0B2534643
:103C50004A46049900F088F807B0BDE8F08F0000EC
:103C60002E0000000024FFF71DF8102633464822DE
:103C70002146082000F0AAF8FEF722FF012821D0F3
:103C8000022809D00428F7D194B3102C34D0202C6A
:103C900035D0302C38D135E004F11000C3B24822C1
:103CA0002146082000F092F8103CE4B2302C00D9F4
:103CB000302404F11000C3B248222146082000F04D
:103CC00085F8D9E704F110000546C3B24822214621
:103CD000082000F07BF8ECB2302C00D9002404F16D
:103CE0001000C3B248222146082000F06FF8C3E755
:103CF000FFE7FEF779FB07E0FEF7E4FE04E0FDF7DF
:103D000053FC01E0FDF79CFEFEF7CCFF0024334698
:103D100048222146082000F059F8ADE72DE9F84384
:103D20000546089F884614461E460097207833466D
:103D30002038C2B241462846FDF7A8FD3079284414
:103D4000C5B2641C0BE0203AD2B233464146284645
:103D50000097FDF79BFD30792844C5B2641C22789A
:103D6000002AF0D1BDE8F8832DE9F84F8146DDE95E
:103D70000AB88A4617461D46681EC1B20A20FEF7D9
:103D800089FF0446681CFEF74FFF064600200A2103
:103D90000BE0B7FBF4F2B2FBF1F301FB132230327C
:103DA0003254B4FBF1F4401CC0B2A842F1D300205D
:103DB00070555B46324651464846CDF80080FFF7C5
:103DC000ADFF3046BDE8F84FFEF76EBD2DE9FF5F51
:103DD00000987F2801D900200090402900D90021B7
:103DE0000020009C121BD4B25A1AD2B201F0070371
:103DF000CE08D118491ECA1701EB5271012202EBFD
:103E0000E101CFB2009901EBC6154FF0FF0BDFF8CF
:103E1000E8804AE028B1791E884233D18BB3002272
:103E20002CE0002213E005EBC011114489B218F810
:103E300001906FEA090A0BFA03FC0CEA0A0A29EA64
:103E40000C0949EA0A0908F80190521CD2B2A242B0
:103E5000E9D328E005EBC011114489B218F80190AC
:103E60006FEA090A0BFA03FC2AEA0C0A09EA0C09B0
:103E700049EA0A0908F80190521CD2B2A242E9D3D9
:103E800011E0FFE7002105EBC0190AE009EB010290
:103E900092B218F802C06FEA0C0C08F802C0491C74
:103EA000C9B2A142F2D3401CC0B2B842B2D34FF063
:103EB000000A1DE031460098FDF7C4FA4FF00009F2
:103EC00005EBCA1B0AE00BEB0900012118F8000002
:103ED000FDF7CCFA09F1010909F0FF09A145F2D378
:103EE000761CF6B2072E05D80AF1010A0AF0FF0A7D
:103EF000BA45DFD3BDE8FF9FB0000020FEF788BCC5
:103F0000004040404040FC4040408080808084B879
:103F1000B0808080C0800000004040602010FF081A
:103F20000804000038E0000000C07C080000000029
:103F30000000101020703F00202020202027232088
:103F40003C232020203020000000008080808080E2
:103F5000808080FEFC808080808080808080000067
:103F6000000000000000000000C0780F000000000A
:103F7000000000FE7F0000000040402010180C06EA
:103F8000030000000008101070303C0F000000001B
:103F900000800004181000F8F808C8C808F8F800F5
:103FA00000C04000FC00000000000107C03807FF0F
:103FB000FF00FF3F00FFFF0000FF0000FF000000C8
:103FC0000000013F3F402023190E03040419300074
:103FD000000120607F0000000000000830E00000C9
:103FE000808080808080808CF8888898B0C0800035
:103FF0000004040404FC040008080808F8080C087D
:104000003FE000000000000000000000103F180426
:1040100002190808070404020001071C30306E0072
:10402000000000000000804020180C060400000082
:104030004080800000000000000000060E05E4241F
:10404000242424242222222222E223070E0000001C
:104050000000000000003F10101010101010101091
:10406000107F0000000000000000000000000000C1
:104070000000000000000000000000F80000000048
:10408000000000333000000000100C06100C060089
:10409000000000000000000040C07840C0784000F0
:1040A000043F04043F040400007088FC0830000052
:1040B000001820FF211E0000F008F000E0180000AA
:1040C00000211C031E211E0000F008887000000063
:1040D0001E2123241927211010160E0000000000B5
:1040E0000000000000000000000000E018040200D2
:1040F000000000071820400000020418E000000043
:104100000040201807000000404080F08040400040
:104110000202010F01020200000000F00000000096
:104120000101011F0101010000000000000000006A
:1041300080B07000000000000000000000000000DF
:104140000001010101010101000000000000000068
:104150000030300000000000000000008060180403
:10416000006018060100000000E010080810E000E0
:10417000000F102020100F00001010F800000000A9
:104180000020203F202000000070080808887000F0
:104190000030282422213000003008888848300070
:1041A0000018202020110E000000C02010F8000090
:1041B00000070424243F240000F808888808080029
:1041C0000019212020110E0000E01088881800003E
:1041D000000F112020110E0000380808C838080010
:1041E0000000003F00000000007088080888700090
:1041F000001C222121221C0000E010080810E00011
:104200000000312222110F00000000C0C000000099
:1042100000000030300000000000008000000000BE
:1042200000008060000000000000804020100800B6
:10423000000102040810200040404040404040007F
:10424000040404040404040000081020408000005A
:104250000020100804020100007048080808F0005F
:104260000000003036010000C030C828E810E0002F
:104270000718272423140B000000C038E0000000BA
:10428000203C23020227382008F888888870000024
:10429000203F202020110E00C030080808083800F8
:1042A000071820202010080008F808080810E0006F
:1042B000203F202020100F0008F88888E808100010
:1042C000203F20202320180008F88888E8081000E4
:1042D000203F200003000000C0300808083800001C
:1042E00007182020221E020008F808000008F8081D
:1042F000203F210101213F20000808F808080000A4
:104300000020203F2020000000000808F8080800D6
:10431000C08080807F00000008F888C0281808004E
:10432000203F20012638200008F808000000000087
:10433000203F20202020300008F8F800F8F808007E
:10434000203F003F003F200008F830C00008F80878
:10435000203F200007183F00E01008080810E00088
:104360000F10202020100F0008F808080808F0009F
:10437000203F210101010000E01008080810E000C2
:104380000F18242438504F0008F888888888700057
:10439000203F2000030C30200070880808083800F7
:1043A0000038202121221C00180808F808081800ED
:1043B0000000203F2000000008F808000008F8086E
:1043C000001F202020201F000878880000C838081F
:1043D000000007380E010000F80800F80008F80097
:1043E000033C0700073C0300081868808068180831
:1043F00020302C03032C30200838C800C8380800AF
:104400000000203F2000000010080808C8380800FD
:104410002038262120201800000000FE02020200A1
:104420000000007F40404000000C30C00000000051
:10443000000000010638C00000020202FE00000079
:10444000004040407F00000000000402020204001F
:10445000000000000000000000000000000000005C
:104460008080808080808080000202040000000044
:10447000000000000000000000008080808000003C
:104480000019242222223F2008F80080800000002A
:10449000003F112020110E000000008080800000ED
:1044A000000E112020201100000000808088F800FC
:1044B000000E112020103F2000008080808000002E
:1044C000001F222222221300008080F08888881892
:1044D0000020203F2020000000008080808080009D
:1044E000006B94949493600008F800808080000032
:1044F000203F210000203F2000809898000000000D
:104500000020203F2020000000000080989800003C
:1045100000C08080807F000008F80000808080005C
:10452000203F24022D302000000808F80000000081
:104530000020203F2020000080808080808080003C
:10454000203F20003F20003F8080008080800000CE
:10455000203F210000203F2000008080808000005C
:10456000001F202020201F0080800080800000008D
:1045700080FFA12020110E000000008080808000BC
:10458000000E112020A0FF808080800080808000AD
:1045900020203F21200001000000808080808000DA
:1045A0000033242424241900008080E0808000004F
:1045B0000000001F2020000080800000008080009C
:1045C000001F202020103F208080800000808080FD
:1045D00000010E300806010080800080008080808D
:1045E0000F300C030C300F000080800080808000B2
:1045F0000020312E0E3120008080800000808080DD
:1046000080818E701806010000808080808080008C
:104610000021302C2221300000000000807C0202AA
:1046200000000000003F404000000000FF000000CC
:1046300000000000FF0000000002027C800000007B
:104640000040403F00000000000601010202040497
:104650000000000000000000000000F8888C8A893B
:10466000888888F800000000000000FF44444444AB
:10467000444444FF0000000000002424242424FCBF
:104680002222222322000000020202020242827F32
:1046900002020202020202004044C44444444010A8
:1046A00010FF101010F00000103C131014B8403030
:1046B0000E014080403F00001060028C00FE02F2BC
:1046C00002FE00F800FF000004047E018047300F66
:1046D00010270047807F0000404042CC009090901F
:1046E0009090FF10111610000000003F1028603F4E
:1046F0001010010E3040F000008060F80700042424
:104700002425262424240400010000FF000000F9D1
:104710004949494949F90000808080BEA2A2A2A26D
:10472000A2A2A2BE8080800000000006050404044E
:104730004484443C0000000088681FC80810C85426
:1047400052D1129408D01000091909FF0500FF1278
:1047500092FF005F807F000000007C40404040FFEF
:1047600040404040FC000000007C40404040407F12
:104770004040404040FC0000000022322AA6A262D5
:104780002111098101000000004222130B42827EA8
:1047900002020A12234600002030AC63300088C8B1
:1047A000A8998E88A8C888002267221212804030FB
:1047B0000F00003F40407100404042CC0040A09EAE
:1047C0008282829EA02020000000003F908840430B
:1047D0002C10284641808000001715D55557557D6F
:1047E000555755D5151700004040407F5555555534
:1047F0005555557F404040000000F888888888FF64
:1048000088888888F800000000001F080808087FD2
:10481000888888889F80F0001060028C004464546F
:104820004D46445464C4040004047E0180403E00AC
:1048300000FE00007E80E0000000FE40404040009E
:10484000FF8040201008000000007F202010100092
:104850003F404040404078004042CC000044545427
:10486000547F54545444400000007F201000FF1532
:10487000151555957F0000000000FE02828282829D
:10488000FA8282828282020080601F404040404063
:104890007F404044584040008060F80700FC2424DA
:1048A00025262424243C00000000FF403C03FF098F
:1048B0007F097F0989FF00002424A4FE2322001021
:1048C00008946724940C0000080601FF0106008983
:1048D00089444A33120A06001060028C00F010105E
:1048E00010FF101010F0000004047E0100FF42428F
:1048F000427F424242FF000000F80106000002022F
:104900000202020202FE000000FF000000000000A0
:1049100000000040807F0000000000FE9292929212
:10492000929292FE0000000040424458407F404076
:10493000407F40504846400040404242424242C2CE
:104940004242424242404000201008060040807F20
:1049500000000002040830004040407C404040FF1E
:104960004444444444404000809088464040202FC6
:104970001010080402000000404042CC00808888EB
:10498000FF8888FF888880000040201F2040504C0E
:104990004340405F4040400080808080FF8080A096
:1049A000908884828080800000000000FF402112F7
:1049B0000408102020404000407C407F484840F2DE
:1049C000121AD61212F20200908E404F201E804F13
:1049D00020180710204F80000014A4442434AD6632
:1049E00024940444A414000008090808090909FDD6
:1049F00009090B08080908000404E4040FF404047E
:104A0000F444CF444444040040407D44447D444544
:104A1000447C44457C4040000000C2B282828282D5
:104A200082FE8282828280000020201008040241DF
:104A3000807F000000000000404042CC0004F4945D
:104A400094FF9494F40400000040201F2048444246
:104A5000415F41424448400000FC848484FC0010D3
:104A600010101010FF101000003F1010103F000039
:104A7000010640807F0000001010D0FF9010804899
:104A800028090E0828488800040300FF00018080E0
:104A9000432C102C4380800000020CE04020F84F93
:104AA0004849FE484848080004047F000000FF22EF
:104AB00022223F22222220000000F888888888FFD6
:104AC00088888888F800000000001F080808087F10
:104AD000888888889F80F0004042CC0000FE829247
:104AE00092FE929282FE000000003F10887F001E1E
:104AF0001212125E807F00000000007F4949494980
:104B00004949497F000000008141211D214181FF69
:104B1000898989898981810000028282422212FA70
:104B20000622224242820000010100FC4444444526
:104B3000444444FC000001000000000000000000AC
:104B40003C3C3C3C3E3E3EFEFEFFFFFF00000000C2
:104B50000000000000000000000000000000000055
:104B600000000000000000000000FFFFFFFFFF004A
:104B70000000000000000000000000000000000035
:104B800000000000000000000000000000FFFFFF28
:104B9000FFFF000000000000000000000000000017
:104BA0000000000000000000000000000000000005
:104BB000FFFFFFFFFF0000000000000000000000FA
:104BC00000000000000000000000000000000000E5
:104BD00000000007070707070000000000000000B2
:104BE00000000000000000000000F8FEFEFFFF1FB4
:104BF0001F1F1F1F1F1F1F1F1F1F1F1F1F1F1F1FC5
:104C00001F1F1FFFFFFEFEF800000000000F0F0F28
:104C10001F1F000000000000000000000000000056
:104C200080C0C0E0E0F0FFFF7F3F0F000000000009
:104C30000000000000008080C0E0E0F0F0F87C7C24
:104C40003E3F1F0F0F07030301008000000000001C
:104C500000C0F0F8F8FCFEFEDFDFCFC7C7C3C1C15C
:104C6000C0C0C0C0C0C0C0C0C0C0C0C0C0FFFFFF87
:104C7000FFFE0000070707070707070707070707E3
:104C800007070707070707070707070707070707B4
:104C900007070303000000F8FEFEFFFF1F1F1F1F92
:104CA0001F1F1F1F1F1F1F1F1F1F1F1F1F1F1F3FF4
:104CB000FFFFFEFEF80000000000010103030300F7
:104CC000000000000000C0C0C0C0C0C0C0C0C0C064
:104CD000C0C0E0FFFF7F7F1F000000000000000059
:104CE0000000000000000000000707070707070793
:104CF0000707070707070FFFFEFEFCF00000000094
:104D0000FEFEFEFFFFC0C0C0C0C0C0C0C0C0C0C06B
:104D1000C0C0C0C0C0C0C0C0C0E0FFFFFFFF7F0078
:104D20000000000003030707070707070707070737
:104D30000707070707070707070707070707070307
:104D40000100000000000000684D00080000002085
:104D5000B0000000C8230008184E0008B000002072
:104D600038090000D82300080204060800000000EB
:104D7000010203040102030406070809003F0008BA
:104D800018001800480000006840000808001000E3
:104D9000100000005846000810001000200000001D
:104DA000384B000823002300AF0000000000010082
:104DB0000008070000100E000084030000960000A9
:104DC00000C2010000E10000004B0000802500004F
:104DD000C012000060090000B004000000181500B7
:104DE0000A00F401000064007F000000170E043C7C
:104DF000FFFF833C320000000100000000000000C3
:104E00006F4900000080DE43000000000000000049
:084E100000000000000000009A
:04000005080000ED02
:00000001FF
