:020000040800F2
:10000000080B002091010008A7210008A921000881
:10001000AB210008AD210008AF210008000000005E
:10002000000000000000000000000000B1210008F6
:10003000B321000800000000B5210008B721000826
:10004000AB010008AB010008AB010008AB010008E0
:10005000AB010008AB010008AB010008AB010008D0
:10006000AB010008AB010008AB010008AB010008C0
:10007000AB010008AB010008AB010008AB010008B0
:10008000AB010008AB010008AB010008AB010008A0
:10009000AB010008AB010008AB010008AB01000890
:1000A000AB010008AB010008AB010008AB01000880
:1000B000AB010008AB010008AB010008AB01000870
:1000C000AB010008AB010008AB010008AB01000860
:1000D000AB01000881210008AB010008AB0100085A
:1000E000AB010008AB010008AB01000800F002F80A
:1000F00000F03EF80AA090E8000C82448344AAF184
:100100000107DA4501D100F033F8AFF2090EBAE881
:100110000F0013F0010F18BFFB1A43F0010318473B
:10012000D4720000F4720000103A24BF78C878C17D
:10013000FAD8520724BF30C830C144BF04680C60ED
:10014000704700000023002400250026103A28BF35
:1001500078C1FBD8520728BF30C148BF0B60704739
:100160001FB59DE8030005F0CDFA1FBD10B510BD09
:1001700005F024FB1146FFF7F3FF01F0C0FF05F087
:1001800042FB03B4FFF7F2FF03BC05F073FB000072
:100190000948804709480047FEE7FEE7FEE7FEE71B
:1001A000FEE7FEE7FEE7FEE7FEE7FEE70448054957
:1001B000054A064B7047000071020008ED00000878
:1001C00008080020080B002008090020080900206A
:1001D0000CB500214B4801910091026842F4803235
:1001E00002604FF4A063026802F400320092019AA8
:1001F000521C0192009A12B9019A9A42F3D10268F4
:10020000920333D5012100913F490A6842F0100260
:100210000A600A6822F003020A600A6842F00202D9
:100220000A604168416041684160416841F4806111
:100230004160416821F47C114160416841F4E8115A
:100240004160016841F08071016001688901FCD55D
:10025000416821F003014160416841F002014160C1
:100260004168C1F381010229FAD10CBD00910CBD96
:10027000244810B5016841F0010101604168234A3A
:10028000114041600168224A11400160016821F477
:1002900080210160416821F4FE0141604FF41F019B
:1002A0008160FFF795FF1B494FF00060086010BDAB
:1002B000144910B54868184A10F00C03174803D0C9
:1002C000042B01D0082B0AD002604968134AC1F3FD
:1002D0000311121D515C0268CA40026010BD4A68D9
:1002E0004B6802F470124FF0020413F4803F04EBE9
:1002F000924202D04B689B0301D5094B00E0064BAC
:100300005A43E1E700100240002002400000FFF8DD
:10031000FFFFF6FE08ED00E000127A00000000206A
:1003200000093D002849084328490860704770B516
:100330000F23C47801780122F4B1244C2468457855
:1003400004F4E064C4F5E064240AC4F10406E34064
:100350008478B5401C402C4301F1E021230181F851
:100360000034007800F01F018A404009800000F14D
:10037000E020C0F8002170BD01F01F008240480954
:10038000800000F1E020C0F8802170BD104A1140CB
:1003900001430E48001F016070470C4A121D0029DE
:1003A000116801D0014300E08143116070474FF0B4
:1003B000E0210428086903D020F004000861704798
:1003C00040F00400FAE700000000FA050CED00E040
:1003D00080FFFF1FC54910B5884202D10121441595
:1003E0000AE0C349884202D10121041504E0C14951
:1003F00088420AD10121CC03204600F0F8FE2046B5
:10040000BDE81040002100F0F2BE10BD10B54268FA
:10041000B94B0C791A400B6842EA0422134343603B
:100420008368B64A1340D1E9024222434C7943EA39
:1004300044031A438260C26A097C22F47002491E96
:10044000C9B242EA0151C16210BD002101600171CF
:1004500041718160C1600121017470470029816888
:1004600002D041F0010101E021F0010181607047FB
:100470000029816802D041F4807101E021F480718B
:1004800081607047002A4268C9B201D00A4300E087
:100490008A4342607047816841F00801816070477B
:1004A000014600208968090700D50120704781684E
:1004B00041F00401816070470146002089684907C6
:1004C00000D5012070470029816802D041F4A001C5
:1004D00001E021F4A0018160704701460020896895
:1004E000490200D5012070474268491E22F460424B
:1004F00042EA4131416070470029416802D041F42D
:10050000006101E021F400614160704770B507248B
:1005100009290AD9C568A1F10A0606EB4606B440C6
:10052000A543B3401D43C56007E0056901EB4106E3
:10053000B440A543B3401D4305611F23072A09D2D8
:10054000446B521E02EB820293409C4391400C4349
:10055000446370BD0D2A09D2046BD21F02EB8202E4
:1005600093409C4391400C43046370BDC46A0D3AB0
:1005700002EB820293409C4391400C43C46270BDE5
:100580000029816802D041F4801101E021F480113A
:1005900081607047C06C80B2704754484C3000682E
:1005A00070470029416802D041F4806101E021F4E4
:1005B0008061416070470029416802D041F4805158
:1005C00001E021F4805141607047826822F4E042EA
:1005D0000A43826070470029816802D041F40041DB
:1005E00001E021F40041816070470029816802D058
:1005F00041F4021101E021F40211816070470146CB
:1006000000208968890200D50120704770B5072451
:1006100009290AD9C568A1F10A0606EB4606B440C5
:10062000A543B3401D43C56007E0056901EB4106E2
:10063000B440A543B3401D430561836BC3F301542C
:10064000121B921C02EB82041F22A2409343A14082
:100650000B43836370BD826B491E22F4401242EA51
:1006600001518163704708B508440090026008BDDD
:1006700008B5084428300090006880B208BD426880
:100680001F4B1A400A4342607047416282627047C2
:10069000426822F01F020A43426070471349083142
:1006A0000028086802D040F4000001E020F40000B7
:1006B000086070470246002012680A4200D00120FC
:1006C0007047C9430160704710B502460020546866
:1006D0000B0AC9B20C401168194202D0002C00D09C
:1006E000012010BD6FEA1121016070470024014014
:1006F00000280140003C0140FFFEF0FFFDF7F1FF44
:10070000FFFD3FFF01684FF6FE72114001600021BE
:10071000016041608160C1606A496A4A083990425B
:1007200003D1486840F00F0006E0664A1432904258
:1007300004D1486840F0F00048607047614A2832B0
:10074000904203D1486840F47060F5E75D4A3C325E
:10075000904203D1486840F47040EDE7594A503266
:10076000904203D1486840F47020E5E7554A64326E
:10077000904203D1486840F47000DDE7514A783276
:10078000904203D1486840F07060D5E74E4A111F8F
:10079000904203D1086840F00F0006E04A4A143244
:1007A000904204D1086840F0F00008607047464A63
:1007B0002832904203D1086840F47060F5E7424A5D
:1007C0003C32904203D1086840F47040EDE73E4A65
:1007D00050329042EAD1086840F47020E5E730B525
:1007E000036847F6F07293430C6A8A682243D1E9A2
:1007F00004452C4322438C692243CC6922434C6A32
:1008000022438C6A22431A430260CA6842600A6823
:1008100082604968C16030BD002101604160816033
:10082000C160016141618161C161016241628162B6
:1008300070470029016802D041F0010102E04FF643
:10084000FE72114001607047002A026801D00A431D
:1008500000E08A430260704741607047406880B2A0
:10086000704701460020CA0002D5174A083A01E045
:10087000144A083A12680A4200D001207047C100A9
:1008800003D51149091F086070470E4908394860AF
:10089000704701460020CA0002D50B4A083A01E021
:1008A000084A083A12680A4200D001207047C10085
:1008B00003D50549091F0860704702490839486097
:1008C000704700000800024008040240FC4A11681A
:1008D00001F03801014311607047F9490A6822F0BC
:1008E00008020A600A6802430A607047F4490A680D
:1008F00022F010020A600A6802430A607047F0485A
:10090000F0494160F04941607047ED48ED49416070
:10091000ED4941607047EA48016941F08001016199
:100920007047E748016941F0800101617047E4497F
:100930000420CA68D20701D001207047CA68520754
:1009400001D502207047C968C906FBD5032070474E
:1009500000B50346FFF7EBFF03E000BFFFF7E7FF3B
:100960005B1E012803D0002B00D1052000BD002B09
:10097000F4D1FAE770B505464FF430263046FFF75C
:10098000E7FF042811D1CE4C206940F0020020611D
:100990006561206940F0400020613046FFF7D8FFD4
:1009A000216941F6FD721140216170BD30B54FF4EF
:1009B00030252846FFF7CCFF042810D1C04C206911
:1009C00040F004002061206940F04000206128468A
:1009D000FFF7BEFF216941F6FB721140216130BD76
:1009E00000B50346FFF7A3FF03E000BFFFF79FFF3B
:1009F0005B1E012803D0002B00D1052000BD002B79
:100A0000F4D1FAE730B54FF430252846FFF7E8FF78
:100A1000042810D1AA4C206940F00400206120690C
:100A200040F0400020612846FFF7DAFF216941F6D7
:100A3000FB721140216130BDA1490020C9698907BD
:100A400000D50120704770B5A525FFF7F5FF00B16F
:100A500000254FF430263046FFF77AFF042827D1CF
:100A6000974C9848A0609848A060206940F020000A
:100A70002061206940F0400020613046FFF768FFA8
:100A800041F6EF7604280ED1206941F6DF71084067
:100A90002061206940F0100020618C4805804FF4EF
:100AA0000050FFF755FF052802D021693140216130
:100AB00070BDF8B5064600204FF4005C00900D466E
:100AC0006046FFF745FF042816D17D4C206940F0B1
:100AD0000100206135806046FFF73AFF41F6FE775E
:100AE000042806D1B61C280C009630806046FFF71B
:100AF0002FFF216939402161F8BDF0B506464FF45A
:100B000000570D463846FFF723FF04280CD16C4CE4
:100B1000206940F00100206135803846FFF718FF5A
:100B20002169BA1E11402161F0BDF0B506464FF4AF
:100B300000570D463846FFF70BFF042813D1604CD1
:100B40006048A0606048A060206940F0100020610B
:100B500035803846FFF7FCFE052804D0216941F6B0
:100B6000EF7211402161F0BD2DE9F041C04300F06A
:100B7000FF0CC0F30727C0F30746050E4FF40058DB
:100B80004046FFF7E5FE042837D14D4C4D49A160A2
:100B90004D49A160216941F010012161BCF1FF0FB5
:100BA00008D04A480830A0F800C04046FFF7D0FE01
:100BB00004281BD1FF2F07D044480A300780404645
:100BC000FFF7C6FE042811D1FF2E07D03F480C3096
:100BD00006804046FFF7BCFE042807D1FF2D07D052
:100BE0003A480E3005804046FFF7B2FE052804D093
:100BF000216941F6EF7211402161BDE8F08170B5C5
:100C000005464FF430263046FFF7A2FE042818D1DF
:100C10002B4C2C48A0602C48A060206940F020009C
:100C20002061206940F0400020613046FFF790FECF
:100C300041F6DF71042805D0052802D022690A4058
:100C4000226170BD206908402061206940F01000D9
:100C500020611E480DB1002100E0A5210180304631
:100C6000FFF776FE0528ECD0216941F6EF721140BE
:100C7000216170BDF0B5124C0746124816460D466C
:100C8000A0601148A0604FF4005C6046FFF760FE72
:100C9000042814D1206940F01000206135430B492D
:100CA0003D43891C45F0F80008806046FFF750FE80
:100CB000052804D0216941F6EF7211402161F0BD91
:100CC0000020024023016745AB89EFCD00F8FF1FEC
:100CD0001C48C069800870471A48006A7047194963
:100CE00000200968890600D501207047154A0029AF
:100CF000116901D0014300E0814311617047014651
:100D00000020104A012903D0D2680A4203D170475B
:100D1000D169C907FBD0012070470A49C8607047F4
:100D200008490420CA68D20701D001207047CA6868
:100D3000520701D502207047C968C906FBD50320B8
:100D40007047000000200240914910B5884206D14A
:100D50000121042000F04BFA002104203BE08D49E2
:100D6000884206D10121082000F041FA0021082024
:100D700031E08949884206D10121102000F037FA7C
:100D80000021102027E08549884206D1012120203A
:100D900000F02DFA002120201DE08149884206D173
:100DA0000121402000F023FA0021402013E07D497A
:100DB000884206D10121802000F019FA002180200C
:100DC00009E0794988420AD184150121204600F0C2
:100DD0000EFA00212046BDE8104000F008BA10BD10
:100DE00010B50121084600F002FA0021BDE81040CC
:100DF000012000F0FCB9F0B5CA78002502F00F031D
:100E0000D20601D58A7813430A784FF00F0E12F0FC
:100E1000FF0F4FF001021DD0D0F800400F8802FAFA
:100E200005F63740B74211D14FEA850C0EFA0CF7A0
:100E300024EA070703FA0CF43C43CF78282F02D0AA
:100E4000482F02D002E0466100E006616D1C082DCB
:100E5000E4D304600C88FF2C1ED944685FF00006C0
:100E600006F1080702FA07F50F882F40AF420FD1AD
:100E70004FEA860C0EFA0CF7BC4303FA0CF73C431E
:100E8000CF78282F00D14561CF78482F00D1056158
:100E9000761C082EE4D34460F0BD4FF6FF7101804C
:100EA000022181700421C1707047024600209268BF
:100EB0000A4200D001207047806880B27047024625
:100EC0000020D2680A4200D001207047C06880B27A
:100ED000704701617047416170470AB10161704715
:100EE00041617047C160704741F480328261816125
:100EF00082618169806970472C4B10B51A684FF682
:100F00008074224042EA00100843186010BD28494E
:100F1000C8617047F0B5254C002801DAE36900E0AC
:100F20006368420D120185B2C0F301579540C0F3CA
:100F30000346032F05D0C2020AD50322B2409343D1
:100F400007E023F07062636823F07063636002E07F
:100F5000AB4343F0706201B12A43002801DAE26139
:100F6000F0BD6260F0BD10B58A0721F003040F499F
:100F7000130F21440F228C689A4094438C608A6836
:100F8000984002438A6010BD0949C1F8DC007047EF
:100F900000080140000C0140001001400014014015
:100FA00000180140001C01400020014000000140E9
:100FB00000002042A448016841F00101016041683D
:100FC000A24A114041600168A14A114001600168D4
:100FD00021F480210160416821F4FE0141604FF459
:100FE0001F018160704798490A6822F480320A60C4
:100FF0000A6822F480220A60B0F5803F07D0B0F57D
:10100000802F03D1086840F4A0200860704708686A
:1010100040F48030F9E70246002053098A49012B49
:101020000AD0022B0AD0496A02F01F020123934022
:101030000B4200D0012070470968F5E7096AF3E721
:1010400018B500204FF4A06400903120FFF7E3FFB3
:101050000099491C0091A14201D00028F5D031200F
:10106000FFF7D9FF002800D0012018BD76490A6893
:1010700022F0F80242EAC000086070477549086033
:101080007047714A5368084323F47C131843506037
:1010900070477049086670476B4A516821F0030138
:1010A0000143516070476848406800F00C00704789
:1010B000654A516821F0F001014351607047624A6E
:1010C000516821F4E0610143516070475E494A680C
:1010D00022F4605242EAC000486070475A4A002930
:1010E000517A01D0014300E0814351727047594960
:1010F000C1F8D8007047544A516821F44041014377
:10110000516070475049002281F8202081F820204A
:10111000012802D0042802D1052081F82000704760
:101120004D490860704748490A6A02430A6270479D
:10113000494944390860704730B543494A6812F05C
:101140000C03464A03D0042B01D0082B21D00260A7
:101150004A680F23424C03EA1212A35C0268DA4089
:1011600042604B68072505EA1323E35C22FA03F388
:1011700083604B6805EAD323E35CDA40C2604968C8
:10118000032303EA9131231F595CB2FBF1F10161A2
:1011900030BD4A684B6802F470124FF0020413F439
:1011A000803F04EB924202D04B689B0301D52D4B4C
:1011B00000E02A4B5A43CAE7234A0029516901D06B
:1011C000014300E08143516170471F4A0029916942
:1011D00001D0014300E08143916170471A4A002920
:1011E000D16901D0014300E08143D1617047164AC3
:1011F0000029D16801D0014300E08143D1607047EC
:10120000114A0029116901D0014300E081431161B5
:10121000704711494039086070470E49C8647047EB
:101220000949C87170470848416A41F080714162BC
:101230007047054A0146002092680A4200D001200A
:101240007047014988727047001002400000FFF8A3
:10125000FFFFF6FE000042428004424200127A0084
:101260001800002000093D00F94910B5884202D15C
:101270000121C41486E0B0F1804F09D0F5498842BD
:101280000DD101210220FFF7BBFF0021022064E005
:1012900001210846FFF7B4FF002101205DE0EE497F
:1012A000884206D101210420FFF7AAFF0021042073
:1012B00053E0EA49884206D101210820FFF7A0FF48
:1012C0000021082049E0E649884206D1012110208A
:1012D000FFF796FF002110203FE0E249884206D147
:1012E00001212020FFF78CFF0021202035E0DE497E
:1012F000884202D10121441444E0DC49884202D1F1
:101300000121CC043EE0DA49884202D101210C05DA
:1013100038E0D849884202D101214C0532E0D64953
:10132000884206D101214020FFF76AFF00214020BA
:1013300013E0D249884206D101218020FFF760FFE7
:101340000021802009E0CE4988420AD1841501217C
:101350002046FFF755FF00212046BDE81040FFF76B
:101360004FBFC849884202D101210C040AE0C64996
:10137000884202D101214C0404E0C44988420AD1C8
:1013800001218C042046FFF732FF2046BDE81040C3
:101390000021FFF72CBF10BD30B50288AC4BB24C1A
:1013A00098420DD0A0420BD0B0F1804F08D0A94D8B
:1013B000A84205D0A84DA84202D0A84DA84203D10A
:1013C00022F070054A882A43A54DA84206D0A54DB3
:1013D000A84203D022F44075CA882A4302808A8832
:1013E00082850A88028598420AD0A04208D0A54A80
:1013F000904205D0A44A904202D0A44A904201D122
:10140000097A01860121818230BD30B5028C22F03B
:1014100001020284028C8388048B22F0020224F0F1
:1014200073050C882C430D8915434A882A43884D3F
:10143000A8420BD08C4DA84208D0924DA84205D0AE
:10144000914DA84202D0914DA8420DD122F008053D
:101450004A8923F440732A4322F004058A882A43E8
:101460008D891D43CB892B4383800483C988818662
:10147000028430BD70B5028C22F010020284028C0E
:101480008488038B0D8823F4E6464FF6FF7303EA46
:10149000052535430E8922F0200203EA061616437D
:1014A0004A8803EA02123243694EB04202D06E4EBD
:1014B000B04215D122F080064A8924F4406403EA40
:1014C0000212324322F040068A8803EA02123243B3
:1014D0008E8903EA86062643CC8903EA84043443D2
:1014E00084800583C9880187028470BD70B5028C31
:1014F00022F480720284028C8488838B0D8823F00E
:1015000073031D4322F400730E894FF6FF7202EA43
:1015100006261E434B8802EA032333434C4EB04257
:1015200002D0514EB04215D123F400664B8924F409
:10153000405402EA0323334323F480668B8802EA93
:10154000032333438E8902EA06162643CC8902EA36
:101550000414344384808583C9888187038470BDE3
:1015600070B5028C22F480520284048C8288838BB2
:101570000D8823F4E6464FF6FF7303EA052535434D
:1015800024F400560C8903EA043434434E8803EAF9
:10159000063626432E4CA04202D0334CA04205D141
:1015A00022F480448A8903EA82122243828085835E
:1015B000C988A0F84010068470BD828B22F4406276
:1015C0008283828B4FF6FF7303EA01210A438283F1
:1015D0007047828B22F00C028283828B0A438283C3
:1015E0007047028B22F440620283028B4FF6FF7336
:1015F00003EA01210A4302837047F0B5048C24F00A
:1016000010040484078B048C4FF6FF7527F473478E
:1016100005EA03333B4305EA02221A430C4B05EA71
:10162000011698420ED0104B98420BD0B0F1804F6B
:1016300008D0084B984205D0074B984202D0074B80
:10164000984225D124F02001314341F0100124E0DB
:10165000002C01400004004000080040000C004045
:10166000001000400014004000340140004C0140D4
:10167000005001400054014000180040001C004090
:10168000002000400040014000440140004801406B
:1016900024F0A0030B4343F0100102830184F0BD4A
:1016A000028B22F00C020283028B0A4302837047F2
:1016B00070B5048C24F001040484058B048C4FF66F
:1016C000FF7606EA0313134325F0F305F94A2B438B
:1016D00090420ED0F84A90420BD0B0F1804F08D023
:1016E000F64A904205D0F64A904202D0F54A90421E
:1016F00002D124F0020201E024F00A020A4342F07F
:1017000001010383018470BD2DE9F05F0D4604469D
:101710000888E84FDFF8A0C3DFF8A0834988AA88CB
:101720002B894FF0804960B3042832D04FF6FF7EFA
:10173000082836D0208C9B4620F480502084A38B30
:10174000268C704600EA022223F473431A4300EA0F
:101750000B3010430EEA013EBC420BD0644509D069
:101760004C4507D0444505D0D54A944202D0D54BCC
:101770009C4245D126F4005141EA0E0141F48051CA
:1017800043E02046FFF794FFE9882046BDE8F05F7C
:1017900086E72046FFF731FFE9882046BDE8F05F85
:1017A0001FE7208C20F480702084B4F81CA0208CCB
:1017B0000EEA031313432AF0F30A0EEA012B43EA5D
:1017C0000A03BC420BD0644509D04C4507D04445C0
:1017D00005D0BB4A944202D0BA4A944204D120F4C4
:1017E000007040EA0B0002E020F42060084340F45F
:1017F0008070A3832084E9882046BDE8F05FE8E696
:1018000026F402420A4342F48051A08320462184F8
:10181000E988BDE8F05FD0E62DE9F0410C460026EE
:1018200049880746012501B90226A288012A00D16C
:101830000225208823890028384610D0FFF7DDFED6
:10184000E1883846FFF7CDFE23892A4631463846DF
:10185000FFF72EFFE1883846BDE8F04120E7FFF7AB
:1018600027FFE1883846FFF71BFF23892A463146C8
:101870003846FFF7C2FEE1883846BDE8F041B0E6E1
:1018800010B50A884B88CC881A438B8823431A43A7
:101890000B891A434B8989891A430A43A0F84420CB
:1018A00010BD4FF6FF71818000210180C180418011
:1018B000017270470021018041808180C1800181D7
:1018C00041818181C18170470021018041800122D5
:1018D0008280C18001817047002101804180818028
:1018E000C18001814181818170470029018802D036
:1018F00041F0010101E021F0010101807047002960
:1019000030F8441F02D041F4004101E0C1F30E0160
:1019100001807047002A828901D00A4300E08A438F
:1019200082817047818270471143A0F84810704748
:10193000002A828901D00A4300E08A4382817047ED
:10194000018921F0070101817047028922F07002AC
:101950000A430281704700B50346FFF7F6FF188976
:1019600040F00700188100BD70B516460D4660298D
:1019700004464FF0010231460AD0FFF799FE29468E
:101980002046FFF7E2FF208940F00700208170BD6C
:10199000FFF733FEF3E730B504894FF6FF7505EA2C
:1019A00003231343E4B20B432343038130BD10B53B
:1019B0000446FFF7F0FF208940F07700208110BD3A
:1019C00010B50446FFF7E7FF208940F480402081EE
:1019D00010BD018582827047028822F070020A439E
:1019E0000280704770B50589048B068C25F00705C9
:1019F0000D434FF6FC410C4040F201110C434FF6F1
:101A0000FF7101EA031126F02206114331430581DB
:101A10000483018470BD028B22F070020A430283AA
:101A20007047028B4FF6FF7322F4E04203EA012174
:101A3000114301837047828B22F070020A43828334
:101A40007047828B4FF6FF7322F4E04203EA0121D4
:101A50001143818370470029018802D041F0800141
:101A600001E021F08001018070470029818802D0C7
:101A700041F0040101E021F0040181807047002958
:101A8000818802D041F0080101E021F00801818045
:101A900070470029818802D041F0010101E021F066
:101AA000010181807047028B22F008020A43028301
:101AB00070470000002C0140003401400004004049
:101AC00000080040000C0040028B4FF6FF7322F428
:101AD000006203EA012111430183E9E7828B22F0CE
:101AE00008020A438283E3E7828B4FF6FF7322F4F6
:101AF000006203EA012111438183D9E7028B22F0BE
:101B000004020A430283D3E7028B4FF6FF7322F4E9
:101B1000806203EA012111430183C9E7828B22F02D
:101B200004020A438283C3E7828B4FF6FF7322F4D9
:101B3000806203EA012111438183B9E7028B22F01D
:101B400080020A430283B3E7028B4FF6FF73C2F3AE
:101B50000E0203EA012111430183A9E7828B22F0DF
:101B600080020A438283A3E7828B4FF6FF73C2F39E
:101B70000E0203EA01211143818399E7028C22F0CE
:101B800002020A43028493E7028C22F008020A430D
:101B900002848DE7028C4FF6FF7322F0200203EAE5
:101BA00001111143018483E7028C4FF6FF7322F089
:101BB000800203EA01111143018479E7028C4FF698
:101BC000FF7322F4007203EA0121114301846FE7DD
:101BD000028C4FF6FF7322F4006203EA01211143E5
:101BE000018465E7028C4FF6FF7322F4005203EA8A
:101BF0000131114301845BE710B50123048C8B4054
:101C00009C430484038C8A401343038410BD10B5A5
:101C10000423048C8B409C430484038C8A4013432C
:101C2000038410BD30B50124058C00F118038C40ED
:101C3000A543058489B108290FD0091FC1F34E00BF
:101C40001844016821F4E041016001684FF6FF7318
:101C500003EA02221143016030BD03EB5100016829
:101C600021F0700101600168F4E70029018802D0C9
:101C700041F0020101E021F00201018018E7002992
:101C8000018802D041F0040101E021F0040101804B
:101C90000EE70029818802D041F0800101E021F0A7
:101CA0008001818004E7028822F008020280028815
:101CB0000A430280FCE6828822F0700282808288D9
:101CC0000A438280F4E6028922F007020281028937
:101CD0000A430281ECE6028922F080020281028935
:101CE0000A430281E4E68184E2E68185E0E68186BA
:101CF000DEE60187DCE68187DAE6A0F84010D7E669
:101D0000028822F44072028002880A430280CFE6F1
:101D1000808ECDE6008FCBE6808FC9E6B0F840001C
:101D2000C6E6808CC4E6008DC2E602460020128A18
:101D30000A4200D00120BBE6C9430182B8E6024650
:101D40000020138A92890B4202EA010202D0002A83
:101D500000D00120ACE6C9430182A9E6C44910B510
:101D600088420AD101218C032046FFF740FA204621
:101D7000BDE810400021FFF73ABABE49884202D1BF
:101D800001214C0410E0BC49884202D101218C049D
:101D90000AE0BA49884202D10121CC0404E0B849E2
:101DA00088420AD101210C052046FFF729FA204676
:101DB000BDE810400021FFF723BA10BD30B504463E
:101DC000008A85B00D464CF6FF710840E988014352
:101DD0002182A1894EF6F3100140A8882A89104378
:101DE0006A890A431043A081A08A4FF6FF41084048
:101DF000A9890143A1826846FFF79EF99C48844265
:101E000001D1039800E00298A189090400EBC00108
:101E100001EB0010296801D5490000E08900B0FB02
:101E2000F1F06422B0FBF2F109010B096FF0180523
:101E30006B4300EB8300A3891D044FF0320306D5EA
:101E400003EBC000B0FBF2F000F0070005E003EB8D
:101E50000010B0FBF2F000F00F000843208105B045
:101E600030BD4FF41651016000218180C180018195
:101E70000C2242818181704710B5038A4FF2FF0224
:101E800013400A884C8822438C88C9880C4322431B
:101E90001A43028210BD0021018041808180C180EF
:101EA00070470029818902D041F4005101E021F4FA
:101EB00000518181704710B5C1F3421301F01F0436
:101EC0000121A140012B07D0022B07D01430002A9A
:101ED000026805D00A4304E00C30F8E71030F6E75A
:101EE0008A43026010BD002A828A01D00A4300E0C2
:101EF0008A4382827047028A22F00F020282028A9B
:101F00000A4302827047828922F4006282818289B8
:101F10000A43828170470029818902D041F0020181
:101F200001E021F0020181817047028A22F0200243
:101F30000282028A0A43028270470029018A02D083
:101F400041F4804101E021F4804101827047C1F3F6
:101F50000801818070478088C0F30800704781893C
:101F600041F0010181817047028BD2B20283028B62
:101F700042EA012101837047028B02F47F4202830F
:101F8000028B0A43028370470029818A02D041F004
:101F9000200101E021F02001818270470029818A1F
:101FA00002D041F0100101E021F010018182704760
:101FB0000029818A02D041F0080101E021F00801E6
:101FC000818270470029818902D041F4004101E0FB
:101FD000C1F30E01818170470029818A02D041F44A
:101FE000006101E021F4006181827047828A22F061
:101FF00004028282828A0A43828270470029818A8F
:1020000002D041F0020101E021F00201818270471B
:102010000246002012880A4200D001207047C943BE
:102020000180704730B501F01F0201240025C1F383
:10203000421304FA02F2012B0FD0022B0FD0838A35
:102040004FEA11210088134204FA01F400EA040067
:1020500001D000B10125284630BD8389F0E7038A0D
:10206000EEE70A0A01219140C94301807047000050
:10207000003801400044004000480040004C00404F
:10208000005000400EB50121ADF80010ADF804007D
:1020900010210020ADF80210ADF806006946354861
:1020A000FFF77AF90EBD70B502F05FF8044600F054
:1020B0003AFD4FF47A750EE0284600F0F6F8C82095
:1020C00000F06AFC0A21002000F0EFF8642000F024
:1020D00063FC641EE4B24FF00A01002CECD14FF413
:1020E0007A6000F0E2F84FF4167000F055FC0A2117
:1020F000002000F0DAF820490120486070BDFEF7AA
:10210000FEFB3420FEF709FE1C48006880B2A0F5F3
:102110007A41BF392BD001F0EFFE00BF00F06EFB1B
:1021200001F0D6FF02F018FB02F036FA00F04CF88E
:1021300002F070F802F078FB02F0E5FD00F056FCCA
:1021400002F0B1FC00F02EF900F036FB02F090FB3B
:1021500041F2883402F015F902F0B2F9641E240449
:10216000240CF7D1FFF79FFF00F0A7FBFCE701F07D
:10217000FCFED3E7001000408806002000FC0008A9
:1021800010B50E4C40F225512046FFF74BFF0028BA
:1021900008D02046FFF7DFFE0A4A094B1188585441
:1021A000491C118010BD7047FEE7FEE7FEE7FEE721
:1021B00070477047704700F02EBB000000380140A8
:1021C000E8040020580000202DE9F04188B00024E8
:1021D0000121009401940294C8020394FEF7F5FFD4
:1021E00001210420FEF7F1FF01210846FEF7EDFF73
:1021F00018208DF81F0003208DF81E003E4E4FF46E
:102200008075ADF81C5007A93046FEF7F4FD29464D
:102210003046FEF75EFE4FF43475ADF81050ADF861
:102220001240364F364EDFF8DC8038683188B0FB1C
:10223000F5F0B0FBF1F0ADF81400ADF8164004A9CC
:102240004046FFF7A9F86020ADF800000120ADF886
:10225000020038683188B0FBF5F2B0FBF5F0B2FB54
:10226000F1F2B0FBF1F07188ADF808404843142159
:10227000B0FBF1F0101A401CADF80600694640466C
:10228000FFF7C3F801214046FFF739FB082140461C
:10229000FFF709FC01214046FFF7DDFB0121404625
:1022A000FFF723FB08B0BDE8F08130B5134A13688F
:1022B0004FF43472B3FBF2F4B4FBF0F5114C2C3450
:1022C000258024880F4D24352C80B3FBF2F4B4FB19
:1022D000F0F4B3FBF2F2B2FBF0F048431421B0FB90
:1022E000F1F00849201A3431401C088005490120CA
:1022F000088030BD70470000000801400000002049
:102300005A000020002C014038B501210420FEF7BE
:102310005CFF01211020FEF758FF01210846FEF75F
:1023200054FF03208DF8020018208DF803004FF4AD
:102330000070FF4CADF8000069462046FEF75BFDDB
:1023400004208DF803000002ADF800006946204625
:10235000FEF751FD38BD08B501211020FEF735FF0D
:1023600003208DF8020004208DF803004003ADF82F
:1023700000006946EF48FEF73EFD08BD08B54FF482
:10238000C060FDF7CFFF25208DF8000000208DF8FC
:10239000010001208DF802008DF803006846FDF76A
:1023A000C6FF08BD7FB5FFF7E9FFFFF7ADFFFFF7F9
:1023B000D2FF01218803FEF708FF4FF4E1300090BF
:1023C00000200C21ADF80A10ADF80400DA4CADF88D
:1023D0000C00ADF80600ADF8080069462046FFF78E
:1023E000EDFC40F22555012229462046FFF763FD0A
:1023F00001212046FFF755FD002229462046FFF720
:102400005AFD7FBD70B50C46CB49CC4D884210D1EA
:1024100008880D4609E02846FFF799FD4021284627
:10242000FFF7F6FD0028F9D0641C21780029F2D1CD
:1024300070BDA8420AD070BD2846FFF788FD402134
:102440002846FFF7E5FD0028F9D0641C2178002913
:10245000F2D170BD2DE9F04115460E460746002425
:102460000BE0315D3846FFF772FD40213846FFF73B
:10247000CFFD0028F9D0641CA4B2AC42F1D3BDE872
:10248000F08130B4AE49AA2200240A704A70F122C9
:102490008A70CC70C2780A7182784A7142788A71E7
:1024A0000278CA71C2790A7282794A7242798A7252
:1024B0000279CA72C27A0A73827A4A73427A8A733A
:1024C000027ACA73C27B0A74827B4A74427B8A7422
:1024D000027BCA74C27C0A75827C4A75427C8A750A
:1024E000027CCA75427D0A76027D4A76C27D8A7672
:1024F000827DCA76C27E0A77827E4A77427E8A775A
:10250000027ECA77C27F81F82020827F81F8212055
:10251000427F81F82220027F81F8232090F8212039
:10252000234681F8242090F8200081F825002622F7
:102530002220C8700846C15C5B1C2144DBB2CCB2CF
:102540009342F8D3845430BC7D497B48521C81E7C8
:102550007C4896E72DE9F003794CDDE909764FF0E8
:10256000AA08DDF8189004F8068B4FF0000C04F868
:10257000058C4FF0F10804F8048C4FEA106804F859
:10258000028C4FEA104804F8018C4FEA102884F8B6
:1025900000806070080EA070080CE070080A2071BE
:1025A0006171100EA071100CE071100A207262723D
:1025B000180EA072180CE072180A207363734FEAA9
:1025C0001960A0734FEA1940E0734FEA1920207494
:1025D00084F811909DF81D00A0749DF81C00E07413
:1025E0009DF8210020759DF820006075380EA075BB
:1025F000380CE075380A20766776300EA076300CFD
:10260000E076300A207766779DF82D00A0779DF858
:102610002C00E07726222220654604F8030C484867
:10262000415D6D1C6144EDB201F0FF0C9542F7D3A2
:1026300000F802C0BDE8F00341493F48521C09E7D9
:1026400010B5414A00200146404C138802E0215455
:10265000401C80B29842FAD3118010BD30B587B0CB
:10266000054600240C20ADF81200ADF80C40ADF882
:102670001440ADF80E40ADF8104002A92E48029566
:10268000FFF79CFB0021324B32A20846009402F077
:1026900090FC2F48CDE9000407232A46002128207A
:1026A00002F024FD07B030BD2DE9F0470026DFF829
:1026B000AC90214F2A4C244DDFF890A0FFF7C0FFCB
:1026C00059F82600FFF7CAFF26A13846FFF79AFE01
:1026D0002046298800E0401E022902D20028FAD1B3
:1026E00061E020B39AF800104F295CD19AF80100FC
:1026F0004B2858D1FFF7A4FF1BA13846FFF782FEF5
:10270000A0462046298800E0401E022901D2002868
:10271000FAD19AF800004F2803D19AF801004B280B
:1027200048D014A13846FFF76DFE28882EE03AE025
:1027300000080140001001400038014000480040FE
:10274000E80500207407002058000020E80400205D
:1027500034000020627561643A00000060000020CF
:10276000FFFF3F004154000041542B424155444279
:102770000000000041542B554152543D393231364E
:1027800030302C302C302C00A8F10108022802D265
:10279000B8F1000FF8D19AF800104F2903D19AF838
:1027A00001004B2806D0761CF6B20C2E86D30020F2
:1027B000BDE8F0870120FBE77A4800210160422252
:1027C000826082684260784AC26001740A22826133
:1027D00083694361754BC36180F820108262826A0D
:1027E0004262734AC26280F8301064228263826B54
:1027F000426380F83C100164416470474FF0E02070
:102800006C4941616C4AF02182F8141D00218161FC
:1028100007210161704710B5684C6949208C401C44
:1028200080B220840A684B68521C43F100030A609E
:102830004B606421B0FBF1F201FB120028B902F0F9
:1028400058F9604900EB80000880218C5548B1F5AB
:102850007A7F04D100212184426C026441640168C2
:1028600011B10168491E0160426B01211AB1426B2E
:10287000521E426303E0826B426380F83C10426860
:102880001AB14268521E426002E0826842600174DE
:10289000426A1AB1426A521E426203E0826A42628E
:1028A00080F8301042691AB14169491E416110BD7A
:1028B0008269426180F8201010BD2DE9F047394C43
:1028C000606C401C606401F05CFD01F0F9FD4FF4A8
:1028D00000613D48FEF7E9FA30B93C48007818B18C
:1028E00001F0B1FF3A4908803A4EB08A01F0B6FED5
:1028F00094F82000002518B184F82050E069804742
:1029000094F83C0040B384F83C50072002F04AF8A9
:1029100003F0F4F8304FDFF8C4803A46434603F042
:1029200001F9DFF8BCA04FF066394A46534603F080
:10293000F7F902F0C5FFB061062002F033F803F0AA
:10294000DDF83A46434603F0EDF84A46534603F0B5
:10295000E7F902F0B5FFF0612248007820B1207C51
:1029600010B12574E068804794F8300018B184F8FD
:102970003050E06A80471C48008801F0D8FBBDE871
:10298000F04700EB4001C1EBC0104FF6FF7101EAC8
:1029900000100A21FFF789BC024908600868002876
:1029A000FCD1704740060020272B0008F9420008A0
:1029B000512500083F1901000FE000E01C0600202F
:1029C00090000020D600002000080140C400002034
:1029D000D4000020740700207B14AE47E17A943FB6
:1029E00066127140D800002098060020FE480021A1
:1029F00041600160017302F03AB9FEB5022700247C
:102A0000FA4D0097FA4ECDE901543B46214610207D
:102A1000726802F09EFB0097CDE901541021022359
:102A20000846326802F095FB306903F0B9FBCDE946
:102A30000054024604232021102002F057FBCDE968
:102A40000054F28A04233021102002F04FFBCDE91C
:102A50000054B28A04230021502002F047FB009763
:102A6000CDE90154022310215020B26802F071FB1D
:102A70000097CDE90154022320215020F26802F092
:102A800068FBFEBD38B50024D84BDAA221462046AB
:102A9000009402F08EFAD54BD9A2102100200094A8
:102AA00002F087FAD14BD9A220210020009402F035
:102AB00080FACE4BD8A230210020009402F079FA9F
:102AC000CA4BD8A200214020009402F072FAC74BF2
:102AD000D5A210214020009402F06BFAC34BD5A27E
:102AE00020214020009402F064FAC04BD4A230218F
:102AF0004020009402F05DFA38BD3EB5D2A100241A
:102B0000D1E900010094CDE90101D14B01AA0A21CC
:102B1000042002F04EFAB54BCEA22D2114200094D1
:102B200002F047FA3EBD10B5AF4C606830B10128E5
:102B300015D0022817D1BDE810405EE7FFF7DDFF92
:102B4000C8480168426840F6C4130020591A9041F1
:102B500009D201206060BDE8104002F088B8FFF79C
:102B600091FF0220606010BD10B58AB002F07FF8BE
:102B7000BDA10024D1E900010094CDE90101BC4BC5
:102B800001AA2146082002F0D0FBBAA0B84BD0E938
:102B900000100094CDE9031003AA1021082002F0D0
:102BA000C4FBB6A0B24BD0E900100094CDE90510EB
:102BB00005AA2021082002F0B8FBB2A0AC4BD0E956
:102BC00000100094CDE9071007AA3021082002F078
:102BD000ACFB0AB010BD2DE9FC41AC48002607460D
:102BE00004883546DFF8048201F0BDFA012806D0DA
:102BF000022806D003282BD004280DD129E0641C1C
:102C000000E0641EF0B2CDE90080A4B204232246A5
:102C100030214B2002F06AFAA4F57F40FF3815D02E
:102C2000C82C00D900246D1CADB2A5F56A406038EF
:102C3000DAD1F04386B2F0B2CDE90080002504235A
:102C4000224630214B2002F051FACDE7C824EAE7B2
:102C50003C800121CDE900813A88042330214B20BA
:102C600002F044FABDE8FC812DE9FE4F88480026B9
:102C700007463546DFF81CB24FF07E5ADFF86C810C
:102C80004FF00309D0F8004001F06BFA012806D09C
:102C900002280CD0032823D004281CD121E0204690
:102CA00003F028F95A467C4B02F03CFE06E0204631
:102CB00003F020F95A46784B03F032F802F000FE98
:102CC000CDF800900446CDE901860123224620215B
:102CD0004B2002F03EFA14F1FF4F0FD3002410E016
:102CE0003C600122CDF80090CDE901820123202132
:102CF0004B203A6802F02DFABDE8FE8F544500DD06
:102D000054466D1CADB2A5F56A406038BCD1F043A5
:102D1000C6B2CDF80090CDE90186002501232246F8
:102D200020214B2002F015FAAEE72DE9FC415B486B
:102D30000026074604883546DFF8B08001F013FA14
:102D4000012806D0022806D003282BD004280DD154
:102D50002BE0641C00E0641EF0B2CDE90080A4B258
:102D60000423224610214B2002F0C0F9A4F57F4035
:102D7000FF3815D0C82C00D900246D1CADB2A5F5C4
:102D80006A406038DAD1F04386B2F0B2CDE9008013
:102D900000250423224610214B2002F0A7F9CDE79D
:102DA000C824EAE73C8001F009F90121CDE900815E
:102DB0003A88042310214B2002F098F952E72DE9BC
:102DC000FE4F3748002607463546DFF8C8B04FF0BB
:102DD0007E5ADFF818804FF00309046801F0C1F94A
:102DE000012865D002285DE088060020340000201C
:102DF00074070020553A2020202020760000000093
:102E0000493A20202020204100000000463A20209E
:102E10002020206700000000523A2020202020734C
:102E200000000000543A0000503A20202020207773
:102E300000000000453A20202020672F7700000086
:102E4000513A2020202000002021222324000000CD
:102E500028000020504F57455220425920584A4AD6
:102E600000000000900000200002030400000000A9
:102E700040000020010203040000000005060708CE
:102E800000000000090A0B0C000000009C0000205C
:102E9000B00000207B14AE47E17A843F9E00002002
:102EA000B40000200CD0032823D004281CD121E03A
:102EB000204603F01FF85A46FE4B02F033FD06E0B1
:102EC000204603F017F85A46FA4B02F029FF02F0A9
:102ED000F7FCCDF800900446CDE901860123224697
:102EE00000214B2002F035F914F1FF4F0ED30024DE
:102EF0000FE03C600122CDF80090CDE90182012372
:102F000000214B203A6802F024F9F5E6544500DD33
:102F100054466D1CADB2A5F56A4060387FF45EAFD3
:102F2000F043C6B2CDF80090CDE90186002501231B
:102F3000224629464B2002F00CF94FE72DE9FC47C9
:102F4000DD480026804604783546DFF87093DC4F74
:102F500001F007F9012806D0022806D0032825D061
:102F600004280DD128E0641C00E0641ECDE9009621
:102F7000E4B2072357F824203021462002F0B6F8A7
:102F80000C2C00D90C246D1CADB2A5F56A4060383C
:102F9000DED1F043C6B2CDE90096002557F82420D3
:102FA00007233021462002F0A1F8D1E7A8F800401D
:102FB00057F82400FFF752FB0121CDE90091B8F842
:102FC00000000723302157F82020462002F08EF819
:102FD000BDE8FC872DE9FC47DFF8E8820026B74F03
:102FE000B8F8004035464FF4C87900BF01F0BBF88F
:102FF000012806D0022806D0032813D004280DD1BA
:1030000015E0641C00E0641EF0B2CDE90070A4B2CB
:10301000032322462021502002F068F8322C11D2DE
:10302000322412E02046A8F8004001F06FFB012096
:10303000CDE900700323B8F800202021502002F0D1
:1030400055F8C5E74C4500D94C466D1CADB2A5F509
:103050006A406038CAD1F04386B2F0B2CDE9007060
:103060000025032322462021502002F03FF8BDE72F
:103070002DE9FC47DFF850820026904FB8F8024057
:10308000354640F6B83900BF01F06BF8012806D08C
:10309000022806D0032813D004280DD112E064348E
:1030A00000E0643CF0B2CDE90070A4B204232246F3
:1030B0001021502002F01AF8642C0ED264240FE084
:1030C000A8F802400120CDE900700423B8F80220DE
:1030D0001021502002F00AF87AE74C4500D94C46FE
:1030E0006D1CADB2A5F56A406038CDD1F04386B213
:1030F000F0B2CDE9007000250423224610215020B3
:1031000001F0F4FFC0E72DE9FC41DFF8BC810026A7
:10311000354698F80040694F01F023F8012806D0A1
:10312000022806D0032824D004280CD123E0641CF4
:1031300000E0641ECDE90076E4B2022322460021BD
:10314000502001F0D3FF0CB3192C00D919246D1CA9
:10315000ADB2A5F56A406038DED1F043C6B2CDE924
:1031600000760025022322462946502001F0BEFFAA
:10317000D2E7A8F800400120CDE900700223B8F89A
:1031800000200021502001F0B1FF6BE50124DEE7B3
:1031900008280DD2DFE800F00405060708090A0B2D
:1031A000B1E765E716E7C9E609E6BEE55CE512E5C5
:1031B000704770B58CB001F05AFD44A10024D1E9EC
:1031C00000010094CDE90301424B03AA21462046A9
:1031D00002F0ABF80326394D00963F48CDE9015483
:1031E0000268012300214B2001F0B3FF3BA0394BC3
:1031F000D0E900100094CDE9051005AA10210020A7
:1032000002F093F83748CDE90054028804231021D6
:103210004B2001F06BFF34A12E4BD1E9000100944B
:10322000CDE9070107AA2021002002F07EF80096D0
:103230002F48CDE901540268012320214B2001F0E1
:1032400088FF2CA1234BD1E900010094CDE90901AD
:1032500009AA3021002002F068F82848CDE900547E
:103260000288042330214B2001F040FFFF20009012
:103270004023802200217A2001F0AEFF20237F220C
:1032800011217B20009401F0A7FF0CB070BD70B538
:1032900088B001F0ECFC1AA00024006804900D4BEB
:1032A00004AA21460094204602F03FF8034D022371
:1032B000054E27E0E17A843F5E00002034000020C4
:1032C00060000020BE000020980000200D0E0F1CA2
:1032D0000000000040000020B40000200D0E12137A
:1032E000000000009E0000200D110F1C00000000D7
:1032F000B00000200D111213000000009C000020FF
:1033000018190000CDE9005432880021502001F046
:10331000EDFEFEA0FE4B00680094059005AA10216A
:10332000002002F002F8CDE9005404237288102135
:10333000502001F0DBFEF7A0F54B0068069006AACE
:1033400020210094002001F0F0FFF348CDE9005463
:10335000028803232021502001F0C8FEEFA0EC4B8F
:10336000D0E90010CDE9021002AA0094302100201B
:1033700001F0DBFFCDE9005406234FF4E1323021A8
:10338000462001F0B3FEFF20009040238022002160
:103390007A2001F021FF0F237F2202217B2000945D
:1033A00001F01AFF08B070BD3EB50446800802D097
:1033B000012805D102E0FFF76AFF01E0FFF7F9FEFF
:1033C00003230121D74AD848082C3DD2DFE804F076
:1033D000040A1118232B323DCDE900210223028873
:1033E000002104E0CDE9002104234288102150206F
:1033F00032E0CDE90021C848032320210288F6E706
:10340000CDE90021CA49C9480723097850F821208D
:103410003021462020E0CDE90032C6480291012348
:10342000002102680DE0CDE90021C34804231021EA
:10343000028810E0CDE90032C04802910123026801
:1034400020214B2001F085FE3EBDBD48CDE9002185
:103450000423028830214B2001F048FE3EBD10B508
:103460000024FFF714FF18E000F07BFE01280FD0C6
:10347000022807D0032814D00428F5D1BDE8104055
:1034800000F09CBD641CE4B2082C06D1002404E0CA
:10349000641EE4B2082C00D907242046FFF784FFFD
:1034A000E2E72046FFF774FEDEE738B501F0DFFB08
:1034B00000249C4BA3A221462046009401F079FDF4
:1034C000984BA4A210210020009401F072FD954BAE
:1034D000A2A220210020009401F06BFD38BD10B5A0
:1034E000FFF7E3FF00F03DFE0428FBD110BD08B557
:1034F00001F0BDFB002000908A4B9AA20821142005
:1035000001F057FD08BD38B501F0B1FB0024994B1F
:1035100002220E212820009401F07CFC4FF47A75E1
:103520002846FFF739FA934B01220E2128200094F8
:1035300001F070FC2846FFF72FFA8E4B00220E2177
:103540002820009401F066FC2846BDE83840FFF7CB
:1035500023BA2DE9F04F87B007460025FFF7D3FFC8
:10356000FFF790FA01F045F8002001F04CF8DFF881
:103570000892824C4FF08046A84600BF00F001FF41
:1035800000F09EFF07B1A582FFF737FA12E000BFF7
:10359000A6F81080D4E90612E08A0DF1080A238CFF
:1035A0008AE80F00A18A2069CDE9000194E80F00A4
:1035B000FEF7D0FF308A0028EAD1C7B1DFF868A152
:1035C0004FF47A6BB9F80010484699B1A0F8008022
:1035D000BAF8000000EB800005EBC00085B2284679
:1035E00001F03CF85D45EDD107B0BDE8F08FA08A51
:1035F00001F034F800F0B7FD042803D00120FFF7F4
:10360000CBF9BBE707B00020BDE8F04F00F0FBBFEF
:10361000F8B50024FFF76BFF594E40F63B770025C5
:10362000641CE4B2502C00D1002400F029FF708803
:103630006538B8420BD23B4B282C009501D351A2E0
:1036400000E054A21E21002001F0B3FCE8E7354B56
:1036500054A21E210020009501F0ABFC00F081FD7A
:10366000032803D0042807D00528D9D10020FFF76C
:1036700070FFFFF73CFFD3E7F8BD7FB501F0F7FA25
:10368000AFF28430006800240290214B02AA214648
:103690000094204601F049FE0120224DCDE9005062
:1036A000214E0223002132885A2001F01FFD17A06D
:1036B000174B0068039003AA10210094002001F02A
:1036C00034FECDE900540423728810215A2001F001
:1036D0000DFD2B4638A220215020009401F069FCFA
:1036E0007FBD3EB501F0C3FA35A10024D1E9000148
:1036F0000094CDE90101064B01AA0821142001F034
:1037000014FE0821074B30A254205FE0182000006F
:10371000400000201B1C0000BE0000201D1E1F1CBE
:10372000000000003400002098000020600000200D
:103730005E000020B40000209E000020B0000020A9
:103740009C00002050574D5F6F75745F6D6F64650E
:10375000000000004672653A000000007468723A8A
:10376000000000006265206361726566756C21214E
:10377000000000004C000020102C014074070020C5
:10378000A800002074686F74746C65206E6F7420DC
:103790003021210020202020202020202020202037
:1037A0002020200020202020202020202020202039
:1037B00020202020200000004E4558542D3E0000BF
:1037C00021220D24000000003F000000009401F0C1
:1037D000F0FBFE4BFEA230215020009401F0E9FBEB
:1037E000FA4BFDA230213220009401F0E2FBF74BAE
:1037F000FAA230210020009401F0DBFB3EBD3EB573
:1038000001F035FAF6A10024D1E900010094CDE9D8
:103810000101F54B01AA2146204601F086FDEB4B44
:10382000F2A230215020009401F0C3FBE74BEBA241
:1038300030210020009401F0BCFB3EBD2DE9FC4787
:10384000FFF7DDFFE14B0025AFF6282210212846C7
:10385000009501F0AEFBFF2630237F2220210020BF
:10386000009601F0B9FCD94F6FF00B08DFF8849394
:1038700000F006FECDE9007502461021042308463B
:1038800001F034FC00F0FCFD02F0C2FC414602F005
:1038900050FE494602F0D0FC02F082FC0446C2B25F
:1038A0002E2322210220009501F096FCE0B2302365
:1038B0007F222021009601F08FFC00F052FC0328AB
:1038C00003D0042807D00528D2D10120FFF741FEFC
:1038D000FFF795FFCCE7BDE8FC8710B5FFF701FFC8
:1038E00000F03FFC032807D0042808D00528F7D1B2
:1038F0000120FFF72EFEF1E7FFF7A0FFEEE710BD76
:103900002DE9FC410024FFF7B8FE0325AF4EBA4F66
:1039100000F027FC01283AD0022804D003283FD029
:103920000428F5D131E4641CE4B2032C00D1002456
:10393000B4FBF5F005FB104078B30020CDE9006042
:1039400002233A8800215A2001F0D0FBB4FBF5F0A5
:1039500005FB1040012800D00020CDE900600423C1
:103960007A8810215A2001F0C1FBB4FBF5F005FB69
:103970001040022801D0002000E00120934BAFF25C
:10398000C81200902021502001F013FBC0E7641EF4
:10399000E4B2FF2CCCD10224CAE7FFE70120CDE737
:1039A00044B1012C09D0022CB2D1FFF796FFFFF7EA
:1039B00064FEADE7FFF7A7FBAAE7FFF759FBA7E710
:1039C0000024FFF7D1F810253CE000BF00F0C9FB50
:1039D00001280BD002281AD00328F7D124B3102CC9
:1039E00025D0202C26D0302C29D126E004F110003F
:1039F000C3B248222146082001F0AFFC103CE4B2DB
:103A0000302C00D9302404F11000C3B21BE004F1C3
:103A10001006F3B248222146082001F09EFCF4B2C1
:103A2000302CF0D90024EEE7FFF76AFF07E0FFF73C
:103A3000EFFD04E0FFF753FD01E0FFF710FDFFF796
:103A400093F800242B4648222146082001F085FCEB
:103A5000BCE72DE9FE4F6949002601EB800751F8CC
:103A600020403546DFF898B14FF07E5ADFF85C8190
:103A70004FF0040900F077FB012806D002280CD093
:103A8000032823D004281CD121E0204602F032FA7A
:103A90005A465C4B01F046FF06E0204602F02AFA47
:103AA0005A46584B02F03CF901F00AFFCDF800905D
:103AB0000446CDE901860123224620214B2001F056
:103AC00048FB14F1FF4F0FD3002410E03C600122AB
:103AD000CDF80090CDE90182012320214B203A68E6
:103AE00001F037FBBDE8FE8F544500DD54466D1CE8
:103AF000ADB2A5F56A406038BCD1F043C6B2CDF88E
:103B00000090CDE9018600250123224620214B208B
:103B100001F01FFBAEE770B58CB001F0A8F8AFF66E
:103B20005401D1E9000100240094CDE903012E4B9A
:103B300003AA2146204601F0F8FB0626234D0096F5
:103B40003148CDE901540268012300215A2001F0D7
:103B500000FBAFF67800D0E900100094CDE9051025
:103B60000021214B05AA084601F0DFFB2748CDE9DB
:103B700000540288042310215A2001F0B7FAAFF64E
:103B80008C01D1E900010094CDE90701164B07AA89
:103B90003021002001F0C9FB1D48CDE90054028806
:103BA000042330215A2001F0A1FAAFF6C400D0E975
:103BB00000100094CDE909100B4B09AA2021002028
:103BC00001F0B3FB01231348009625E034000020E8
:103BD000736B69703E3E00002A0000003C3C000010
:103BE0001001022122000000400000206E65787460
:103BF0003E3E00000000FE4298000020A406002087
:103C0000FCA9F1D24D62503FB40000209E0000207C
:103C10009C000020B0000020CDE901540268002182
:103C20005A2001F096FAFF200090402380220021C4
:103C30007A2001F0D1FA2F237F2220217B200094CB
:103C400001F0CAFA0CB070BD70B58CB001F00FF87D
:103C5000AFF68811D1E9000100240094CDE90301F9
:103C6000974B03AA2146204601F05FFB0626954D9F
:103C700000969548CDE901540268012300215A209D
:103C800001F067FAAFF6AC10D0E900100094CDE96E
:103C9000051000218A4B05AA084601F046FB8B4817
:103CA000CDE900540288042310215A2001F01EFAA5
:103CB000AFF6C011D1E900010094CDE90701804BB6
:103CC00007AA3021002001F030FB8148CDE90054E3
:103CD0000288042330215A2001F008FAAFF6F810C8
:103CE000D0E900100094CDE90910754B09AA2021F4
:103CF000002001F01AFB00967648CDE901540268D5
:103D0000012300215A2001F024FAFF2000904023D3
:103D1000802200217A2001F05FFA3E237F222F21AA
:103D20007B20009401F058FA8CE738B500F09FFF33
:103D30000024644B68A221462046009401F039F922
:103D4000604B67A210210020009401F032F938BDC9
:103D50002DE9F04F89B00024FFF7E7FF0120DFF8DD
:103D600064A104270097CDE901A0DFF87CB10346E8
:103D70005646D84600212020DBF80C2001F0E9F956
:103D800000250097CDE90165012310212020D8F8F6
:103D9000082001F0DEF901218E073046FDF7A5FD70
:103DA00000F0EFFA00F08CFB2DE03582DFF83C816B
:103DB000D8F8000002F0F4F987B2B8F8140002F065
:103DC00027FADFF82C810090B8F8040002F020FAFE
:103DD000DFF820910790B9F8040002F019FA069074
:103DE000B8F8060002F014FA8046B9F8060002F0AE
:103DF0000FFA02950195CDE90457DDE906230395F5
:103E00004146FEF7A7FB308A0028CED100F0A9F981
:103E1000012826D0022806D0032846D0042849D1FC
:103E200009B0BDE8F08F641CE4B2022C16D0B4B126
:103E30005FF000024FF00408CDF80080CDE901A248
:103E40005F46012300212020DBF80C2001F081F9DE
:103E5000CDF80080CDE901A4BA681EE0002401225B
:103E6000E8E7641EE4B2012C01D9012400E0D4B1DA
:103E700000214FF00408CDF80080CDE901A157469C
:103E8000012300212020DBF80C2001F062F9CDF89D
:103E90000080CDE90174DBF80820012310212020E7
:103EA00001F057F906E00121E3E73CB10020801C56
:103EB000FFF7CFFD0120FEF76FFD71E70120F6E768
:103EC0004000002034000020B40000209E000020AC
:103ED0009C000020B00000204355523A0000000032
:103EE0004241543A00000000A4060020740700205C
:103EF000A0000020A800002010B5314C2046FCF79F
:103F000039FD4FF6BF212046FCF7F7FD2D4801880B
:103F1000A01CFCF7F2FD2C480188201DFCF7EDFDEC
:103F20002A480188A01DFCF7E8FD2948018824489B
:103F30000830FCF7E2FD2748018821480A30FCF7E9
:103F4000DCFD254801781E480C30FCF7D6FD2348DF
:103F500001681B480E30FCF7ACFD21480168184889
:103F6000BDE810401230FCF7A4BD1548801C006865
:103F7000144908801248001D006813490880104841
:103F8000801D0068114908800D48083000681049FC
:103F900008800B480A3000680E49088008480C3039
:103FA00000680D49087006480E3000680B4908602B
:103FB0000348123000680A49086070479CE7000017
:103FC00000FC00089E0000209C00002098000020BB
:103FD0009A000020BE0000205E000020B0000020FB
:103FE000B400002070B5012190B00846FDF7E4F858
:103FF00001214802FDF7E9F8774E3046FCF782FBD5
:1040000076480090764801A90024042581E8310013
:104010008020CDE9044040000690800007902020D9
:1040200008900002CDE9090469463046FCF7D7FB49
:1040300001213046FCF7FDFB01208DF830008DF8A2
:1040400031000B944FF46020CDE90D04634C8DF8E2
:104050003C504C3C0BA92046FCF7D8F94FF44040AB
:10406000FDF749F80723012200212046FCF74EFA0C
:104070000723022201212046FCF748FA07230322E6
:1040800002212046FCF742FA07230422032120469E
:10409000FCF73CFA01212046FCF7EAF90121204611
:1040A000FCF7DCF92046FCF7F6F92046FCF7F8F9B6
:1040B0000028FAD12046FCF7FAF92046FCF7FCF973
:1040C0000028FAD101212046FCF7FDF910B070BD9F
:1040D00008B501210420FDF778F80F20ADF80000A5
:1040E00004208DF8030069463E48FCF784FEBDE8D5
:1040F000084077E7642190FBF1F03949091F0880F7
:10410000704770B50024364E254608360120FEF76C
:1041100043FCF0886D1C2044EDB284B20A2DF5D327
:104120000A20B4FBF0F02E49091F488070BD40F210
:10413000F541884201D20020704740F23771884231
:1041400001D20120704740F6C411884201D20220FA
:10415000704740F6E441884201D2042070470520B0
:10416000704700207047002070471F481F49406873
:10417000884201DC012070471D49884201DC022091
:1041800070471C49884201DA032070471A49884267
:1041900001DC042070471949884201DA0520704784
:1041A0001749884201DA062070471649884201DA29
:1041B000072070471449884201DC082070471349E2
:1041C000884201DA092070471149884201DA0A2041
:1041D0007047002070470000080002404C24014056
:1041E000A0000020000801407407002033338B40FA
:1041F00033330B410000584133338B419A99AD4121
:10420000CDCCD0419A99F34133330B429A991C4259
:1042100000002E42C748C6490160C7494160C749EE
:104220008160C1604FF07E510161C2496420B431A8
:104230004861704730B5C34AC14BBE48147814304A
:10424000198820F8141000EB44015D880D849D88C6
:10425000A1F84050DB88A1F86030BB4B641C1B8880
:10426000A1F88030E1B21170102901D30021117042
:104270000022114630F81130491CC9B21A441029E5
:10428000F8D31109AB4A0C3A002311804FEA03011D
:1042900000EB4104491C248CC9B223441029F7D3F4
:1042A000190951800023194600EB4104491CB4F858
:1042B0004040C9B223441029F6D319099180002344
:1042C0004FEA030100EB4104491CB4F86040C9B255
:1042D00023441029F6D31909D18000234FEA0301A2
:1042E00000EB4104491CB4F88040C9B223441029B2
:1042F000F6D31809108130BD8E480C38028840F280
:10430000F540824206D340F2377301208D499A422C
:1043100001D24870704740F6C4139A4201D28870A7
:10432000704740F6E4439A4201D2C8707047087162
:10433000704784484178012901D00020704700214E
:104340004170012070477F488178012901D0002009
:10435000704700218170012070477A48C178012997
:1043600001D0002070470021C170012070477548BE
:104370000179012901D0002070470021017101203D
:1043800070472DE9F047FFF755FF704C608801F04A
:104390003FFF684D06464FF07E59D5F804804846E9
:1043A000414602F01FF8314601F046FFA5F10C0628
:1043B0000746708801F02CFF414601F03DFF394669
:1043C00001F0C4FD01F0ECFE6080A08801F020FF48
:1043D000D5F8088007464146484602F003F83946BA
:1043E00001F02AFF0746B08801F012FF414601F0B4
:1043F00023FF394601F0AAFD01F0D2FEA080E0883B
:1044000001F006FFED6807462946484601F0EAFF3D
:10441000394601F011FF0746F08801F0F9FE294600
:1044200001F00AFF394601F091FD01F063FD002221
:10443000474B01F077FA01F01DFBE080BDE8F08703
:1044400070B5424E308801F0E3FE044639480568F5
:104450004FF07E50294601F0C5FF214601F0ECFEE9
:1044600004463748008801F0D3FE294601F0E4FEF7
:10447000214601F06BFD01F093FE80B2308070BDEB
:1044800070B5324E708801F0C3FE04462948456875
:104490004FF07E50294601F0A5FF214601F0CCFEE9
:1044A00004462748408801F0B3FE294601F0C4FEC7
:1044B000214601F04BFD01F073FE80B2708070BDAB
:1044C00070B5224D2349E8880988401A643001F00C
:1044D00087FE2149096801F0AFFE164C1F49D03410
:1044E00006462060A8880988401A643001F078FEEA
:1044F0001B49096801F0A0FE01466060304601F0EA
:104500009BFE0646A060A4F1DC00008901F080FE5D
:104510003146206101F082FDE06068884FF47A61E5
:10452000A082884200D9A1820E480088E08270BD36
:10453000A4707D3FA406002072F97F3FCDCCCC3D16
:10454000A0000020B8000020D4000020A800002017
:104550000000E03F9E000020B40000209C000020EE
:10456000B0000020D600002038B501210820FCF75B
:104570002CFE18208DF8030003208DF80200802007
:104580006A4CADF8000069462046FCF734FC8021F7
:104590002046FCF7A0FC38BD3EB5FFF7E5FF012142
:1045A0000420FCF71BFE6249624A00240888624D21
:1045B000B2FBF0F048804821ADF80010ADF80400DF
:1045C000ADF80240ADF8064069462846FCF7E4FE27
:1045D0005A4960200880012048804FF47A70C880D2
:1045E0000C812846FCF746FF01212846FDF77DF99E
:1045F0003EBD52496420C8804F48FCF73BBF402174
:104600004D48FDF70EBA2DE9F0410646642800D961
:1046100000264748408801F071FA0C460546484A92
:10462000484B01F07FFA8846214607462C460D4646
:10463000304601F063FA444A444B01F073FA2246D3
:104640002B4601F06FFA3A46434601F06BF901F050
:1046500011FA394938310880BDE8F0812DE9F0417F
:104660000446B0F57A6F00D90024314840880546E9
:1046700001F044FA324A334B01F054FA07460E4631
:1046800005FB04F001F023FA314A324B01F04AFAFB
:104690003A46334601F046F901F0ECF92649383143
:1046A0000880D9E725496420C8802348FCF758BF13
:1046B00040212148FDF7C5B92DE9F041064664289F
:1046C00000D900261A48408801F018FA0C46054621
:1046D0001B4A1C4B01F026FA8846214607462C4609
:1046E0000D46304601F00AFA174A184B01F01AFA43
:1046F00022462B4601F016FA3A46434601F012F9DB
:1047000001F0B8F90C4940310880A5E710B5B0F5C3
:10471000C87F01D9002010BD0649B1FBF0F0044963
:104720004880FFF739FF012010BD0000000C014058
:10473000BE00002040420F00000800409807002003
:104740009A9999999999A93FFCA9F1D24D62403F54
:104750002D431CEBE236EA3EF8B501210420FCF7BC
:1047600034FD4FF48055ADF8005003208DF8020061
:1047700010203D4E8DF8030069463046FCF73BFBA8
:104780006C10ADF8004069463046FCF734FB294612
:104790003046FCF7A0FB21463046FCF79AFBADF80B
:1047A000004004208DF8030069463046FCF723FBE7
:1047B000F8BD2DE9F0412D4C00202B4F207005460F
:1047C0004FF480564FF40068606031463846FCF77D
:1047D00080FB60683146400060603846FCF77BFB38
:1047E00041463846FCF761FB012802D16068401C55
:1047F00060606D1CEDB2182DE7D331463846FCF7EA
:1048000068FB6068314680F4000060603846FCF761
:1048100062FB012020706068BDE8F08110B501F0F6
:10482000F7FC1249C86010BD70B50F4D4FF400641D
:1048300021462846FCF739FB0128F9D0FFF7B9FFDC
:104840000A49886070BD10B5FFF7B3FF074CA16837
:10485000401A00D5404201F0C3FCE16801F0DEFBE4
:1048600001F09EFC80B210BD00080140C400002091
:1048700038B501210820FCF7A8FC4FF44054ADF8EE
:10488000004014208DF8030003207C4D8DF80200B9
:1048900069462846FCF7AFFA21462846FCF719FB83
:1048A00038BD70B5754D4FF4805421462846FCF74D
:1048B00010FB660031462846FCF70BFB00F0B2F80F
:1048C00021462846FCF707FB00F0ACF831462846A5
:1048D000BDE87040FCF7FFBA2DE9F041674F044690
:1048E0004FF4005631463846FCF7F5FA00254FF4F0
:1048F000805800BF04F0800080284146384623D00D
:10490000FCF7E9FA6006040E31463846FCF7E1FA96
:1049100000F088F831463846FCF7DDFA0A20401EE0
:1049200010F0FF00FBD16D1CEDB2082DE2D30A2080
:10493000401E10F0FF00FBD141463846FCF7C9FA93
:10494000BDE8F04100F06EB8FCF7C3FADAE72DE9F4
:10495000F04700250824494E67024FF001094FF443
:10496000005839463046FCF7B4FA00F05BF841468F
:104970003046FCF7AEFA39463046FCF796FA20B1DD
:10498000611E09FA01F02843C5B200F04BF8414618
:104990003046FCF7A0FA641E14F0FF04E1D128466B
:1049A000BDE8F0872DE9F0410446FFF77AFFB42017
:1049B000FFF792FF00F03CF82046FFF78DFF00F074
:1049C00037F8FFF76EFFB520FFF786FF00F030F8ED
:1049D000FFF7BDFF044600F03CF8FFF7B8FF44EADC
:1049E000002400F036F8FFF7B2FF00F01BF8234E6A
:1049F0004FF4005529463046FCF76DFA6F103946E2
:104A00003046FCF768FA00F00DF829463046FCF70E
:104A100060FA00F007F839463046FCF75AFA2046AB
:104A2000BDE8F0812820401E10F0FF00FBD1704748
:104A300070B5124D4FF4005421462846FCF749FA50
:104A4000FFF7F0FF21462846FCF745FABDE8704025
:104A5000E8E770B5094C4FF480512046FCF73BFA6B
:104A6000651429462046FCF734FAFFF7DBFF294698
:104A70002046FCF730FABDE87040D3E7000C014057
:104A800008B501210420FCF7A0FB04208DF80300E9
:104A900003208DF802008020ADF800006946184818
:104AA000FCF7A9F908BD3EB5FFF7EAFF0121022096
:104AB000FCF794FB00204FF6FF71ADF80410ADF841
:104AC0000000104CADF80200ADF806006946204623
:104AD000FCF762FC0B490831088840F007000880A9
:104AE00060212046FCF731FF01212046FCF7FDFE46
:104AF0003EBD04492431088800220A807047000026
:104B0000000801400004004010B5FF4C4021204641
:104B1000FCF7DFF920212046FCF7DBF920212046B5
:104B2000FCF7D9F92046BDE810404021FCF7D3B985
:104B300010B5F54C40212046FCF7CBF9202120464A
:104B4000FCF7C9F92046BDE810402021FCF7C1B9A7
:104B500010B5ED4C40212046FCF7BBF92046BDE8DE
:104B600010404021FCF7B7B970B5E74E044640212C
:104B70003046FCF7B0F9002504F0800080284FF0A3
:104B80002001304610D0FCF7A6F96006040E402143
:104B90003046FCF79EF940213046FCF79CF96D1C2D
:104BA000EDB2082DE8D370BDFCF793F9EDE710B531
:104BB0000446FFF7A9FF7820FFF7D6FFFFF7C8FFED
:104BC0000020FFF7D1FFFFF7C3FF2046FFF7CCFF20
:104BD000FFF7BEFFBDE81040AAE710B50446FFF797
:104BE00093FF7820FFF7C0FFFFF7B2FF4020FFF7E9
:104BF000BBFFFFF7ADFF2046FFF7B6FFFFF7A8FFAB
:104C0000BDE8104094E7C0B201B1E6E7CFE710B5C8
:104C10000A460446002102F1B000FFF7F4FF10201D
:104C200040EA14100021FFF7EEFF04F00F00BDE88A
:104C300010400021E7E710B500218D20FFF7E3FFCA
:104C400000211420FFF7DFFF0021BDE81040AF2056
:104C5000D9E710B500218D20FFF7D5FF00211020E6
:104C6000FFF7D1FF0021BDE81040AE20CBE770B5C3
:104C70000024002104F1B000FFF7C5FF0021084621
:104C8000FFF7C1FF00211020FFF7BDFF0025012124
:104C90000020FFF7B8FF6D1CADB2802DF7D3641C68
:104CA000A4B2082CE5D30020984A01464FF4806353
:104CB0001154401C80B29842FAD370BD70B50024E4
:104CC000002104F1B000FFF79EFF00210846FFF726
:104CD0009AFF00211020FFF796FF002501210846CA
:104CE000FFF791FF6D1CEDB2802DF7D3641CE4B289
:104CF000082CE5D370BD0246012000E05043491E58
:104D0000C9B2FBD2704738B501210420FCF75DFA27
:104D10006020ADF8000010208DF8030003207A4CCD
:104D20008DF8020069462046FCF765F860212046B0
:104D3000FCF7CFF80021AE20FFF765FF0021084601
:104D4000FFF761FF00211020FFF75DFF00214020E9
:104D5000FFF759FF0021B020FFF755FF0021812008
:104D6000FFF751FF0021FF20FFF74DFF0021A0209A
:104D7000FFF749FF0021C020FFF745FF0021A620D3
:104D8000FFF741FF0021A820FFF73DFF00213F2052
:104D9000FFF739FF0021D320FFF735FF0021084638
:104DA000FFF731FF0021D520FFF72DFF00218020E4
:104DB000FFF729FF0021D820FFF725FF002105205C
:104DC000FFF721FF0021D920FFF71DFF0021F1206F
:104DD000FFF719FF0021DA20FFF715FF002112204D
:104DE000FFF711FF0021DB20FFF70DFF002130202E
:104DF000FFF709FF00218D20FFF705FF0021142098
:104E0000FFF701FF0021AF20FFF7FDFE4049012021
:104E1000087038BD2DE9FC5F1D4683467F2801D907
:104E20004FF0000B3F2900D90021287A01F0070636
:104E300050430190EA884FEAD10A501EC31700EB95
:104E40005370012303EBE000C0B20090701E1044C9
:104E5000C11700EB517003EBE000C7B20BEBCA19AE
:104E6000002479E0DFF8A8E00020CEF80800CEF8B2
:104E70000C00DDE900010A190FE000BFB5F804C01D
:104E80002968431E03FB0C1198468B5C20490831AE
:104E9000084400F8013C08F0FF000028EED10C980F
:104EA00030B17046D0E90213CA43D943CEE902219A
:104EB000DFF85C803246D8E9020100F0F1FB134ACA
:104EC00009EB04034FF0FF0ED35C0EFA06FC23EA55
:104ED0000C03184309EBC7132344803B1FFA83FCE0
:104EE000C8E90201BCF5806F23D2EB8833445FEA46
:104EF00043781ED012F80CC003F007080EFA08F32E
:104F000003EA0C0306E0000000080140E80000206E
:104F1000D80000204FEAC70CACF1080C03FA0CF3E0
:104F20004FEAE37CDFF8F48303434CEA010CC8E961
:104F3000023CFA49002008310AE000BF09EBC01327
:104F4000234411F800C09BB2401C02F803C0C0B259
:104F5000B842F3D3641CE4B2A888A04282D80026E9
:104F60001DE051465846FFF752FE002409EBC618D3
:104F700009E000BFEA4808EB0401405C0121FFF7AB
:104F800042FE641CE4B2A888A042F3D80AF10100F2
:104F900000F0FF0ABAF1070F03D8761CF6B2BE4242
:104FA000DFD30020BDE8FC9F00EBC110DC49085CAA
:104FB00070472DE9F8430546089F0097107814467E
:104FC00020381E468846C2B204E02038C2B23346BA
:104FD000414600972846FFF71DFF30792844C5B2A7
:104FE00014F8010F0028F0D1BDE8F8832DE9FE4345
:104FF0001F460A9E14008846054607D52D220096B6
:10500000FFF708FF387964422844C5B242F21070B5
:1050100094FBF0F030308DF804004FF47A7094FB7C
:10502000F0F10A2091FBF0F200FB121130318DF803
:105030000510642194FBF1F191FBF0F200FB1211D9
:1050400030318DF8061094FBF0F191FBF0F200FB8B
:10505000121130318DF8071094FBF0F100FB114074
:1050600030308DF8080000208DF809003B4601AA79
:10507000414628460096FFF79CFFBDE8FE83FEB53B
:1050800042F21074B2FBF4F430348DF804404FF463
:105090007A74B2FBF4F60A24B6FBF4F704FB176645
:1050A00030368DF805606426B2FBF6F6B6FBF4F7F1
:1050B00004FB176630368DF80660B2FBF4F6B6FBDB
:1050C000F4F704FB176630368DF80760B2FBF4F690
:1050D00004FB162230328DF808200022089D8DF83E
:1050E000092001AA0095FFF764FFFEBD2DE9F84FE6
:1050F00083468A46DDE90A98581EC1B21C46174607
:105100000A20FFF7F8FD0646601C00F073FA05461A
:1051100000200A210CE000BFB7FBF6F2B2FBF1F36E
:1051200001FB1322B6FBF1F630322A54401CC0B208
:10513000A042F1D3002028554B462A4651465846F6
:10514000CDF80080FFF735FF2846BDE8F84F00F0A6
:1051500080BA2DE9FF4F83B08146DDE911461D4637
:105160008B46DDF840A0059801F01AF81FFA80F888
:105170000A205146FFF7BFFD01F04AF807464046B6
:1051800001F046F8059901F023F9394601F054F889
:1051900001F006F8CDE9004687B22B464246594653
:1051A0004846FFF7A3FF0096A188234605FB019020
:1051B000C0B25CA25946FFF7FCFECDE90046A188CB
:1051C0006D1C05FB0190C0B253463A465946FFF7A5
:1051D0008DFF07B0BDE8F08F2DE9F84F83465A45A3
:1051E0007AD98B4278D9A2EB0B00C7B2581AC5B254
:1051F000681EC21700EB5270012202EBE000C0B241
:1052000001F0070A00904FEAD10905EB0A00401EA1
:10521000C11700EB517002EBE000C6B20BEBC918EE
:10522000002455E03D490020C1E90200009807E054
:105230003A4A0A9B08320244401E02F8013CC0B2BE
:105240000028F5D135495246D1E9020100F028FA8B
:10525000DFF8CCE008EB0402FF231EF8022003FA7B
:105260000AF39A4310432D4AC2E9020108EBC61221
:105270002244803A92B2B2F5806F16D20AEB050C46
:105280005FEA4C7311D01EF802300CF0070CFF22BD
:1052900002FA0CF21A40F300083B9A40D317DFF8E9
:1052A0007CC002430B43CCE902231C490020083197
:1052B000724609E008EBC013234411F800C09BB20A
:1052C000401C02F803C0C0B2B042F3D3641CE4B285
:1052D000BC42A7D300251DE01EE049465846FFF713
:1052E00096FC002408EBC51A09E000BF0C480AEB45
:1052F0000401405C0121FFF786FC641CE4B2BC425F
:10530000F4D309F1010000F0FF09B9F1070F03D848
:105310006D1CEDB2B542E0D3BDE8F88FD800002097
:10532000E80000202E00000070472DE9F8431446E5
:10533000089F00971E4688460546127803E03346CC
:10534000414628460097FFF765FD307914F8012F94
:105350002844C5B2002AF2D146E62DE9F84F81462D
:105360007F2801D94FF00009402900D90021A2EB84
:105370000902D4B25A1A4FEAD10AD2B201F0070E8A
:1053800002EB0E01491ECA17002001EB52710122E7
:1053900002EBE101CDB209EBCA1B4AE068B1691E1C
:1053A000884236D1BEF1000F33D00022FF230BEB31
:1053B000C0188E4F03FA0EF328E00023FF210BEBF9
:1053C000C012DFF828C201FA0EF100920CE0009A38
:1053D0001A4497B21CF8072021EA02068A43324396
:1053E0005B1C0CF80720DBB2A342F0D31FE000BF28
:1053F00008EB02011FFA81FC17F80C10CE439E4304
:1054000019403143521C07F80C10D2B2A242EFD31C
:105410000DE000210BEBC017744A06E07B189BB22D
:10542000D65CF643491CD654C9B2A142F6D3401CFF
:10543000C0B2A842B2D300271CE051464846FFF74D
:10544000E6FB00260BEBC71809E000BF674808EB36
:105450000601405C0121FFF7D6FB761CF6B2A6429E
:10546000F4D30AF1010000F0FF0ABAF1070F03D8E4
:105470007F1CFFB2AF42E0D34EE72DE9FC5F1D4633
:1054800083467F2801D94FF0000B3F2900D9002126
:10549000287A01F0070650430190EB884FEAD10AC1
:1054A000581EC21700EB5270012202EBE000C0B29E
:1054B0000090701E1844C11700EB517002EBE00021
:1054C000C7B20BEBCA19002468E0DFF824E1002220
:1054D000CEF80820CEF80C20DDE900010A190EE014
:1054E000B5F804C0411E2B68884601FB0C318B5C6B
:1054F0003F490831084400F8013C08F0FF0000284B
:10550000EED1DFF8EC803246D8E90201C043C9434E
:1055100000F0C6F8354A09EB04034FF0FF0ED35CE8
:105520000EFA06FC23EA0C03184309EBC7132344C5
:10553000803B1FFA83FCC8E90201BCF5806F1BD2D7
:10554000EB8833445FEA437816D003F0070812F87B
:105550000CC00EFA08F303EA0C034FEAC70CACF1D7
:10556000080C03FA0CF34FEAE37CDFF88480034372
:105570004CEA010CC8E9023C1D4B0020083309E04D
:1055800009EBC011214413F800C089B2401C02F895
:1055900001C0C0B2B842F3D3641CE4B2A888A042F0
:1055A00093D800261DE051465846FFF730FB0024F3
:1055B00009EBC61809E000BF0C4808EB0401405C89
:1055C0000121FFF720FB641CE4B2A888A042F3D8B5
:1055D0000AF1010000F0FF0ABAF1070F03D8761CA8
:1055E000F6B2BE42DFD30020DCE40000E800002079
:1055F000D800002070B5064600F068F8056806F18E
:105600000B0020F00704B4429CBF002070BD2B4665
:105610006A68BAB11068A04210D304F10801884248
:105620003CBF5068586007D3516810194160116839
:10563000091B016058601460101D70BD134652684C
:10564000002AE7D12146284600F048F80028DED19C
:1056500070BD70B50446051F00F038F80068002CD6
:1056600014BF446870BD002C18BFAC423CBF20463C
:105670006468F8D301680A18AA4218BF456003D1CC
:105680002A6805461144016028684119A1421CBFDF
:105690006C6070BD6168696021680844286070BDF5
:1056A000B2F120030AD5C2F1200301FA02F120FA77
:1056B00003F300FA02F041EA0301704700FA03F134
:1056C0004FF00000704770477047704700487047C0
:1056D000B0070020704770477047704738B50446E0
:1056E0000A4600206946AFF30080002808BF38BD95
:1056F00002460099204600F03FF8012038BD012005
:1057000000F054B8F8B5AFF30080054600200C4611
:10571000102000BF0646A819A0420DD9324669469E
:105720000020AFF30080070008BF00F03FF80098AA
:10573000A04218BF0546C419FFF7C8FF0560074619
:10574000F01D20F007004619284600F00AF8B44280
:1057500008BFF8BDA21B31463868BDE8F84000F02C
:105760000BB800210160C0E901107047102070479C
:1057700000487047A8070020034640688C46002870
:1057800018BF88423CBF03464068F8D318681844E5
:10579000884207D00CF1030020F00700001D411AD9
:1057A000521A0146081D0A60FFF753BF10B500F0FA
:1057B00039F8BDE8104000F02FB870477546FFF784
:1057C000D7FFAE4605006946534620F007008546E0
:1057D00018B020B5FAF7EAFCBDE820404FF000060B
:1057E0004FF000074FF000084FF0000B21F00701C9
:1057F000AC46ACE8C009ACE8C009ACE8C009ACE80C
:10580000C0098D46704710B50446AFF300802046AE
:10581000BDE81040FAF7B5BC002801D000F02AB866
:105820007047000010B5012805D0002103A000F04A
:1058300027F8012010BD09A1F8E70000534947529D
:10584000544D454D3A204F7574206F662068656150
:1058500070206D656D6F7279000000003A20486518
:105860006170206D656D6F727920636F72727570F3
:105870007465640001491820ABBEFEE726000200F3
:1058800070B505460C460A2000E06D1C00F011F8CA
:1058900035B128780028F8D102E0641C00F009F83E
:1058A00014B120780028F8D1BDE870400A20AFF389
:1058B000008008B569468DF800000320ABBE08BD26
:1058C00021F00042A2F16052B2F5801F01F00043C6
:1058D00028BFD2F17F6C0BD95FEA001C43EAC202F9
:1058E00042EB507018BF704728BF20F0010070478E
:1058F000B2F5801FBCBF184670474FEA410C1CF53B
:10590000001F02D2084600F05EBD70B500F0B4F989
:1059100000000089FFF7F6BF4FF00040A0F58000BF
:105920007047000010B591EA030F48BF83F00043B1
:1059300000F1FE81841A71EB030C05D2121943EBBE
:105940000C03001B61EB0C01DFF824E14FEA11545A
:10595000A4EB135C1EEA430F18BF9EEA445F73D0AA
:1059600023EA0E03DCF1200E21EA045143F48013F4
:1059700032D322FA0CFE10EB0E0023FA0CFE41EBA0
:105980000E01CCF1200E03FA0EFE10EB0E0051F1C9
:105990000001B1F5801FCCF1200E32D201EB045191
:1059A00012FA0EF2BDE8104058BF7047401C38BFD5
:1059B0005FEA420218BF7047002814BF20F00100C0
:1059C00041F100014FEA410313F5001F38BF704752
:1059D000A1F1C04100F09EB9012A43EB0302ACF1F2
:1059E000200CDCF11F0E32BF4FF0000E23FA0CF337
:1059F00010EB030041EB0451B4EB115FD0D0A1EBED
:105A0000045101F5801149085FEA300001EB0451AF
:105A10000ED350F1000038BF12FA0EFE08D1BDE8D7
:105A20001040C9E7401C38BF5FEA4202CAD1C3E751
:105A3000BDE810404FEA410313F5001F38BF70471F
:105A4000A1F1C04100F066B99EEA445F08D011EAB6
:105A50005E0FBDE8104004BF01F000410020704718
:105A6000BDE8104070B500F007F900BF64FBBE3E12
:105A70000000E0FF4FEA1153A3F58063D3F11E034A
:105A8000A8BFD3F1200C08DB4FF0004242EAC1224C
:105A900052EA505232FA03F0704709420BD4102BED
:105AA000C4BF0020704703F5787CBCF1FF3F05D0F0
:105AB0004FF0FF3070474FF00000704770B500F0B6
:105AC000DBF800BF4992248000207047F0E710F017
:105AD000004248BF4042B0FA80F310FA03F10AD006
