:020000040800F2
:10000000880A0020010100088720000889200008D4
:100010008B2000088D2000088F20000800000000C1
:100020000000000000000000000000009120000817
:100030009320000800000000952000089720000889
:100040001B0100081B0100081B0100081B01000820
:100050001B0100081B0100081B0100081B01000810
:100060001B0100081B0100081B0100081B01000800
:100070001B0100081B0100081B0100081B010008F0
:100080001B0100081B0100081B0100081B010008E0
:100090001B0100081B0100081B0100081B010008D0
:1000A0001B0100081B0100081B0100081B010008C0
:1000B0001B0100081B0100081B0100081B010008B0
:1000C0001B0100081B0100081B0100081B010008A0
:1000D0001B010008612000081B0100081B0100082B
:1000E0001B0100081B0100081B010008DFF80CD0F1
:1000F00005F0F6FB00480047FB1F0008880A0020B7
:100100000648804706480047FEE7FEE7FEE7FEE7B1
:10011000FEE7FEE7FEE7FEE7FEE7FEE7C5010008B3
:10012000ED0000080CB500214B48019100910268D8
:1001300042F4803202604FF4A063026802F400329D
:100140000092019A521C0192009A12B9019A9A42A5
:10015000F3D10268920333D5012100913F490A6827
:1001600042F010020A600A6822F003020A600A687C
:1001700042F002020A6041684160416841604168A2
:1001800041F480614160416821F47C114160416823
:1001900041F4E8114160016841F08071016001683B
:1001A0008901FCD5416821F003014160416841F0BB
:1001B000020141604168C1F381010229FAD10CBDFD
:1001C00000910CBD244810B5016841F001010160A7
:1001D0004168234A114041600168224A1140016090
:1001E000016821F480210160416821F4FE01416031
:1001F0004FF41F018160FFF795FF1B494FF000602E
:10020000086010BD144910B54868184A10F00C0376
:10021000174803D0042B01D0082B0AD0026049688C
:10022000134AC1F30311121D515C0268CA400260F7
:1002300010BD4A684B6802F470124FF0020413F4C8
:10024000803F04EB924202D04B689B0301D5094BDF
:1002500000E0064B5A43E1E7001002400020024054
:100260000000FFF8FFFFF6FE08ED00E000127A0044
:100270000000002000093D00284908432849086083
:10028000704770B50F23C47801780122F4B1244C73
:100290002468457804F4E064C4F5E064240AC4F1F9
:1002A0000406E3408478B5401C402C4301F1E02172
:1002B000230181F80034007800F01F018A404009D2
:1002C000800000F1E020C0F8002170BD01F01F00A7
:1002D00082404809800000F1E020C0F8802170BD14
:1002E000104A114001430E48001F016070470C4A3C
:1002F000121D0029116801D0014300E08143116003
:1003000070474FF0E0210428086903D020F0040072
:100310000861704740F00400FAE700000000FA05A9
:100320000CED00E080FFFF1FC54910B5884202D1E7
:10033000012144150AE0C349884202D10121041574
:1003400004E0C14988420AD10121CC03204600F0D3
:10035000F8FE2046BDE81040002100F0F2BE10BDBE
:1003600010B54268B94B0C791A400B6842EA042276
:10037000134343608368B64A1340D1E902422243E3
:100380004C7943EA44031A438260C26A097C22F42E
:100390007002491EC9B242EA0151C16210BD00217A
:1003A0000160017141718160C16001210174704778
:1003B0000029816802D041F0010101E021F0010132
:1003C000816070470029816802D041F4807101E0AA
:1003D00021F4807181607047002A4268C9B201D05F
:1003E0000A4300E08A4342607047816841F0080197
:1003F00081607047014600208968090700D5012007
:100400007047816841F00401816070470146002017
:100410008968490700D5012070470029816802D00A
:1004200041F4A00101E021F4A00181607047014680
:1004300000208968490200D5012070474268491EA2
:1004400022F4604242EA413141607047002941682C
:1004500002D041F4006101E021F400614160704785
:1004600070B5072409290AD9C568A1F10A0606EB67
:100470004606B440A543B3401D43C56007E0056987
:1004800001EB4106B440A543B3401D4305611F2362
:10049000072A09D2446B521E02EB820293409C430E
:1004A00091400C43446370BD0D2A09D2046BD21FE6
:1004B00002EB820293409C4391400C43046370BD65
:1004C000C46A0D3A02EB820293409C4391400C4374
:1004D000C46270BD0029816802D041F4801101E03E
:1004E00021F4801181607047C06C80B2704754481D
:1004F0004C30006870470029416802D041F48061A7
:1005000001E021F48061416070470029416802D018
:1005100041F4805101E021F48051416070478268CC
:1005200022F4E0420A43826070470029816802D0C9
:1005300041F4004101E021F400418160704700294D
:10054000816802D041F4021101E021F402118160BE
:100550007047014600208968890200D50120704754
:1005600070B5072409290AD9C568A1F10A0606EB66
:100570004606B440A543B3401D43C56007E0056986
:1005800001EB4106B440A543B3401D430561836BB5
:10059000C3F30154121B921C02EB82041F22A240DF
:1005A0009343A1400B43836370BD826B491E22F4C9
:1005B000401242EA01518163704708B50844009037
:1005C000026008BD08B5084428300090006880B279
:1005D00008BD42681F4B1A400A434260704741629F
:1005E00082627047426822F01F020A4342607047ED
:1005F000134908310028086802D040F4000001E0E7
:1006000020F40000086070470246002012680A4289
:1006100000D001207047C9430160704710B5024601
:10062000002054680B0AC9B20C401168194202D06C
:10063000002C00D0012010BD6FEA1121016070472D
:100640000024014000280140003C0140FFFEF0FF73
:10065000FDF7F1FFFFFD3FFF01684FF6FE7211400D
:1006600001600021016041608160C1606A496A4A9D
:100670000839904203D1486840F00F0006E0664A0E
:100680001432904204D1486840F0F000486070474E
:10069000614A2832904203D1486840F47060F5E71F
:1006A0005D4A3C32904203D1486840F47040EDE727
:1006B000594A5032904203D1486840F47020E5E72F
:1006C000554A6432904203D1486840F47000DDE737
:1006D000514A7832904203D1486840F07060D5E7C3
:1006E0004E4A111F904203D1086840F00F0006E007
:1006F0004A4A1432904204D1086840F0F000086081
:100700007047464A2832904203D1086840F470602E
:10071000F5E7424A3C32904203D1086840F4704009
:10072000EDE73E4A50329042EAD1086840F470202A
:10073000E5E730B5036847F6F07293430C6A8A68C0
:100740002243D1E904452C4322438C692243CC69DE
:1007500022434C6A22438C6A22431A430260CA68CD
:1007600042600A6882604968C16030BD0021016052
:1007700041608160C160016141618161C16101626B
:100780004162816270470029016802D041F0010195
:1007900002E04FF6FE72114001607047002A0268C5
:1007A00001D00A4300E08A4302607047416070470D
:1007B000406880B2704701460020CA0002D5174A3F
:1007C000083A01E0144A083A12680A4200D00120AF
:1007D0007047C10003D51149091F086070470E49D1
:1007E00008394860704701460020CA0002D50B4A0C
:1007F000083A01E0084A083A12680A4200D001208B
:100800007047C10003D50549091F086070470249B8
:1008100008394860704700000800024008040240A0
:10082000FC4A116801F03801014311607047F94931
:100830000A6822F008020A600A6802430A607047E8
:10084000F4490A6822F010020A600A6802430A604A
:100850007047F048F0494160F04941607047ED4809
:10086000ED494160ED4941607047EA48016941F056
:10087000800101617047E748016941F08001016131
:100880007047E4490420CA68D20701D001207047AC
:10089000CA68520701D502207047C968C906FBD54E
:1008A0000320704700B50346FFF7EBFF03E000BFEE
:1008B000FFF7E7FF5B1E012803D0002B00D10520C6
:1008C00000BD002BF4D1FAE770B505464FF4302691
:1008D0003046FFF7E7FF042811D1CE4C206940F0E5
:1008E000020020616561206940F0400020613046CF
:1008F000FFF7D8FF216941F6FD721140216170BDFB
:1009000030B54FF430252846FFF7CCFF042810D12E
:10091000C04C206940F004002061206940F0400094
:1009200020612846FFF7BEFF216941F6FB721140A6
:10093000216130BD00B50346FFF7A3FF03E000BF10
:10094000FFF79FFF5B1E012803D0002B00D105207D
:1009500000BD002BF4D1FAE730B54FF4302528461E
:10096000FFF7E8FF042810D1AA4C206940F00400EA
:100970002061206940F0400020612846FFF7DAFF3F
:10098000216941F6FB721140216130BDA14900206F
:10099000C969890700D50120704770B5A525FFF703
:1009A000F5FF00B100254FF430263046FFF77AFFFF
:1009B000042827D1974C9848A0609848A0602069E7
:1009C00040F020002061206940F040002061304666
:1009D000FFF768FF41F6EF7604280ED1206941F653
:1009E000DF7108402061206940F0100020618C48D0
:1009F00005804FF40050FFF755FF052802D021690C
:100A00003140216170BDF8B5064600204FF4005C0E
:100A100000900D466046FFF745FF042816D17D4C37
:100A2000206940F00100206135806046FFF73AFF01
:100A300041F6FE77042806D1B61C280C00963080BB
:100A40006046FFF72FFF216939402161F8BDF0B5FD
:100A500006464FF400570D463846FFF723FF04289B
:100A60000CD16C4C206940F0010020613580384683
:100A7000FFF718FF2169BA1E11402161F0BDF0B5E2
:100A800006464FF400570D463846FFF70BFF042883
:100A900013D1604C6048A0606048A060206940F0BD
:100AA0001000206135803846FFF7FCFE052804D091
:100AB000216941F6EF7211402161F0BD2DE9F0414D
:100AC000C04300F0FF0CC0F30727C0F30746050E34
:100AD0004FF400584046FFF7E5FE042837D14D4C4F
:100AE0004D49A1604D49A160216941F0100121618A
:100AF000BCF1FF0F08D04A480830A0F800C04046BB
:100B0000FFF7D0FE04281BD1FF2F07D044480A303E
:100B100007804046FFF7C6FE042811D1FF2E07D0FC
:100B20003F480C3006804046FFF7BCFE042807D142
:100B3000FF2D07D03A480E3005804046FFF7B2FE41
:100B4000052804D0216941F6EF7211402161BDE80A
:100B5000F08170B505464FF430263046FFF7A2FE0F
:100B6000042818D12B4C2C48A0602C48A060206988
:100B700040F020002061206940F0400020613046B4
:100B8000FFF790FE41F6DF71042805D0052802D05A
:100B900022690A40226170BD2069084020612069F5
:100BA00040F0100020611E480DB1002100E0A52199
:100BB00001803046FFF776FE0528ECD0216941F62A
:100BC000EF721140216170BDF0B5124C074612481A
:100BD00016460D46A0601148A0604FF4005C6046C8
:100BE000FFF760FE042814D1206940F01000206156
:100BF00035430B493D43891C45F0F80008806046A9
:100C0000FFF750FE052804D0216941F6EF7211402C
:100C10002161F0BD0020024023016745AB89EFCD83
:100C200000F8FF1F1C48C069800870471A48006A16
:100C30007047194900200968890600D501207047CE
:100C4000154A0029116901D0014300E08143116177
:100C5000704701460020104A012903D0D2680A4299
:100C600003D17047D169C907FBD0012070470A49F9
:100C7000C860704708490420CA68D20701D0012023
:100C80007047CA68520701D502207047C968C90673
:100C9000FBD503207047000000200240914910B5A9
:100CA000884206D10121042000F04BFA00210420E3
:100CB0003BE08D49884206D10121082000F041FA2D
:100CC0000021082031E08949884206D10121102005
:100CD00000F037FA0021102027E08549884206D12C
:100CE0000121202000F02DFA002120201DE0814963
:100CF000884206D10121402000F023FA0021402043
:100D000013E07D49884206D10121802000F019FAC4
:100D10000021802009E0794988420AD18415012107
:100D2000204600F00EFA00212046BDE8104000F0F9
:100D300008BA10BD10B50121084600F002FA0021E2
:100D4000BDE81040012000F0FCB9F0B5CA780025DC
:100D500002F00F03D20601D58A7813430A784FF0C8
:100D60000F0E12F0FF0F4FF001021DD0D0F800401F
:100D70000F8802FA05F63740B74211D14FEA850CC9
:100D80000EFA0CF724EA070703FA0CF43C43CF7879
:100D9000282F02D0482F02D002E0466100E0066111
:100DA0006D1C082DE4D304600C88FF2C1ED9446808
:100DB0005FF0000606F1080702FA07F50F882F40DA
:100DC000AF420FD14FEA860C0EFA0CF7BC4303FA80
:100DD0000CF73C43CF78282F00D14561CF78482FBE
:100DE00000D10561761C082EE4D34460F0BD4FF6B7
:100DF000FF710180022181700421C1707047024699
:100E0000002092680A4200D001207047806880B2BA
:100E1000704702460020D2680A4200D00120704785
:100E2000C06880B2704701617047416170470AB184
:100E30000161704741617047C160704741F4803281
:100E40008261816182618169806970472C4B10B534
:100E50001A684FF68074224042EA00100843186076
:100E600010BD2849C8617047F0B5254C002801DA4B
:100E7000E36900E06368420D120185B2C0F30157D7
:100E80009540C0F30346032F05D0C2020AD50322C2
:100E9000B240934307E023F07062636823F070630D
:100EA000636002E0AB4343F0706201B12A43002863
:100EB00001DAE261F0BD6260F0BD10B58A0721F091
:100EC00003040F49130F21440F228C689A40944366
:100ED0008C608A68984002438A6010BD0949C1F855
:100EE000DC00704700080140000C01400010014088
:100EF0000014014000180140001C01400020014086
:100F00000000014000002042A448016841F00101B6
:100F100001604168A24A114041600168A14A114044
:100F20000160016821F480210160416821F4FE0123
:100F300041604FF41F018160704798490A6822F4AC
:100F400080320A600A6822F480220A60B0F5803F8D
:100F500007D0B0F5802F03D1086840F4A0200860C6
:100F60007047086840F48030F9E7024600205309D2
:100F70008A49012B0AD0022B0AD0496A02F01F02CB
:100F8000012393400B4200D0012070470968F5E728
:100F9000096AF3E718B500204FF4A06400903120EF
:100FA000FFF7E3FF0099491C0091A14201D00028FE
:100FB000F5D03120FFF7D9FF002800D0012018BD5F
:100FC00076490A6822F0F80242EAC00008607047D9
:100FD000754908607047714A5368084323F47C13CD
:100FE0001843506070477049086670476B4A5168F3
:100FF00021F003010143516070476848406800F0E8
:101000000C007047654A516821F0F00101435160BE
:101010007047624A516821F4E061014351607047B2
:101020005E494A6822F4605242EAC0004860704754
:101030005A4A0029517A01D0014300E0814351729C
:1010400070475949C1F8D8007047544A516821F493
:1010500040410143516070475049002281F82020EF
:1010600081F82020012802D0042802D1052081F82F
:10107000200070474D490860704748490A6A02439A
:101080000A627047494944390860704730B543499E
:101090004A6812F00C03464A03D0042B01D0082BF7
:1010A00021D002604A680F23424C03EA1212A35C6B
:1010B0000268DA4042604B68072505EA1323E35CC7
:1010C00022FA03F383604B6805EAD323E35CDA403A
:1010D000C2604968032303EA9131231F595CB2FBC4
:1010E000F1F1016130BD4A684B6802F470124FF0B3
:1010F000020413F4803F04EB924202D04B689B033E
:1011000001D52D4B00E02A4B5A43CAE7234A002958
:10111000516901D0014300E08143516170471F4A8A
:101120000029916901D0014300E08143916170473A
:101130001A4A0029D16901D0014300E08143D161FD
:101140007047164A0029D16801D0014300E081436D
:10115000D1607047114A0029116901D0014300E0B4
:1011600081431161704711494039086070470E4949
:10117000C86470470949C87170470848416A41F01E
:10118000807141627047054A0146002092680A4218
:1011900000D001207047014988727047001002405A
:1011A0000000FFF8FFFFF6FE0000424280044242CA
:1011B00000127A001800002000093D00F94910B51E
:1011C000884202D10121C41486E0B0F1804F09D0D9
:1011D000F54988420DD101210220FFF7BBFF002114
:1011E000022064E001210846FFF7B4FF002101203E
:1011F0005DE0EE49884206D101210420FFF7AAFFF5
:101200000021042053E0EA49884206D10121082048
:10121000FFF7A0FF0021082049E0E649884206D1F7
:1012200001211020FFF796FF002110203FE0E24946
:10123000884206D101212020FFF78CFF00212020C9
:1012400035E0DE49884202D10121441444E0DC4902
:10125000884202D10121CC043EE0DA49884202D121
:1012600001210C0538E0D849884202D101214C0502
:1012700032E0D649884206D101214020FFF76AFFBB
:101280000021402013E0D249884206D1012180206C
:10129000FFF760FF0021802009E0CE4988420AD193
:1012A000841501212046FFF755FF00212046BDE8A7
:1012B0001040FFF74FBFC849884202D101210C04FA
:1012C0000AE0C649884202D101214C0404E0C44925
:1012D00088420AD101218C042046FFF732FF2046C4
:1012E000BDE810400021FFF72CBF10BD30B50288CB
:1012F000AC4BB24C98420DD0A0420BD0B0F1804F15
:1013000008D0A94DA84205D0A84DA84202D0A84DAA
:10131000A84203D122F070054A882A43A54DA8426D
:1013200006D0A54DA84203D022F44075CA882A43AE
:1013300002808A8882850A88028598420AD0A04263
:1013400008D0A54A904205D0A44A904202D0A44AAF
:10135000904201D1097A01860121818230BD30B5E8
:10136000028C22F001020284028C8388048B22F01A
:10137000020224F073050C882C430D8915434A881A
:101380002A43884DA8420BD08C4DA84208D0924DDC
:10139000A84205D0914DA84202D0914DA8420DD14E
:1013A00022F008054A8923F440732A4322F00405F9
:1013B0008A882A438D891D43CB892B4383800483EC
:1013C000C9888186028430BD70B5028C22F010027B
:1013D0000284028C8488038B0D8823F4E6464FF642
:1013E000FF7303EA052535430E8922F0200203EA44
:1013F000061616434A8803EA02123243694EB04287
:1014000002D06E4EB04215D122F080064A8924F4F3
:10141000406403EA0212324322F040068A8803EA5B
:10142000021232438E8903EA86062643CC8903EAF8
:101430008404344384800583C9880187028470BD95
:1014400070B5028C22F480720284028C8488838BB3
:101450000D8823F073031D4322F400730E894FF6A9
:10146000FF7202EA06261E434B8802EA0323334337
:101470004C4EB04202D0514EB04215D123F400661A
:101480004B8924F4405402EA0323334323F4806657
:101490008B8802EA032333438E8902EA0616264329
:1014A000CC8902EA0414344384808583C988818707
:1014B000038470BD70B5028C22F480520284048CC7
:1014C0008288838B0D8823F4E6464FF6FF7303EA88
:1014D0000525354324F400560C8903EA04343443CB
:1014E0004E8803EA063626432E4CA04202D0334CE7
:1014F000A04205D122F480448A8903EA8212224361
:1015000082808583C988A0F84010068470BD828BD4
:1015100022F440628283828B4FF6FF7303EA01213B
:101520000A4382837047828B22F00C028283828B73
:101530000A4382837047028B22F440620283028B4B
:101540004FF6FF7303EA01210A4302837047F0B5A7
:10155000048C24F010040484078B048C4FF6FF7570
:1015600027F4734705EA03333B4305EA02221A4393
:101570000C4B05EA011698420ED0104B98420BD046
:10158000B0F1804F08D0084B984205D0074B9842E5
:1015900002D0074B984225D124F02001314341F07D
:1015A000100124E0002C014000040040000800402D
:1015B000000C0040001000400014004000340140C6
:1015C000004C014000500140005401400018004010
:1015D000001C004000200040004001400044014049
:1015E0000048014024F0A0030B4343F010010283A4
:1015F0000184F0BD028B22F00C020283028B0A43AD
:101600000283704770B5048C24F001040484058BB8
:10161000048C4FF6FF7606EA0313134325F0F30517
:10162000F94A2B4390420ED0F84A90420BD0B0F1C9
:10163000804F08D0F64A904205D0F64A904202D038
:10164000F54A904202D124F0020201E024F00A029D
:101650000A4342F001010383018470BD2DE9F05F6C
:101660000D4604460888E84FDFF8A0C3DFF8A083E2
:101670004988AA882B894FF0804960B3042832D06A
:101680004FF6FF7E082836D0208C9B4620F48050F1
:101690002084A38B268C704600EA022223F4734335
:1016A0001A4300EA0B3010430EEA013EBC420BD055
:1016B000644509D04C4507D0444505D0D54A9442ED
:1016C00002D0D54B9C4245D126F4005141EA0E018F
:1016D00041F4805143E02046FFF794FFE98820461B
:1016E000BDE8F05F86E72046FFF731FFE988204636
:1016F000BDE8F05F1FE7208C20F480702084B4F8F0
:101700001CA0208C0EEA031313432AF0F30A0EEAFE
:10171000012B43EA0A03BC420BD0644509D04C4577
:1017200007D0444505D0BB4A944202D0BA4A9442FD
:1017300004D120F4007040EA0B0002E020F42060A5
:10174000084340F48070A3832084E9882046BDE8E4
:10175000F05FE8E626F402420A4342F48051A08397
:1017600020462184E988BDE8F05FD0E62DE9F0410C
:101770000C46002649880746012501B90226A288A1
:10178000012A00D10225208823890028384610D05C
:10179000FFF7DDFEE1883846FFF7CDFE23892A46B4
:1017A00031463846FFF72EFFE1883846BDE8F04164
:1017B00020E7FFF727FFE1883846FFF71BFF238963
:1017C0002A4631463846FFF7C2FEE1883846BDE872
:1017D000F041B0E610B50A884B88CC881A438B8854
:1017E00023431A430B891A434B8989891A430A43B5
:1017F000A0F8442010BD4FF6FF71818000210180C8
:10180000C180418001727047002101804180818048
:10181000C180018141818181C181704700210180A6
:10182000418001228280C1800181704700210180B6
:1018300041808180C180018141818181704700297F
:10184000018802D041F0010101E021F00101018095
:101850007047002930F8441F02D041F4004101E0F4
:10186000C1F30E0101807047002A828901D00A432A
:1018700000E08A4382817047818270471143A0F85B
:1018800048107047002A828901D00A4300E08A4349
:1018900082817047018921F0070101817047028927
:1018A00022F070020A430281704700B50346FFF739
:1018B000F6FF188940F00700188100BD70B5164684
:1018C0000D46602904464FF0010231460AD0FFF769
:1018D00099FE29462046FFF7E2FF208940F00700E5
:1018E000208170BDFFF733FEF3E730B504894FF672
:1018F000FF7505EA03231343E4B20B43234303813B
:1019000030BD10B50446FFF7F0FF208940F07700A6
:10191000208110BD10B50446FFF7E7FF208940F491
:101920008040208110BD018582827047028822F0AC
:1019300070020A430280704770B50589048B068CDB
:1019400025F007050D434FF6FC410C4040F2011114
:101950000C434FF6FF7101EA031126F022061143F2
:10196000314305810483018470BD028B22F0700233
:101970000A4302837047028B4FF6FF7322F4E04262
:1019800003EA0121114301837047828B22F0700228
:101990000A4382837047828B4FF6FF7322F4E04242
:1019A00003EA01211143818370470029018802D095
:1019B00041F0800101E021F08001018070470029A1
:1019C000818802D041F0040101E021F0040181800E
:1019D00070470029818802D041F0080101E021F020
:1019E0000801818070470029818802D041F00101FF
:1019F00001E021F0010181807047028B22F0080292
:101A00000A43028370470000002C0140003401406B
:101A10000004004000080040000C0040028B4FF61C
:101A2000FF7322F4006203EA012111430183E9E715
:101A3000828B22F008020A438283E3E7828B4FF60F
:101A4000FF7322F4006203EA012111438183D9E785
:101A5000028B22F004020A430283D3E7028B4FF683
:101A6000FF7322F4806203EA012111430183C9E775
:101A7000828B22F004020A438283C3E7828B4FF6F3
:101A8000FF7322F4806203EA012111438183B9E7E5
:101A9000028B22F080020A430283B3E7028B4FF6E7
:101AA000FF73C2F30E0203EA012111430183A9E788
:101AB000828B22F080020A438283A3E7828B4FF657
:101AC000FF73C2F30E0203EA01211143818399E7F8
:101AD000028C22F002020A43028493E7028C22F075
:101AE00008020A4302848DE7028C4FF6FF7322F04E
:101AF000200203EA01111143018483E7028C4FF6AF
:101B0000FF7322F0800203EA01111143018479E797
:101B1000028C4FF6FF7322F4007203EA0121114395
:101B200001846FE7028C4FF6FF7322F4006203EA30
:101B300001211143018465E7028C4FF6FF7322F403
:101B4000005203EA0131114301845BE710B5012320
:101B5000048C8B409C430484038C8A40134303848D
:101B600010BD10B50423048C8B409C430484038C6B
:101B70008A401343038410BD30B50124058C00F165
:101B800018038C40A543058489B108290FD0091F8B
:101B9000C1F34E001844016821F4E041016001687E
:101BA0004FF6FF7303EA02221143016030BD03EBDD
:101BB0005100016821F0700101600168F4E700291B
:101BC000018802D041F0020101E021F00201018010
:101BD00018E70029018802D041F0040101E021F05A
:101BE000040101800EE70029818802D041F08001C4
:101BF00001E021F08001818004E7028822F00802E0
:101C0000028002880A430280FCE6828822F0700289
:101C1000828082880A438280F4E6028922F00702E9
:101C2000028102890A430281ECE6028922F08002E5
:101C3000028102890A430281E4E68184E2E6818529
:101C4000E0E68186DEE60187DCE68187DAE6A0F859
:101C50004010D7E6028822F44072028002880A43CC
:101C60000280CFE6808ECDE6008FCBE6808FC9E67E
:101C7000B0F84000C6E6808CC4E6008DC2E602469D
:101C80000020128A0A4200D00120BBE6C94301822B
:101C9000B8E602460020138A92890B4202EA01024A
:101CA00002D0002A00D00120ACE6C9430182A9E697
:101CB000C44910B588420AD101218C032046FFF7A0
:101CC00040FA2046BDE810400021FFF73ABABE496D
:101CD000884202D101214C0410E0BC49884202D163
:101CE00001218C040AE0BA49884202D10121CC04C6
:101CF00004E0B84988420AD101210C052046FFF7CB
:101D000029FA2046BDE810400021FFF723BA10BD94
:101D100030B50446008A85B00D464CF6FF71084088
:101D2000E98801432182A1894EF6F3100140A88879
:101D30002A8910436A890A431043A081A08A4FF67A
:101D4000FF410840A9890143A1826846FFF79EF937
:101D50009C48844201D1039800E00298A1890904BB
:101D600000EBC00101EB0010296801D5490000E03B
:101D70008900B0FBF1F06422B0FBF2F109010B091C
:101D80006FF018056B4300EB8300A3891D044FF02F
:101D9000320306D503EBC000B0FBF2F000F0070001
:101DA00005E003EB0010B0FBF2F000F00F00084379
:101DB000208105B030BD4FF41651016000218180B3
:101DC000C18001810C2242818181704710B5038A54
:101DD0004FF2FF0213400A884C8822438C88C9883E
:101DE0000C4322431A43028210BD0021018041802E
:101DF0008180C18070470029818902D041F400515F
:101E000001E021F400518181704710B5C1F3421304
:101E100001F01F040121A140012B07D0022B07D0A4
:101E20001430002A026805D00A4304E00C30F8E7B9
:101E30001030F6E78A43026010BD002A828A01D082
:101E40000A4300E08A4382827047028A22F00F022E
:101E50000282028A0A4302827047828922F4006267
:101E6000828182890A43828170470029818902D058
:101E700041F0020101E021F0020181817047028AF4
:101E800022F020020282028A0A430282704700295D
:101E9000018A02D041F4804101E021F480410182B5
:101EA0007047C1F30801818070478088C0F3080043
:101EB0007047818941F0010181817047028BD2B264
:101EC0000283028B42EA012101837047028B02F4F4
:101ED0007F420283028B0A43028370470029818A72
:101EE00002D041F0200101E021F020018182704701
:101EF0000029818A02D041F0100101E021F0100197
:101F0000818270470029818A02D041F0080101E0F6
:101F100021F00801818270470029818902D041F4B3
:101F2000004101E0C1F30E01818170470029818ADF
:101F300002D041F4006101E021F400618182704728
:101F4000828A22F004028282828A0A438282704755
:101F50000029818A02D041F0020101E021F0020152
:101F6000818270470246002012880A4200D0012078
:101F70007047C9430180704730B501F01F0201244A
:101F80000025C1F3421304FA02F2012B0FD0022BF9
:101F90000FD0838A4FEA11210088134204FA01F41A
:101FA00000EA040001D000B10125284630BD838934
:101FB000F0E7038AEEE70A0A01219140C943018054
:101FC00070470000003801400044004000480040D5
:101FD000004C0040005000400EB50121ADF800104B
:101FE000ADF8040010210020ADF80210ADF8060095
:101FF00069461948FFF77AF90EBDFEF72AFC34202E
:10200000FEF735FE1548006880B2A0F57A41BF3969
:102010001FD001F087FD00BF01F099FE02F0DCF94E
:1020200002F08CF802F0B7F801F0F2FE02F03CFA90
:1020300002F0A9FC00F010FB02F075FB00F06FF855
:1020400000F089FA00F072FA02F052FA00F0BDFADC
:10205000FCE701F0A0FDDFE70010004000FC0008F5
:1020600010B50E4C40F225512046FFF785FF0028A1
:1020700008D02046FFF719FF0A4A094B1188585427
:10208000491C118010BD7047FEE7FEE7FEE7FEE742
:1020900070477047704700F06BBA0000003801408D
:1020A000E00400205800002038B501210420FFF78B
:1020B00036F801211020FFF732F801210846FFF71A
:1020C0002EF803208DF8020018208DF803004FF43D
:1020D0000070ADF800006946FE4C2046FEF735FE64
:1020E00004208DF803000002ADF800006946204688
:1020F000FEF72BFE38BD08B54FF4C060FEF7BCF804
:1021000025208DF8000000208DF8010001208DF8B9
:1021100002008DF803006846FEF7B3F808BD7FB5EE
:10212000FFF7E9FFFFF7C0FF01218803FEF7F7FF84
:102130004FF4E130009000200C21ADF80A10ADF80A
:102140000400E54CADF80C00ADF80600ADF8080051
:1021500069462046FFF7DCFD40F22555012229465D
:102160002046FFF752FE01212046FFF744FE0022E1
:1021700029462046FFF749FE7FBD70B50C46D6497B
:10218000D64D884210D108880D4609E02846FFF751
:1021900088FE40212846FFF7E5FE0028F9D0641CA0
:1021A00021780029F2D170BDA8420AD070BD28461E
:1021B000FFF777FE40212846FFF7D4FE0028F9D02C
:1021C000641C21780029F2D170BD2DE9F04115463B
:1021D0000E46074600240BE0315D3846FFF761FEEE
:1021E00040213846FFF7BEFE0028F9D0641CA4B297
:1021F000AC42F1D3BDE8F08130B4B949AA22002441
:102200000A704A70F1228A70CC70C2780A718278A2
:102210004A7142788A710278CA71C2790A728279E7
:102220004A7242798A720279CA72C27A0A73827ACF
:102230004A73427A8A73027ACA73C27B0A74827BB7
:102240004A74427B8A74027BCA74C27C0A75827C9F
:102250004A75427C8A75027CCA75427D0A76027D87
:102260004A76C27D8A76827DCA76C27E0A77827E6F
:102270004A77427E8A77027ECA77C27F81F8202021
:10228000827F81F82120427F81F82220027F81F81D
:10229000232090F82120234681F8242090F8200064
:1022A00081F8250026222220C8700846C15C5B1CEC
:1022B0002144DBB2CCB29342F8D3845430BC884979
:1022C0008548521C81E7874896E72DE9F003844C46
:1022D000DDE909764FF0AA08DDF8189004F8068BBE
:1022E0004FF0000C04F8058C4FF0F10804F8048C52
:1022F0004FEA106804F8028C4FEA104804F8018C89
:102300004FEA102884F800806070080EA070080C56
:10231000E070080A20716171100EA071100CE0715C
:10232000100A20726272180EA072180CE072180A5D
:10233000207363734FEA1960A0734FEA1940E0738A
:102340004FEA1920207484F811909DF81D00A074A4
:102350009DF81C00E0749DF8210020759DF8200078
:102360006075380EA075380CE075380A20766776EF
:10237000300EA076300CE076300A207766779DF834
:102380002D00A0779DF82C00E077262222206546BC
:1023900004F8030C5248415D6D1C6144EDB201F03C
:1023A000FF0C9542F7D300F802C0BDE8F0034C499A
:1023B0004948521C09E710B54B4A002001464B4CD6
:1023C000138802E02154401C80B29842FAD3118055
:1023D00010BD30B587B0054600240C20ADF81200C2
:1023E000ADF80C40ADF81440ADF80E40ADF810401B
:1023F00002A939480295FFF78BFC00213C4B3DA216
:102400000846009402F00DFC3948CDE9000407238A
:102410002A460021282002F0A1FC07B030BD2DE99A
:10242000F047DFF8D8902C4F354C2F4DDFF8BCA08B
:10243000002600BFFFF7BFFF59F82600FFF7C9FFCE
:1024400030A13846FFF799FE2046298800E0401E5B
:10245000022902D20028FAD135E0A0B39AF8001080
:102460004F2930D19AF801004B282CD1FFF7A3FF58
:1024700025A13846FFF781FEA0462046298800E0C6
:10248000401E022901D20028FAD19AF800004F28F4
:1024900003D19AF801004B2846D01EA13846FFF719
:1024A0006CFE288802E000BFA8F10108022802D2D1
:1024B000B8F1000FF8D19AF800104F2903D19AF81B
:1024C00001004B2830D0761CF6B20C2EB2D300207F
:1024D000BDE8F08700080140003801400048004096
:1024E000E00500205407002058000020E0040020F0
:1024F00034000020627561643A0000005C00002036
:10250000FFFF3F004154000041542B4241554442DB
:102510000000000041542B554152543D39323136B0
:1025200030302C302C302C000120D1E73E484FF4C5
:102530007A7100228160C0E900213C4B4161C0E911
:1025400003313B49816102210162C1613949C0E91E
:102550000912C26270474FF0E02037494161374AA3
:10256000F02182F8141D002181610721016170476B
:1025700010B5334C208C401C80B26421B0FBF1F2CA
:10258000208401FB120028B902F0F3F82D4900EB7A
:1025900080000880218C2448B1F57A7F04D1002284
:1025A0002284C16AC0E90A12016809B1491E0160AA
:1025B000416809B1491E00E081684160C16909B103
:1025C000491E00E0016AC16110BD10B5164CE06AF9
:1025D000401CE06201F08EFC01F02BFD4FF4006125
:1025E0001948FEF70CFC30B91848007818B101F012
:1025F0006AFF174908801748808A01F069FED4E90C
:102600000101884201D1E0688047D4E9070188428E
:1026100003D1606ABDE81040004710BD0249086060
:102620000028FDD170470000380600207F360008E2
:10263000F53D0008C72200083F1901000FE000E047
:1026400014060020CE00002000080140BC0000203D
:10265000CC00002054070020FA48002141600160AE
:10266000017302F044B910B58AB002F040F9F6A146
:102670000024D1E900010094CDE90101F44B01AA45
:102680002146082002F08DFCF2A0F14BD0E90010A9
:102690000094CDE9031003AA1021082002F081FC68
:1026A000EEA0EB4BD0E900100094CDE9051005AA8F
:1026B0002021082002F075FCEAA0E54BD0E90010CB
:1026C0000094CDE9071007AA3021082002F069FC28
:1026D0000AB010BD2DE9FC41E4480026DFF89083E4
:1026E00004880746354600BF01F087FB012808D063
:1026F000022804D004282BD005280DD129E0641C21
:1027000000E0641EF0B2CDE90080A4B204232246AA
:1027100030214B2002F022FBA4F57F40FF3815D07A
:10272000C82C00D900246D1CADB2A5F56A406038F4
:10273000DAD1F04386B2F0B2CDE90080002504235F
:10274000224630214B2002F009FBCDE7C824EAE7FE
:102750003C800121CDE900813A88042330214B20BF
:1027600002F0FCFABDE8FC812DE9FE4FC1480026CD
:1027700007463546DFF800B34FF07E5ADFF8F082A7
:102780004FF00309D0F8004001F035FB01280ED0CE
:10279000022804D0042823D005281CD121E020469B
:1027A00002F0B9FF5A46B54B02F043FE06E0204660
:1027B00002F0B1FF5A46B14B02F0DCFE02F0BEFF60
:1027C000CDF800900446CDE9018601232246202160
:1027D0004B2002F0F6FA14F1FF4F0FD3002410E063
:1027E0003C600122CDF80090CDE901820123202137
:1027F0004B203A6802F0E5FABDE8FE8F544500DD53
:1028000054466D1CADB2A5F56A406038BCD1F043AA
:10281000C6B2CDF80090CDE90186002501232246FD
:1028200020214B2002F0CDFAAEE72DE9FC4194487F
:102830000026074604883546DFF8348201F0DDFAC9
:10284000012808D0022804D004282BD005280DD157
:102850002BE0641C00E0641EF0B2CDE90080A4B25D
:102860000423224610214B2002F078FAA4F57F4081
:10287000FF3815D0C82C00D900246D1CADB2A5F5C9
:102880006A406038DAD1F04386B2F0B2CDE9008018
:1028900000250423224610214B2002F05FFACDE7E9
:1028A000C824EAE73C8001F09FF90121CDE90081CD
:1028B0003A88042310214B2002F050FA52E72DE908
:1028C000FE4F7048002607463546DFF8ACB14FF0A2
:1028D0007E5ADFF89C814FF00309046801F08BFAFF
:1028E00001280ED0022804D0042823D005281CD1AA
:1028F00021E0204602F00FFF5A46604B02F099FD9E
:1029000006E0204602F007FF5A465C4B02F032FE1A
:1029100002F014FFCDF800900446CDE901860123B2
:10292000224600214B2002F04CFA14F1FF4F0ED347
:1029300000240FE03C600122CDF80090CDE9018237
:10294000012300214B203A6802F03BFA54E754453A
:1029500000DD54466D1CADB2A5F56A406038BDD1AE
:10296000F043C6B2CDF80090CDE9018600250123E1
:10297000224629464B2002F024FAAFE72DE9FC4716
:1029800041480026804604783546DFF8E4903F4F02
:1029900001F031FA012808D0022804D0042825D0FB
:1029A00005280DD128E0641C00E0641ECDE90096E6
:1029B000E4B2072357F824203021462002F0CEF954
:1029C0000C2C00D90C246D1CADB2A5F56A40603802
:1029D000DED1F043C6B2CDE90096002557F8242099
:1029E00007233021462002F0B9F9D1E7A8F80040CA
:1029F00057F82400FFF7EDFC0121CDE90091B8F86C
:102A000000000723302157F82020462002F0A6F9C5
:102A1000BDE8FC872DE9FC47DFF874800026144FE1
:102A2000B8F8004035464FF4C87900BF01F0E5F929
:102A3000012831D002282DD004283CD0052836D1D9
:102A40003EE00000680600200002030400000000D1
:102A500040000020010203040000000005060708F2
:102A600000000000090A0B0C00000000920000208A
:102A700034000020A80000207B14AE47E17A843F98
:102A800094000020AC0000205A0000205C000020D0
:102A9000B2000020641C00E0641EF0B2CDE90070BA
:102AA000A4B2032322462021502002F057F9322CF1
:102AB00011D2322412E02046A8F8004001F060FC58
:102AC0000120CDE900700323B8F800202021502018
:102AD00002F044F99CE74C4500D94C466D1CADB260
:102AE000A5F56A406038A1D1F04386B2F0B2CDE9D5
:102AF00000700025032322462021502002F02EF9E9
:102B000094E72DE9FC47DFF8F48300263546B8F852
:102B1000024040F6B839FA4F01F06DF9012808D0AB
:102B2000022804D0042813D005280DD112E0643403
:102B300000E0643CF0B2CDE90070A4B20423224668
:102B40001021502002F00AF9642C0ED264240FE008
:102B5000A8F802400120CDE900700423B8F8022053
:102B60001021502002F0FAF852E74C4500D94C46AB
:102B70006D1CADB2A5F56A406038CDD1F04386B288
:102B8000F0B2CDE900700025042322461021502028
:102B900002F0E4F8C0E72DE9FC41DFF8608300268D
:102BA000354698F80040D64F01F025F9012808D0A5
:102BB000022804D0042824D005280CD123E0641C6A
:102BC00000E0641ECDE90076E4B202232246002133
:102BD000502002F0C3F80CB3192C00D919246D1C35
:102BE000ADB2A5F56A406038DED1F043C6B2CDE99A
:102BF00000760025022322462946502002F0AEF836
:102C0000D2E7A8F800400120CDE900700223B8F80F
:102C100000200021502002F0A1F8A3E50124DEE706
:102C200008280DD2DFE800F00405060708090A0BA2
:102C3000B1E766E7EEE6A1E641E6F6E594E549E5AB
:102C4000704770B58CB001F052FEAEA10024D1E9FE
:102C500000010094CDE90301AC4B03AA21462046B4
:102C600002F09FF90326A64D0096A948CDE901542C
:102C70000268012300214B2002F0A3F8A5A0A34B7A
:102C8000D0E900100094CDE9051005AA102100201C
:102C900002F087F9A148CDE90054028804231021ED
:102CA0004B2002F05BF89EA1984BD1E90001009403
:102CB000CDE9070107AA2021002002F072F9009651
:102CC0009948CDE901540268012320214B2002F0EC
:102CD00078F896A18D4BD1E900010094CDE9090166
:102CE00009AA3021002002F05CF99248CDE9005495
:102CF0000288042330214B2002F030F8FF2000909E
:102D00004023802200217A2002F09EF820237F2297
:102D100011217B20009402F097F80CB070BD70B5C3
:102D200088B001F0E4FD84A0002400680490774B93
:102D300004AA21460094204602F033F9704D6F4EEC
:102D4000CDE90054022332880021502002F006F819
:102D50007AA06E4B00680094059005AA102100200F
:102D600002F01FF9CDE9005404237288102150208D
:102D700001F0F4FF72A0654B0068069006AA2021BE
:102D80000094002002F00DF96E48CDE9005402884D
:102D900003232021502001F0E1FF6BA05B4BD0E921
:102DA0000010CDE9021002AA00943021002002F0A8
:102DB000F8F8CDE9005406234FF4E13230214620E3
:102DC00001F0CCFFFF2000904023802200217A20D8
:102DD00002F03AF80F237F2202217B20009402F0B8
:102DE00033F808B070BD3EB50446800802D0012813
:102DF00005D102E0FFF793FF01E0FFF722FF032375
:102E000001213F4A3D48082C3DD2DFE804F0040A86
:102E10001118232B323DCDE9002102230288002125
:102E200004E0CDE90021042342881021502032E043
:102E3000CDE900214348032320210288F6E7CDE9AC
:102E40000021444942480723097850F821203021C5
:102E5000462020E0CDE900322D48029101230021D7
:102E600002680DE0CDE900212C48042310210288DE
:102E700010E0CDE900322C480291012302682021A4
:102E80004B2001F09EFF3EBD2A48CDE900210423DE
:102E9000028830214B2001F061FF3EBD10B50024B7
:102EA000FFF73DFF19E000BF00F0A5FF012809D0A2
:102EB00002280DD0042814D00528F5D1BDE8104013
:102EC00000F092BE641CE4B2082C06D1002404E099
:102ED000641EE4B2082C00D907242046FFF783FFC4
:102EE000E2E72046FFF79CFE02E00A20FFF796FB90
:102EF00000F05AFF0028D7D0F7E700008C00002030
:102F0000340000200D0E0F1C0000000040000020C7
:102F1000AC0000200D0E12130000000094000020F1
:102F20000D110F1C00000000A80000200D1112134D
:102F30000000000092000020181900001820000076
:102F40001B1C0000B20000201D1E1F1C0000000002
:102F50005C0000205A00002038B501F0C8FC0024B5
:102F6000FD4BFEA221462046009401F05AFEFA4B8A
:102F7000FEA210210020009401F053FEF64BFDA2AA
:102F800020210020009401F04CFE38BD10B5FFF761
:102F9000E3FF00BF00F02FFF0528FBD110BD08B5EF
:102FA00001F0A5FC00200090EB4BF4A208211420B6
:102FB00001F037FE08BDFEB502270024E64D00975C
:102FC000F24ECDE901543B4621461020726801F0D3
:102FD000F8FE0097CDE9015410210223084632681B
:102FE00001F0EFFE306902F069FBCDE900540246C2
:102FF00004232021102001F0B1FECDE90054F28A13
:1030000004233021102001F0A9FECDE90054B28A3A
:1030100004230021502001F0A1FE0097CDE90154C6
:10302000022310215020B26801F0CBFE0097CDE9B9
:103030000154022320215020F26801F0C2FEFEBD9F
:1030400038B501F054FC0024C34BD1A221462046E0
:10305000009401F0E6FDC04BD0A2102100200094A6
:1030600001F0DFFDBC4BD0A220210020009401F034
:10307000D8FDB94BCFA230210020009401F0D1FD42
:10308000B54BCFA200214020009401F0CAFDB24B05
:10309000CCA210214020009401F0C3FDAE4BCCA285
:1030A00020214020009401F0BCFDAB4BCBA230218D
:1030B0004020009401F0B5FD38BD38B501F017FC93
:1030C0000024C84B02220E212820009401F0DFFCCE
:1030D0004FF47A752846FFF7A1FAC24B01220E2160
:1030E0002820009401F0D3FC2846FFF797FABD4B47
:1030F00000220E212820009401F0C9FC2846BDE8DA
:103100003840FFF78BBA2DE9F04F87B0074600250E
:10311000FFF7D3FFFFF794FF01F0A5F8002001F0BF
:10312000ACF8DFF8C492994C4FF08046A84600BF37
:1031300000F0E0FE00F07DFF07B1A582FFF73BFF46
:1031400012E000BFA6F81080D4E90612E08A0DF163
:10315000080A238C8AE80F00A18A2069CDE90001C2
:1031600094E80F00FFF7B1F8308A0028EAD1C7B120
:10317000DFF878A24FF47A6BB9F80010484699B19D
:10318000A0F80080BAF8000000EB800005EBC0005A
:1031900085B2284601F09CF85D45EDD107B0BDE849
:1031A000F08FA08A01F094F800F027FE052803D0E4
:1031B0000120FFF733FABBE707B00020BDE8F04F6E
:1031C00001F05BB8F8B50024FFF7E9FE884E40F641
:1031D0003B770025641CE4B2502C00D1002400F0A1
:1031E00008FF70886538B8420BD25B4B282C0095DD
:1031F00001D380A200E083A21E21002001F011FD76
:10320000E8E7554B83A21E210020009501F009FD3F
:1032100000F0F1FD032804D0042802D00528D9D1FC
:10322000F8BD0020FFF76FFFFFF7B9FED2E77FB5CB
:1032300001F05DFBAFF200300068002402907A4B91
:1032400002AA21460094204601F0ABFE0120424D27
:10325000CDE90050654E0223002132885A2001F04A
:103260007DFDAFF22830006803906F4B03AA102158
:103270000094002001F095FECDE9005404237288EB
:1032800010215A2001F06AFD2B4668A2202150200F
:10329000009401F0C6FC7FBD3EB501F028FB65A19E
:1032A0000024D1E900010094CDE901015E4B01AA9F
:1032B0000821142001F075FE274B60A2082154203C
:1032C000009401F0AEFC244B5DA23021502000940C
:1032D00001F0A7FC204B5CA230213220009401F0C9
:1032E000A0FC1D4B59A230210020009401F099FC54
:1032F0003EBD3EB501F0FBFA55A10024D1E9000125
:103300000094CDE90101484B01AA2146204601F075
:1033100048FE114B50A230215020009401F081FC56
:103320000D4B4AA230210020009401F07AFC3EBDF2
:103330002DE9FC47FFF7DDFF0025074B20A21021F8
:103340002846009501F06DFCFF2630237F222021C6
:103350000020009684E000003400002050574D5FAC
:103360006F75745F6D6F6465000000004672653AAA
:10337000000000007468723A00000000626520637B
:1033800061726566756C2121000000005407002001
:10339000553A20202020207600000000493A2020C5
:1033A0002020204100000000463A202020202067F5
:1033B00000000000523A202020202073000000006E
:1033C000543A0000503A20202020207700000000CE
:1033D000453A20202020672F77000000513A202016
:1033E000202000004C000020102C01408C00002008
:1033F0009E00002074686F74746C65206E6F74207A
:1034000030212100202020202020202020202020CA
:1034100020202000202020202020202020202020CC
:103420002020202020000000400000204E4558545D
:103430002D3E000021220D24000000003F0000006E
:10344000736B69703E3E00002A0000003C3C0000A7
:1034500010010221220000006E6578743E3E0000DB
:1034600001F0F2FCF74FDFF8E0936FF00B0800BFBC
:1034700000F0BFFDCDE90075024610210423084687
:1034800001F06CFC00F0B5FD02F0F5F8414601F0EA
:10349000C4FF494601F051FF02F010F90446C2B2E0
:1034A0002E2322210220009501F0CEFCE0B2302331
:1034B0007F222021009601F0C7FC00F09CFC03282D
:1034C00005D0042803D00528D2D1BDE8FC8701200F
:1034D000FFF719FEFFF70DFFCAE710B5FFF7DCFE97
:1034E00000F089FC032807D0042802D00528F7D172
:1034F00010BDFFF71DFFF1E70120FFF704FEEDE728
:103500002DE9FC410024FFF792FE0325CD4ECF4F5D
:1035100000F071FC012807D0022839D0042840D0DF
:103520000528F5D1BDE8FC81641CE4B2032C00D170
:103530000024B4FBF5F005FB104078B30020CDE982
:10354000006002233A8800215A2001F007FCB4FBF6
:10355000F5F005FB1040012800D00020CDE9006007
:1035600004237A8810215A2001F0F8FBB4FBF5F00F
:1035700005FB1040022801D0002000E00120B14BE3
:10358000AFF2581200902021502001F04AFBBFE713
:10359000641EE4B2FF2CCCD10224CAE7FFE701206D
:1035A000CDE744B1012C09D0022CB1D1FFF795FF32
:1035B000FFF73DFEACE7FFF7EEFAA9E7FFF7A1FA48
:1035C000A6E70024FFF74FF810253BE000F013FCBE
:1035D00001281CD0022809D00428F7D124B3102CCC
:1035E00025D0202C26D0302C29D126E004F1100043
:1035F000C3B248222146082001F0EBFC103CE4B2A3
:10360000302C00D9302404F11000C3B21BE004F1C7
:103610001006F3B248222146082001F0DAFCF4B289
:10362000302CF0D90024EEE7FFF76AFF07E0FFF740
:10363000C9FD04E0FFF7AAFC01E0FFF72FFCFFF74C
:1036400012F800242B4648222146082001F0C1FC34
:10365000BCE73EB57EA10024D1E900010094CDE98C
:1036600001017D4B01AA0A21042001F0DAFA754B11
:103670007AA22D211420009401F0D3FA3EBD7B489C
:1036800010B5406828B1012806D1FFF7D0FDFFF73B
:1036900098FFBDE81040DCE710BD2DE9FE4F7449EE
:1036A000002601EB800751F820403546DFF8C4B111
:1036B0004FF07E5ADFF88C814FF0040900F09DFB3B
:1036C00001280ED0022804D0042823D005281CD1BC
:1036D00021E0204602F01FF85A46674B01F0A9FE90
:1036E00006E0204602F017F85A46634B01F042FF0D
:1036F00002F024F8CDF800900446CDE901860123BC
:10370000224620214B2001F05CFB14F1FF4F0FD328
:10371000002410E03C600122CDF80090CDE9018248
:10372000012320214B203A6801F04BFBBDE8FE8FBE
:10373000544500DD54466D1CADB2A5F56A406038B5
:10374000BCD1F043C6B2CDF80090CDE9018600258A
:103750000123224620214B2001F033FBAEE770B558
:103760008CB001F0C4F8AFF66401D1E90001002487
:103770000094CDE90301414B03AA2146204601F004
:1037800010FC06262F4D00963D48CDE901540268F5
:10379000012300215A2001F014FBAFF68800D0E984
:1037A00000100094CDE905100021344B05AA08460D
:1037B00001F0F7FB3348CDE90054028804231021BF
:1037C0005A2001F0CBFAAFF69C01D1E90001009438
:1037D000CDE90701294B07AA3021002001F0E1FBC8
:1037E0002948CDE900540288042330215A2001F0F1
:1037F000B5FAAFF6D400D0E900100094CDE9091075
:103800001E4B09AA2021002001F0CBFB00961F4887
:10381000CDE901540268012300215A2001F0D1FAB8
:10382000FF2000904023802200217A2001F00CFB31
:103830002F237F2220217B20009401F005FB0CB078
:1038400070BD0000340000200000FE428C0000200B
:10385000202122232400000028000020504F57453B
:103860005220425920584A4A0000000068060020B1
:1038700084060020FCA9F1D24D62503F4000002098
:10388000AC0000209400002092000020A80000203E
:1038900070B58CB001F02BF8AFF69811D1E90001AA
:1038A00000240094CDE90301904B03AA2146204651
:1038B00001F077FB06268E4D00968E48CDE9015427
:1038C0000268012300215A2001F07BFAAFF6BC10F8
:1038D000D0E900100094CDE905100021834B05AA22
:1038E000084601F05EFB8448CDE9005402880423B9
:1038F00010215A2001F032FAAFF6D011D1E90001BF
:103900000094CDE90701794B07AA3021002001F08E
:1039100048FB7A48CDE900540288042330215A201C
:1039200001F01CFAAFF60820D0E900100094CDE9B0
:1039300009106E4B09AA2021002001F032FB0096ED
:103940006F48CDE901540268012300215A2001F09B
:1039500038FAFF2000904023802200217A2001F0D5
:1039600073FA3E237F222F217B20009401F06CFA12
:1039700065E738B500F0BBFF00245D4B61A221462E
:103980002046009401F04DF9594B60A2102100200F
:10399000009401F046F938BD2DE9F04F89B00024BC
:1039A000FFF7E7FF0120DFF848A104270097CDE9E2
:1039B00001A0DFF860B103465646D846002120201A
:1039C000DBF80C2001F0FDF900250097CDE9016539
:1039D000012310212020D8F8082001F0F2F901215C
:1039E0008E073046FDF72BFF00F084FA00F021FB34
:1039F0002DE03582DFF82081D8F8000001F05EFE6E
:103A000087B2B8F8140001F036FEDFF8108100909C
:103A1000B8F8040001F02FFEDFF804910790B9F820
:103A2000040001F028FE0690B8F8060001F023FE1D
:103A30008046B9F8060001F01EFE02950195CDE919
:103A40000457DDE9062303954146FEF73EFC308A24
:103A50000028CED100F0CFF9012808D0022828D0C4
:103A600004282FD005283CD109B0BDE8F08F641C94
:103A7000E4B2022C01D1002422E00CB31EE000BF0E
:103A80004FF00408CDF80080CDE901A25F46012384
:103A900000212020DBF80C2001F093F9CDF8008004
:103AA000CDE901A4012310212020BA6801F089F991
:103AB00017E0641EE4B2012CDFD901240022DFE705
:103AC0000122DDE724B10020801CFFF7E6FD04E0C1
:103AD0000120F9E70A20FEF7A1FD00F065F90028B2
:103AE000F8D10120FEF79AFD7EE70000400000209B
:103AF00034000020AC000020940000209200002040
:103B0000A80000204355523A000000004241543AB8
:103B100000000000840600205407002096000020CA
:103B20009E00002010B5314C2046FCF7CDFE4FF62C
:103B3000BF212046FCF78BFF2D480188A01CFCF715
:103B400086FF2C480188201DFCF781FF2A48018848
:103B5000A01DFCF77CFF2948018824480830FCF7A9
:103B600076FF2748018821480A30FCF770FF254876
:103B700001781E480C30FCF76AFF234801681B4897
:103B80000E30FCF740FF214801681848BDE810409E
:103B90001230FCF738BF1548801C006814490880B3
:103BA0001248001D0068134908801048801D0068F5
:103BB000114908800D4808300068104908800B48FA
:103BC0000A3000680E49088008480C3000680D492A
:103BD000087006480E3000680B4908600348123030
:103BE00000680A49086070479CE7000000FC000874
:103BF00094000020920000208C0000208E00002005
:103C0000B20000205A000020A8000020AC000020D4
:103C10007B480178012901D0002070470021017004
:103C20000120704776480178012901D000207047B3
:103C3000002101700120704771480178012901D0ED
:103C40000020704700210170012070476C48017806
:103C5000012901D000207047002101700120704728
:103C600070B5012190B00846FDF750FA01214802D5
:103C7000FDF755FA634E3046FCF7EEFC62480090C3
:103C80005F4801A9801D0024042581E831008020BF
:103C9000CDE9044040000690800007902020089065
:103CA0000002CDE9090469463046FCF742FD0121D6
:103CB0003046FCF768FD01208DF830008DF83100AA
:103CC0000B944FF46020CDE90D044F4C8DF83C501F
:103CD0004C3C0BA92046FCF743FB4FF44040FDF75A
:103CE000B4F90723012200212046FCF7B9FB072382
:103CF000022201212046FCF7B3FB07230322022105
:103D00002046FCF7ADFB0723042203212046FCF7E5
:103D1000A7FB01212046FCF755FB01212046FCF7BB
:103D200047FB2046FCF761FB2046FCF763FB0028BD
:103D3000FAD12046FCF765FB2046FCF767FB00281C
:103D4000FAD101212046FCF768FB10B070BD08B520
:103D500001210420FDF7E3F90F20ADF80000042055
:103D60008DF8030069462948FCF7EFFFBDE80840DD
:103D700076E7642190FBF1F021494880704770B5E7
:103D800000241F4E25460E360120FEF747FCF08822
:103D90006D1C2044EDB284B20A2DF5D30A20B4FB89
:103DA000F0F01749888070BD15480E300088A0F2E9
:103DB000452113291CD34639312901D201207047EE
:103DC000A0F54771272901D202207047A0F2E931FE
:103DD000272901D203207047A0F5A761402901D20D
:103DE00004207047A0F2D170312801D2052070471D
:103DF0000020704770470020704700207047000087
:103E000090000020080002404C24014000080140BE
:103E1000AE48AD490160AE494160AE498160C160C4
:103E20004FF07E510161A9496420B4314861704767
:103E300030B5AA4AA84BA54814781430198820F840
:103E4000141000EB44015D880D849D88A1F840505A
:103E5000DB88A1F86030A24B641C1B88A1F880307D
:103E6000E1B21170102901D3002111700022114616
:103E700030F81130491CC9B21A441029F8D311097D
:103E8000924A0C3A002311804FEA030100EB4104EF
:103E9000491C248CC9B223441029F7D31909518035
:103EA0000023194600EB4104491CB4F84040C9B254
:103EB00023441029F6D31909918000234FEA030106
:103EC00000EB4104491CB4F86040C9B223441029F6
:103ED000F6D31909D18000234FEA030100EB410416
:103EE000491CB4F88040C9B223441029F6D31809FC
:103EF000108130BD2DE9F047FFF79AFF794C6088BB
:103F000001F0B9FB714D06464FF07E59D5F804809B
:103F10004846414601F00BFA314601F00EFAA5F190
:103F20000C060746708801F0A6FB414601F005FA31
:103F3000394601F0AAF901F0C1FB6080A08801F0C8
:103F40009AFBD5F8088007464146484601F0EFF94C
:103F5000394601F0F2F90746B08801F08CFB414682
:103F600001F0EBF9394601F090F901F0A7FBA080D0
:103F7000E08801F080FBED6807462946484601F0DD
:103F8000D6F9394601F0D9F90746F08801F073FBFC
:103F9000294601F0D2F9394601F077F901F0BBFB6F
:103FA0000022514B01F045FA01F09CFBE080BDE896
:103FB000F08770B54B4E308801F05DFB04464348F6
:103FC00005684FF07E50294601F0B1F9214601F015
:103FD000B4F904464048008801F04DFB294601F041
:103FE000ACF9214601F051F901F068FB80B2308054
:103FF00070BD70B53B4E708801F03DFB0446334800
:1040000045684FF07E50294601F091F9214601F0B4
:1040100094F904463048408801F02DFB294601F010
:104020008CF9214601F031F901F048FB80B2708033
:1040300070BD70B52B4D2D49E8880988401A643051
:1040400001F010FB2A49096801F077F91F4C294952
:10405000D03406462060A8880988401A643001F0F0
:1040600001FB2549096801F068F9014660603046A6
:1040700001F063F90646A060A4F1DC00008901F0BC
:10408000FAFA3146206101F08AF9E06068884FF45D
:104090007A61A082884200D9A182072000F0C2FA8A
:1040A00001F0FFFA154A164B01F06AFA4FF066323A
:1040B000144B01F05FFA01F041FBA0610020E061C8
:1040C00011480088E08270BDA4707D3F8406002006
:1040D00072F97F3FCDCCCC3D96000020B00000208F
:1040E000CC0000209E0000200000E03F9400002053
:1040F000AC00002092000020A80000207B14AE47F6
:10410000E17A943F66127140CE00002038B501215B
:104110000820FDF704F818208DF8030003208DF81F
:10412000020080209E4CADF8000069462046FCF756
:104130000CFE80212046FCF778FE38BD3EB5FFF727
:10414000E5FF01210420FCF7F3FF9649964A00247D
:104150000888964DB2FBF0F0C8804821ADF80010F9
:10416000ADF80400ADF80240ADF8064069462846B7
:10417000FDF7BCF88E4960200880012048804FF48C
:104180007A70C8800C812846FDF71EF90121284667
:10419000FDF755FB3EBD2DE9FF410121C802FCF7AB
:1041A000BEFF01210420FCF7BAFF01210846FCF7FD
:1041B000B6FF18208DF80F0003208DF80E007D4DFE
:1041C0004FF48074ADF80C4003A92846FCF7BDFD00
:1041D00021462846FCF727FE4FF43474ADF8004022
:1041E0000025ADF80250744F6E4EDFF8D08138686C
:1041F0007188B0FBF4F0B0FBF1F0ADF80400ADF85D
:10420000065069464046FDF771F869486021018013
:104210000121418039687288B1FBF4F3B1FBF4F1FC
:10422000B3FBF2F3B1FBF2F1B28851431422B1FBBC
:10423000F2F1591A491CC180058101464046FDF73B
:104240008EF801214046FDF704FB08214046FDF7AA
:10425000D4FB01214046FDF7A8FB01214046FDF7B4
:10426000EEFABDE8FF8152496420C8804F48FDF74F
:10427000ABB840214D48FDF77EBB2DE9F041064625
:10428000642800D900264748C08801F00AFA0C4685
:1042900005464B4A4B4B01F073F9884621460746C9
:1042A0002C460D46304601F0FCF9474A474B01F0D9
:1042B00067F922462B4601F063F93A46434601F07E
:1042C000B8F801F00FFA394938310880BDE8F081BB
:1042D0002DE9F0410446B0F57A6F00D90024314849
:1042E000C088054601F0DDF9354A364B01F048F942
:1042F00007460E4605FB04F001F0C2F9344A354B7F
:1043000001F03EF93A46334601F093F801F0EAF93C
:10431000264938310880D9E725496420C8802348D8
:10432000FDF7C8B840212148FDF735BB2DE9F04124
:104330000646642800D900261A48C08801F0B1F961
:104340000C4605461E4A1F4B01F01AF988462146C5
:1043500007462C460D46304601F0A3F91A4A1B4B7E
:1043600001F00EF922462B4601F00AF93A4643467F
:1043700001F05FF801F0B6F90C4940310880A5E77B
:1043800010B5B0F5C87F01D9002010BD0649B1FBBA
:10439000F0F00449C880FFF7D1FE012010BD0000F5
:1043A000000C0140B200002040420F000008004015
:1043B000780700200008014000000020002C014088
:1043C0009A9999999999A93FFCA9F1D24D62403FD8
:1043D0002D431CEBE236EA3EF8B501210420FCF740
:1043E0009EFE4FF48055ADF8005003208DF802007A
:1043F00010203D4E8DF8030069463046FCF7A5FCC1
:104400006C10ADF8004069463046FCF79EFC29462A
:104410003046FCF70AFD21463046FCF704FDADF8B6
:10442000004004208DF8030069463046FCF78DFCFF
:10443000F8BD2DE9F0412D4C00202B4F2070054692
:104440004FF480564FF40068606031463846FCF700
:10445000EAFC60683146400060603846FCF7E5FCE5
:1044600041463846FCF7CBFC012802D16068401C6D
:1044700060606D1CEDB2182DE7D331463846FCF76D
:10448000D2FC6068314680F4000060603846FCF77A
:10449000CCFC012020706068BDE8F08110B501F00F
:1044A000EAF81249C86010BD70B50F4D4FF40064B2
:1044B00021462846FCF7A3FC0128F9D0FFF7B9FFF5
:1044C0000A49886070BD10B5FFF7B3FF074CA168BB
:1044D000401A00D5404201F0C5F8E16800F05FFFE6
:1044E00001F0ECF880B210BD00080140BC000020D3
:1044F00038B501210820FCF712FE4FF44054ADF806
:10450000004014208DF8030003207C4D8DF802003C
:1045100069462846FCF719FC21462846FCF783FC2F
:1045200038BD70B5754D4FF4805421462846FCF7D0
:104530007AFC660031462846FCF775FC00F0B2F8BC
:1045400021462846FCF771FC00F0ACF831462846BD
:10455000BDE87040FCF769BC2DE9F041674F0446A7
:104560004FF4005631463846FCF75FFC00254FF407
:10457000805800BF04F0800080284146384623D090
:10458000FCF753FC6006040E31463846FCF74BFC42
:1045900000F088F831463846FCF747FC0A20401EF8
:1045A00010F0FF00FBD16D1CEDB2082DE2D30A2004
:1045B000401E10F0FF00FBD141463846FCF733FCAB
:1045C000BDE8F04100F06EB8FCF72DFCDAE72DE90C
:1045D000F04700250824494E67024FF001094FF4C7
:1045E000005839463046FCF71EFC00F05BF84146A7
:1045F0003046FCF718FC39463046FCF700FC20B189
:10460000611E09FA01F02843C5B200F04BF841469B
:104610003046FCF70AFC641E14F0FF04E1D1284682
:10462000BDE8F0872DE9F0410446FFF77AFFB4209A
:10463000FFF792FF00F03CF82046FFF78DFF00F0F7
:1046400037F8FFF76EFFB520FFF786FF00F030F870
:10465000FFF7BDFF044600F03CF8FFF7B8FF44EA5F
:10466000002400F036F8FFF7B2FF00F01BF8234EED
:104670004FF4005529463046FCF7D7FB6F103946FA
:104680003046FCF7D2FB00F00DF829463046FCF727
:10469000CAFB00F007F839463046FCF7C4FB204659
:1046A000BDE8F0812820401E10F0FF00FBD17047CC
:1046B00070B5124D4FF4005421462846FCF7B3FB69
:1046C000FFF7F0FF21462846FCF7AFFBBDE870403E
:1046D000E8E770B5094C4FF480512046FCF7A5FB84
:1046E000651429462046FCF79EFBFFF7DBFF2946B1
:1046F0002046FCF79AFBBDE87040D3E7000C014070
:1047000008B501210420FCF70AFD04208DF8030000
:1047100003208DF802008020ADF80000694618489B
:10472000FCF713FB08BD3EB5FFF7EAFF01210220AD
:10473000FCF7FEFC00204FF6FF71ADF80410ADF859
:104740000000104CADF80200ADF8060069462046A6
:10475000FCF7CCFD0B490831088840F007000880C1
:1047600060212046FDF79BF801212046FDF767F800
:104770003EBD04492431088800220A8070470000A9
:10478000000801400004004010B5FF4C20212046E5
:10479000FCF749FB80212046FCF745FB80212046A1
:1047A000FCF743FB2046BDE810402021FCF73DBB51
:1047B00010B5F54C20212046FCF735FB8021204622
:1047C000FCF733FB2046BDE810408021FCF72BBBF3
:1047D00010B5ED4C20212046FCF725FB2046BDE816
:1047E00010402021FCF721BB70B5E74E0446202184
:1047F0003046FCF71AFB002504F0800080284FF0BB
:104800008001304610D0FCF710FB6006040E20211A
:104810003046FCF708FB20213046FCF706FB6D1CF8
:10482000EDB2082DE8D370BDFCF7FDFAEDE710B549
:104830000446FFF7A9FF7820FFF7D6FFFFF7C8FF70
:104840000020FFF7D1FFFFF7C3FF2046FFF7CCFFA3
:10485000FFF7BEFFBDE81040AAE710B50446FFF71A
:1048600093FF7820FFF7C0FFFFF7B2FF4020FFF76C
:10487000BBFFFFF7ADFF2046FFF7B6FFFFF7A8FF2E
:10488000BDE8104094E7C0B201B1E6E7CFE710B54C
:104890000A460446002102F1B000FFF7F4FF1020A1
:1048A00040EA14100021FFF7EEFF04F00F00BDE80E
:1048B00010400021E7E710B500218D20FFF7E3FF4E
:1048C00000211420FFF7DFFF0021BDE81040AF20DA
:1048D000D9E710B500218D20FFF7D5FF002110206A
:1048E000FFF7D1FF0021BDE81040AE20CBE770B547
:1048F0000024002104F1B000FFF7C5FF00210846A5
:10490000FFF7C1FF00211020FFF7BDFF00250121A7
:104910000020FFF7B8FF6D1CADB2802DF7D3641CEB
:10492000A4B2082CE5D30020984A01464FF48063D6
:104930001154401C80B29842FAD370BD70B5002467
:10494000002104F1B000FFF79EFF00210846FFF7A9
:104950009AFF00211020FFF796FF0025012108464D
:10496000FFF791FF6D1CEDB2802DF7D3641CE4B20C
:10497000082CE5D370BD0246012000E05043491EDB
:10498000C9B2FBD2704738B501210420FCF7C7FB40
:10499000A020ADF8000010208DF8030003207A4C11
:1049A0008DF8020069462046FCF7CFF9A021204689
:1049B000FCF739FA0021AE20FFF765FF0021084619
:1049C000FFF761FF00211020FFF75DFF002140206D
:1049D000FFF759FF0021B020FFF755FF002181208C
:1049E000FFF751FF0021FF20FFF74DFF0021A1201D
:1049F000FFF749FF0021A620FFF745FF0021A8206F
:104A0000FFF741FF00213F20FFF73DFF0021C820B5
:104A1000FFF739FF0021D320FFF735FF00210846BB
:104A2000FFF731FF0021D520FFF72DFF0021802067
:104A3000FFF729FF0021D820FFF725FF00210520DF
:104A4000FFF721FF0021D920FFF71DFF0021F120F2
:104A5000FFF719FF0021DA20FFF715FF00211220D0
:104A6000FFF711FF0021DB20FFF70DFF00213020B1
:104A7000FFF709FF00218D20FFF705FF002114201B
:104A8000FFF701FF0021AF20FFF7FDFE38BD2DE944
:104A9000FC5F1D4683467F2801D94FF0000B3F295C
:104AA00000D90021287A4FEAD10A50430190E888C2
:104AB00001F007060246401EC31700EB53700123A6
:104AC00003EBE000C0B2711E00905018C11700EB5C
:104AD000517003EBE000C7B20BEBCA19002473E07E
:104AE0002B4900208E46C1E90000DDE90002224486
:104AF0000DE000BFB5F804C0411E2B68884601FBDD
:104B00000C3170448B5C00F8013C08F0FF00002879
:104B1000F0D10C9830B17046D0E90012CB43D143AC
:104B2000CEE90031DFF868803246D8E9000100F0B4
:104B30009DFB164A09EB04034FF0FF0ED35C0EFAFF
:104B400006FC23EA0C03184309EBC7132344803BFC
:104B50001FFA83FCC8E90001BCF5806F23D2EB8803
:104B600033445FEA43781ED012F80CC003F0070804
:104B70000EFA08F303EA0C034FEAC70CACF1080C79
:104B800003FA0CF306E0000000080140E0000020FA
:104B9000D00000204FEAE37CDFF8F88303434CEABF
:104BA000010CC8E9003C0020FA4909E009EBC013F8
:104BB000234411F800C09BB2401C02F803C0C0B2ED
:104BC000B842F3D3641CE4B2A888A04288D8002677
:104BD0001DE051465846FFF75AFE002409EBC6185F
:104BE00009E000BFEC4808EB0401405C0121FFF73D
:104BF0004AFE641CE4B2A888A042F3D80AF101007E
:104C000000F0FF0ABAF1070F03D8761CF6B2BE42D5
:104C1000DFD30020BDE8FC9F00EBC110DE49085C3B
:104C200070472DE9F8430546089F00971078144611
:104C300020381E468846C2B204E02038C2B233464D
:104C4000414600972846FFF722FF30792844C5B235
:104C500014F8010F0028F0D1BDE8F8832DE9FE43D8
:104C60001F460A9E14008846054607D52D22009649
:104C7000FFF70DFF387964422844C5B242F2107044
:104C800094FBF0F030308DF804004FF47A7094FB10
:104C9000F0F10A2091FBF0F200FB121130318DF897
:104CA0000510642194FBF1F191FBF0F200FB12116D
:104CB00030318DF8061094FBF0F191FBF0F200FB1F
:104CC000121130318DF8071094FBF0F100FB114008
:104CD00030308DF8080000208DF809003B4601AA0D
:104CE000414628460096FFF79CFFBDE8FE83FEB5CF
:104CF00042F21074B2FBF4F430348DF804404FF4F7
:104D00007A74B2FBF4F60A24B6FBF4F704FB1766D8
:104D100030368DF805606426B2FBF6F6B6FBF4F784
:104D200004FB176630368DF80660B2FBF4F6B6FB6E
:104D3000F4F704FB176630368DF80760B2FBF4F623
:104D400004FB162230328DF808200022089D8DF8D1
:104D5000092001AA0095FFF764FFFEBD2DE9F84F79
:104D600083468A46DDE90A98581EC1B21C4617469A
:104D70000A20FFF700FE0646601C00F0FBFD05461A
:104D800000200A210CE000BFB7FBF6F2B2FBF1F302
:104D900001FB1322B6FBF1F630322A54401CC0B29C
:104DA000A042F1D3002028554B462A46514658468A
:104DB000CDF80080FFF735FF2846BDE8F84F00F03A
:104DC000B1BD2DE9FF4F83B08146DDE911461D4697
:104DD0008B46DDF840A0059800F070FC1FFA80F8C3
:104DE0000A205146FFF7C7FD00F045FC0746404644
:104DF00000F041FC059900F09DFA394600F09DFA5B
:104E000000F05CFCCDE9004687B22B46424659468D
:104E10004846FFF7A3FF0096A188234605FB0190B3
:104E2000C0B25EA25946FFF7FCFECDE90046A1885C
:104E30006D1C05FB0190C0B253463A465946FFF738
:104E40008DFF07B0BDE8F08F2DE9FF4F81B00198CD
:104E500082427DD98B427BD9101AC7B2581AC5B28B
:104E6000681EC21700EB5270012202EBE000C0B2D4
:104E700001F0070B009005EB0B004FEAD10A401E32
:104E8000C11700EB5170019902EBE000C6B201EBD3
:104E9000CA19002456E03F490020C1E900000098EB
:104EA00005E00B180E9A401E03F8012CC0B2002832
:104EB000F7D138495A46D1E9000100F0D7F9364A0E
:104EC00009EB04034FF0FF0ED35C0EFA0BFC23EA50
:104ED0000C0318432F4BC3E9000109EBC61323440D
:104EE000803B9BB2B3F5806F1BD20BEB050C5FEAE6
:104EF0004C7816D012F803800CF0070C0EFA0CF365
:104F000003EA08034FEAC60CACF1080C03FA0CF3F1
:104F10004FEAE37CDFF87C8003434CEA010CC8E9EC
:104F2000003C00201B4909E009EBC013234411F8A1
:104F300000C09BB2401C02F803C0C0B2B042F3D321
:104F4000641CE4B2BC42A6D30025DFF84CB01DE0DF
:104F50001EE051460198FFF79AFC002409EBC518A2
:104F600009E000BF08EB04011BF801000121FFF775
:104F70008AFC641CE4B2BC42F4D30AF1010000F0E4
:104F8000FF0ABAF1070F03D86D1CEDB2B542E0D3AA
:104F900005B057E7D0000020E00000202E00000000
:104FA00070472DE9F8431446089F00971E4688462F
:104FB0000546127803E03346414628460097FFF73E
:104FC00066FD307914F8012F2844C5B2002AF2D1C9
:104FD00042E62DE9F84F81467F2801D94FF00009BC
:104FE000402900D90021A2EB0902D4B25A1A4FEA93
:104FF000D10AD2B201F0070E02EB0E01491ECA1708
:10500000002001EB5271012202EBE101CDB209EB6C
:10501000CA1B4AE068B1691E884236D1BEF1000F52
:1050200033D00022FF230BEBC0188E4F03FA0EF390
:1050300028E00023FF210BEBC012DFF828C201FAA1
:105040000EF100920CE0009A1A4497B21CF8072067
:1050500021EA02068A4332435B1C0CF80720DBB2CC
:10506000A342F0D31FE000BF08EB02011FFA81FC4E
:1050700017F80C10CE439E4319403143521C07F8D9
:105080000C10D2B2A242EFD30DE000210BEBC017FF
:10509000744A06E07B189BB2D65CF643491CD65492
:1050A000C9B2A142F6D3401CC0B2A842B2D3002775
:1050B0001CE051464846FFF7EAFB00260BEBC718F9
:1050C00009E000BF674808EB0601405C0121FFF7DB
:1050D000DAFB761CF6B2A642F4D30AF1010000F026
:1050E000FF0ABAF1070F03D87F1CFFB2AF42E0D32B
:1050F000BDE8F88F2DE9FC5F1D4683467F2801D966
:105100004FF0000B3F2900D90021287A01F0070653
:1051100050430190E8884FEAD10A0246401EC31767
:1051200000EB5370012303EBE000C0B20090701E4F
:105130001044C11700EB517003EBE000C7B20BEB5A
:10514000CA19002466E048490020C1E90000DDE9F1
:10515000000213190EE000BFB5F80480421ED5F816
:1051600000C0964602FB08C20844D25C00F8012C3D
:105170000EF0FF000028EFD1DFF8EC80D8E9002125
:10518000D043C943324600F071F8364A09EB0403B4
:105190004FF0FF0ED35C0EFA06FC23EA0C03184313
:1051A00009EBC7132344803B9BB2C8E90001B3F568
:1051B000806F1DD2B5F806C00CEB06085FEA487C8C
:1051C00016D012F803C008F007080EFA08F303EA35
:1051D0000C034FEAC70CACF1080C03FA0CF34FEACE
:1051E000E37CDFF8848003434CEA010CC8E9003C0F
:1051F00000201D4B0AE000BF09EBC01121441FFA3B
:1052000081FC195C401C02F80C10C0B2B842F3D308
:10521000641CE4B2A888A04295D800261DE051463F
:105220005846FFF734FB002409EBC61809E000BF1D
:105230000C4808EB0401405C0121FFF724FB641CCF
:10524000E4B2A888A042F3D80AF1010000F0FF0AF6
:10525000BAF1070F03D8761CF6B2BE42DFD30020A6
:10526000D8E40000E0000020D0000020202A04DB69
:10527000203A00FA02F1002070479140C2F1200369
:1052800020FA03F3194390407047F0B480EA01021A
:10529000D40F4200B2EB410F02D20246084611463B
:1052A0004A0042D0C30DDDB2C1F3C752AD1A202D62
:1052B00035DAC1F3160141F4000204B15242C5F1DE
:1052C000200602FA06F12A411044B3EBD05F23D046
:1052D000C4B1012DA0EBC35009DCF0BC4FF000427B
:1052E00002EAC352DBB200F5000000F06EBA4000E3
:1052F00000F1807000EBC350A0F1807040EAD170E3
:10530000490009E0490841EAC071A0EBC35000F52B
:105310000000400800EBC350F0BC00F04DBA614201
:10532000012202EB4101001BF6E7F0BC704781F05F
:105330000041AAE780F00040A7E780EA010210B52B
:1053400002F00043400022D04A001FD0010E01EBC2
:105350001261C0F35600C2F3560240F4000042F45A
:105360000002A0FB022000047F39140400D0401C7E
:1053700050EA124001D44000491EC2B20C0604EBB0
:10538000D010401C4008802A02D003E0002010BD4D
:1053900020F00100002900DA0020184310BD30B4CD
:1053A00080EA010202F0004530F0004221F00040A6
:1053B00013D090B1C30DD40DC2F31601C0F3160083
:1053C000E41A41F4000140F400027D34914201D31B
:1053D000641C00E04900002C02DA30BC0020704759
:1053E0004FF400000023914201D3891A034340087F
:1053F0004FEA4101F7D151B1914202D14FF0004142
:1054000005E002D24FF0010101E06FF0010103EB72
:10541000C450284430BC00F0CFB9420005D0C0F3DE
:10542000C7525242914201DC0020704700EBC1504C
:1054300070472DE9FE4F804681EA0300C00F0C46FD
:10544000009021F0004123F00045B8EB0200A94193
:1054500005D24046214690461C460B46024623F0A4
:105460000040104347D0270DC7F30A00C3F30A5189
:105470000290401A019040286BDAC3F3130040F405
:10548000801B0098924620B10023D2EB030A63EB05
:105490000B0B01985946C0F140025046FFF7E6FE5B
:1054A00006460D4650465946019A00F073F910EB36
:1054B00008006141002487EA115284EAE7731A4325
:1054C00040D0009A62B3019A012A4FEA075215DCD4
:1054D000001B61EB02014FF0004202EA0752CDE9E6
:1054E0000042001C41F5801132462B4600F0AAF91B
:1054F00003B0BDE8F08F40462146F9E7001B61EBA1
:105500000201001C41F5801300185B412018A2F530
:10551000001747EB030140EAD570B6196D4111E061
:105520006D084FEA360645EAC0754FEA0752001B80
:1055300061EB0201001C41F5801149084FEA30007F
:105540000019514132462B4603B0BDE8F04F00F040
:105550006AB90098012240000023D0EB020263EBFD
:10556000E073009821464FEAE074B8EB000061EB6D
:105570000401E9E783F000435BE781F0004158E76D
:105580002DE9FE4F81EA030404F0004421F00041BC
:1055900000944FF0000B23F0004350EA01045ED06A
:1055A00052EA03045BD0C3F30A54C1F30A552C44F6
:1055B000A4F2F3340194A0FB0254C1F3130141F4AB
:1055C0008011C3F3130343F4801301FB024400FB77
:1055D000034E840A970A44EA815447EA8357A4FB9E
:1055E000076802958D0A05FB07854FEA932C04FB9B
:1055F0000C542705029D4FEA065847EA1637B5EBCB
:1056000008056EEB070C870E920E47EA811742EAF7
:105610008312A7FB0201B6EB0B0164EB00042B0D18
:1056200043EA0C335E1844EB1C50DA465146E7FB64
:105630000201C5F313044FEA0B3343EA14534FEA54
:105640000432019C43EA0603A4F10C040294009C7A
:10565000CDE900B400F0F6F803B0BDE8F08F00200B
:105660000146F9E7C10F80EAE0700844CA079623B3
:10567000002100F0AAB896230022114600F0A5B838
:105680000EB5C10F80EAE0700844CA07002140F25D
:1056900033438DE80E000A460B4600F0D3F803B002
:1056A00000BD0EB540F2334102910021CDE9001159
:1056B0000A460B4600F0C6F803B000BD20F00040DB
:1056C000C10DC0F3160040F400007F2901DA00206C
:1056D0007047962903DCC1F19601C840704796399E
:1056E00088407047C1F30A5210B5C1F3130140F26C
:1056F000FF3341F480119A4201DA002010BD40F2DC
:1057000033439A42A2F2334203DC524200F032F8B1
:1057100010BD904010BD00F0004230F000400AD0B3
:10572000C10D01F56071C0F3160042EA0151C208D3
:1057300040071143704700200146704701F00043C5
:1057400030B421F0004150EA010206D00A0DA2F562
:105750006072C1F31301002A02DC30BC00207047E4
:10576000440F44EAC104C100E01830BC00EBC25051
:1057700000F022B8202A04DB203A21FA02F00021AE
:10578000704721FA02F3D040C2F120029140084351
:1057900019467047202A06DBCB17203A41FA02F05F
:1057A00043EAE07306E041FA02F3D040C2F120027E
:1057B00091400843194670470029A8BF7047401C14
:1057C000490008BF20F00100704710B4B0FA80FC17
:1057D00000FA0CF050EA010404BF10BC704749B154
:1057E000CCF1200421FA04F411FA0CF118BF0121C4
:1057F00021430843A3EB0C01CB1D4FEA00614FEAA4
:10580000102042BF002010BC704700EBC350104472
:105810000029A4BF10BC7047401C490008BF20F0FD
:10582000010010BC704710B5141E73F1000408DAB3
:10583000401C41F1000192185B411A4301D120F054
:10584000010010BD2DE9F04D92469B4611B1B1FA11
:1058500081F202E0B0FA80F220329046FFF706FDB6
:1058600004460F4640EA0A0041EA0B0153465A46F5
:10587000084313D0114653EA010019D0C8F1400281
:105880005046FFF777FF05460E46504659464246BA
:10589000FFF7ECFC084305D0012004E02046394620
:1058A000BDE8F08D0020054346EAE0762C433743FF
:1058B0000A986305E40AA0EB08000022FD0A44EA06
:1058C00047540A3002D500200146E9E701051019C6
:1058D0006941DDE9084500196941BDE8F04DA2E7DD
:1058E000064C074D06E0E06840F0010394E807002D
:1058F00098471034AC42F6D3FAF7FCFB286800084E
:105900004868000802E008C8121F08C1002AFAD13E
:1059100070477047002001E001C1121F002AFBD12F
:105920007047000010B5002821D0114B0022001F45
:10593000196803E0814203D80A4649680029F9D171
:1059400052B11368841A9C4204D100681844106054
:10595000104602E0506000E0186039B102680B1A8E
:10596000934203D10B681A4402604968416010BD3C
:10597000D8000020F0B50B30154D20F007010024B1
:10598000144A0FE003688B420BD38B4205D95E1A91
:1059900043184768C3E9006700E04368136002C02A
:1059A00004E0021D10680028ECD12046002802D136
:1059B000286808B10020F0BD064A07481060074A71
:1059C000121A22F00702C0E9002401202860D7E75C
:1059D000DC000020D80000208C0700208808002070
:1059E000004040404040FC4040408080808084B87F
:1059F000B0808080C0800000004040602010FF0820
:105A00000804000038E0000000C07C08000000002E
:105A10000000101020703F0020202020202723208D
:105A20003C232020203020000000008080808080E7
:105A3000808080FEFC80808080808080808000006C
:105A4000000000000000000000C0780F000000000F
:105A5000000000FE7F0000000040402010180C06EF
:105A6000030000000008101070303C0F0000000020
:105A700000800004181000F8F808C8C808F8F800FA
:105A800000C04000FC00000000000107C03807FF14
:105A9000FF00FF3F00FFFF0000FF0000FF000000CD
:105AA0000000013F3F402023190E03040419300079
:105AB000000120607F0000000000000830E00000CE
:105AC000808080808080808CF8888898B0C080003A
:105AD0000004040404FC040008080808F8080C0882
