:020000040800F2
:10000000900A0020010100088B2000088D200008C4
:100010008F200008912000089320000800000000B5
:100020000000000000000000000000009520000813
:100030009720000800000000992000089B2000087D
:100040001B0100081B0100081B0100081B01000820
:100050001B0100081B0100081B0100081B01000810
:100060001B0100081B0100081B0100081B01000800
:100070001B0100081B0100081B0100081B010008F0
:100080001B0100081B0100081B0100081B010008E0
:100090001B0100081B0100081B0100081B010008D0
:1000A0001B0100081B0100081B0100081B010008C0
:1000B0001B0100081B0100081B0100081B010008B0
:1000C0001B0100081B0100081B0100081B010008A0
:1000D0001B010008652000081B0100081B01000827
:1000E0001B0100081B0100081B010008DFF80CD0F1
:1000F00005F08CFC00480047FB1F0008900A002018
:100100000648804706480047FEE7FEE7FEE7FEE7B1
:10011000FEE7FEE7FEE7FEE7FEE7FEE7C5010008B3
:10012000ED0000080CB500214B48019100910268D8
:1001300042F4803202604FF4A063026802F400329D
:100140000092019A521C0192009A12B9019A9A42A5
:10015000F3D10268920333D5012100913F490A6827
:1001600042F010020A600A6822F003020A600A687C
:1001700042F002020A6041684160416841604168A2
:1001800041F480614160416821F47C114160416823
:1001900041F4E8114160016841F08071016001683B
:1001A0008901FCD5416821F003014160416841F0BB
:1001B000020141604168C1F381010229FAD10CBDFD
:1001C00000910CBD244810B5016841F001010160A7
:1001D0004168234A114041600168224A1140016090
:1001E000016821F480210160416821F4FE01416031
:1001F0004FF41F018160FFF795FF1B494FF000602E
:10020000086010BD144910B54868184A10F00C0376
:10021000174803D0042B01D0082B0AD0026049688C
:10022000134AC1F30311121D515C0268CA400260F7
:1002300010BD4A684B6802F470124FF0020413F4C8
:10024000803F04EB924202D04B689B0301D5094BDF
:1002500000E0064B5A43E1E7001002400020024054
:100260000000FFF8FFFFF6FE08ED00E000127A0044
:100270000000002000093D00284908432849086083
:10028000704770B50F23C47801780122F4B1244C73
:100290002468457804F4E064C4F5E064240AC4F1F9
:1002A0000406E3408478B5401C402C4301F1E02172
:1002B000230181F80034007800F01F018A404009D2
:1002C000800000F1E020C0F8002170BD01F01F00A7
:1002D00082404809800000F1E020C0F8802170BD14
:1002E000104A114001430E48001F016070470C4A3C
:1002F000121D0029116801D0014300E08143116003
:1003000070474FF0E0210428086903D020F0040072
:100310000861704740F00400FAE700000000FA05A9
:100320000CED00E080FFFF1FC54910B5884202D1E7
:10033000012144150AE0C349884202D10121041574
:1003400004E0C14988420AD10121CC03204600F0D3
:10035000F8FE2046BDE81040002100F0F2BE10BDBE
:1003600010B54268B94B0C791A400B6842EA042276
:10037000134343608368B64A1340D1E902422243E3
:100380004C7943EA44031A438260C26A097C22F42E
:100390007002491EC9B242EA0151C16210BD00217A
:1003A0000160017141718160C16001210174704778
:1003B0000029816802D041F0010101E021F0010132
:1003C000816070470029816802D041F4807101E0AA
:1003D00021F4807181607047002A4268C9B201D05F
:1003E0000A4300E08A4342607047816841F0080197
:1003F00081607047014600208968090700D5012007
:100400007047816841F00401816070470146002017
:100410008968490700D5012070470029816802D00A
:1004200041F4A00101E021F4A00181607047014680
:1004300000208968490200D5012070474268491EA2
:1004400022F4604242EA413141607047002941682C
:1004500002D041F4006101E021F400614160704785
:1004600070B5072409290AD9C568A1F10A0606EB67
:100470004606B440A543B3401D43C56007E0056987
:1004800001EB4106B440A543B3401D4305611F2362
:10049000072A09D2446B521E02EB820293409C430E
:1004A00091400C43446370BD0D2A09D2046BD21FE6
:1004B00002EB820293409C4391400C43046370BD65
:1004C000C46A0D3A02EB820293409C4391400C4374
:1004D000C46270BD0029816802D041F4801101E03E
:1004E00021F4801181607047C06C80B2704754481D
:1004F0004C30006870470029416802D041F48061A7
:1005000001E021F48061416070470029416802D018
:1005100041F4805101E021F48051416070478268CC
:1005200022F4E0420A43826070470029816802D0C9
:1005300041F4004101E021F400418160704700294D
:10054000816802D041F4021101E021F402118160BE
:100550007047014600208968890200D50120704754
:1005600070B5072409290AD9C568A1F10A0606EB66
:100570004606B440A543B3401D43C56007E0056986
:1005800001EB4106B440A543B3401D430561836BB5
:10059000C3F30154121B921C02EB82041F22A240DF
:1005A0009343A1400B43836370BD826B491E22F4C9
:1005B000401242EA01518163704708B50844009037
:1005C000026008BD08B5084428300090006880B279
:1005D00008BD42681F4B1A400A434260704741629F
:1005E00082627047426822F01F020A4342607047ED
:1005F000134908310028086802D040F4000001E0E7
:1006000020F40000086070470246002012680A4289
:1006100000D001207047C9430160704710B5024601
:10062000002054680B0AC9B20C401168194202D06C
:10063000002C00D0012010BD6FEA1121016070472D
:100640000024014000280140003C0140FFFEF0FF73
:10065000FDF7F1FFFFFD3FFF01684FF6FE7211400D
:1006600001600021016041608160C1606A496A4A9D
:100670000839904203D1486840F00F0006E0664A0E
:100680001432904204D1486840F0F000486070474E
:10069000614A2832904203D1486840F47060F5E71F
:1006A0005D4A3C32904203D1486840F47040EDE727
:1006B000594A5032904203D1486840F47020E5E72F
:1006C000554A6432904203D1486840F47000DDE737
:1006D000514A7832904203D1486840F07060D5E7C3
:1006E0004E4A111F904203D1086840F00F0006E007
:1006F0004A4A1432904204D1086840F0F000086081
:100700007047464A2832904203D1086840F470602E
:10071000F5E7424A3C32904203D1086840F4704009
:10072000EDE73E4A50329042EAD1086840F470202A
:10073000E5E730B5036847F6F07293430C6A8A68C0
:100740002243D1E904452C4322438C692243CC69DE
:1007500022434C6A22438C6A22431A430260CA68CD
:1007600042600A6882604968C16030BD0021016052
:1007700041608160C160016141618161C16101626B
:100780004162816270470029016802D041F0010195
:1007900002E04FF6FE72114001607047002A0268C5
:1007A00001D00A4300E08A4302607047416070470D
:1007B000406880B2704701460020CA0002D5174A3F
:1007C000083A01E0144A083A12680A4200D00120AF
:1007D0007047C10003D51149091F086070470E49D1
:1007E00008394860704701460020CA0002D50B4A0C
:1007F000083A01E0084A083A12680A4200D001208B
:100800007047C10003D50549091F086070470249B8
:1008100008394860704700000800024008040240A0
:10082000FC4A116801F03801014311607047F94931
:100830000A6822F008020A600A6802430A607047E8
:10084000F4490A6822F010020A600A6802430A604A
:100850007047F048F0494160F04941607047ED4809
:10086000ED494160ED4941607047EA48016941F056
:10087000800101617047E748016941F08001016131
:100880007047E4490420CA68D20701D001207047AC
:10089000CA68520701D502207047C968C906FBD54E
:1008A0000320704700B50346FFF7EBFF03E000BFEE
:1008B000FFF7E7FF5B1E012803D0002B00D10520C6
:1008C00000BD002BF4D1FAE770B505464FF4302691
:1008D0003046FFF7E7FF042811D1CE4C206940F0E5
:1008E000020020616561206940F0400020613046CF
:1008F000FFF7D8FF216941F6FD721140216170BDFB
:1009000030B54FF430252846FFF7CCFF042810D12E
:10091000C04C206940F004002061206940F0400094
:1009200020612846FFF7BEFF216941F6FB721140A6
:10093000216130BD00B50346FFF7A3FF03E000BF10
:10094000FFF79FFF5B1E012803D0002B00D105207D
:1009500000BD002BF4D1FAE730B54FF4302528461E
:10096000FFF7E8FF042810D1AA4C206940F00400EA
:100970002061206940F0400020612846FFF7DAFF3F
:10098000216941F6FB721140216130BDA14900206F
:10099000C969890700D50120704770B5A525FFF703
:1009A000F5FF00B100254FF430263046FFF77AFFFF
:1009B000042827D1974C9848A0609848A0602069E7
:1009C00040F020002061206940F040002061304666
:1009D000FFF768FF41F6EF7604280ED1206941F653
:1009E000DF7108402061206940F0100020618C48D0
:1009F00005804FF40050FFF755FF052802D021690C
:100A00003140216170BDF8B5064600204FF4005C0E
:100A100000900D466046FFF745FF042816D17D4C37
:100A2000206940F00100206135806046FFF73AFF01
:100A300041F6FE77042806D1B61C280C00963080BB
:100A40006046FFF72FFF216939402161F8BDF0B5FD
:100A500006464FF400570D463846FFF723FF04289B
:100A60000CD16C4C206940F0010020613580384683
:100A7000FFF718FF2169BA1E11402161F0BDF0B5E2
:100A800006464FF400570D463846FFF70BFF042883
:100A900013D1604C6048A0606048A060206940F0BD
:100AA0001000206135803846FFF7FCFE052804D091
:100AB000216941F6EF7211402161F0BD2DE9F0414D
:100AC000C04300F0FF0CC0F30727C0F30746050E34
:100AD0004FF400584046FFF7E5FE042837D14D4C4F
:100AE0004D49A1604D49A160216941F0100121618A
:100AF000BCF1FF0F08D04A480830A0F800C04046BB
:100B0000FFF7D0FE04281BD1FF2F07D044480A303E
:100B100007804046FFF7C6FE042811D1FF2E07D0FC
:100B20003F480C3006804046FFF7BCFE042807D142
:100B3000FF2D07D03A480E3005804046FFF7B2FE41
:100B4000052804D0216941F6EF7211402161BDE80A
:100B5000F08170B505464FF430263046FFF7A2FE0F
:100B6000042818D12B4C2C48A0602C48A060206988
:100B700040F020002061206940F0400020613046B4
:100B8000FFF790FE41F6DF71042805D0052802D05A
:100B900022690A40226170BD2069084020612069F5
:100BA00040F0100020611E480DB1002100E0A52199
:100BB00001803046FFF776FE0528ECD0216941F62A
:100BC000EF721140216170BDF0B5124C074612481A
:100BD00016460D46A0601148A0604FF4005C6046C8
:100BE000FFF760FE042814D1206940F01000206156
:100BF00035430B493D43891C45F0F80008806046A9
:100C0000FFF750FE052804D0216941F6EF7211402C
:100C10002161F0BD0020024023016745AB89EFCD83
:100C200000F8FF1F1C48C069800870471A48006A16
:100C30007047194900200968890600D501207047CE
:100C4000154A0029116901D0014300E08143116177
:100C5000704701460020104A012903D0D2680A4299
:100C600003D17047D169C907FBD0012070470A49F9
:100C7000C860704708490420CA68D20701D0012023
:100C80007047CA68520701D502207047C968C90673
:100C9000FBD503207047000000200240914910B5A9
:100CA000884206D10121042000F04BFA00210420E3
:100CB0003BE08D49884206D10121082000F041FA2D
:100CC0000021082031E08949884206D10121102005
:100CD00000F037FA0021102027E08549884206D12C
:100CE0000121202000F02DFA002120201DE0814963
:100CF000884206D10121402000F023FA0021402043
:100D000013E07D49884206D10121802000F019FAC4
:100D10000021802009E0794988420AD18415012107
:100D2000204600F00EFA00212046BDE8104000F0F9
:100D300008BA10BD10B50121084600F002FA0021E2
:100D4000BDE81040012000F0FCB9F0B5CA780025DC
:100D500002F00F03D20601D58A7813430A784FF0C8
:100D60000F0E12F0FF0F4FF001021DD0D0F800401F
:100D70000F8802FA05F63740B74211D14FEA850CC9
:100D80000EFA0CF724EA070703FA0CF43C43CF7879
:100D9000282F02D0482F02D002E0466100E0066111
:100DA0006D1C082DE4D304600C88FF2C1ED9446808
:100DB0005FF0000606F1080702FA07F50F882F40DA
:100DC000AF420FD14FEA860C0EFA0CF7BC4303FA80
:100DD0000CF73C43CF78282F00D14561CF78482FBE
:100DE00000D10561761C082EE4D34460F0BD4FF6B7
:100DF000FF710180022181700421C1707047024699
:100E0000002092680A4200D001207047806880B2BA
:100E1000704702460020D2680A4200D00120704785
:100E2000C06880B2704701617047416170470AB184
:100E30000161704741617047C160704741F4803281
:100E40008261816182618169806970472C4B10B534
:100E50001A684FF68074224042EA00100843186076
:100E600010BD2849C8617047F0B5254C002801DA4B
:100E7000E36900E06368420D120185B2C0F30157D7
:100E80009540C0F30346032F05D0C2020AD50322C2
:100E9000B240934307E023F07062636823F070630D
:100EA000636002E0AB4343F0706201B12A43002863
:100EB00001DAE261F0BD6260F0BD10B58A0721F091
:100EC00003040F49130F21440F228C689A40944366
:100ED0008C608A68984002438A6010BD0949C1F855
:100EE000DC00704700080140000C01400010014088
:100EF0000014014000180140001C01400020014086
:100F00000000014000002042A448016841F00101B6
:100F100001604168A24A114041600168A14A114044
:100F20000160016821F480210160416821F4FE0123
:100F300041604FF41F018160704798490A6822F4AC
:100F400080320A600A6822F480220A60B0F5803F8D
:100F500007D0B0F5802F03D1086840F4A0200860C6
:100F60007047086840F48030F9E7024600205309D2
:100F70008A49012B0AD0022B0AD0496A02F01F02CB
:100F8000012393400B4200D0012070470968F5E728
:100F9000096AF3E718B500204FF4A06400903120EF
:100FA000FFF7E3FF0099491C0091A14201D00028FE
:100FB000F5D03120FFF7D9FF002800D0012018BD5F
:100FC00076490A6822F0F80242EAC00008607047D9
:100FD000754908607047714A5368084323F47C13CD
:100FE0001843506070477049086670476B4A5168F3
:100FF00021F003010143516070476848406800F0E8
:101000000C007047654A516821F0F00101435160BE
:101010007047624A516821F4E061014351607047B2
:101020005E494A6822F4605242EAC0004860704754
:101030005A4A0029517A01D0014300E0814351729C
:1010400070475949C1F8D8007047544A516821F493
:1010500040410143516070475049002281F82020EF
:1010600081F82020012802D0042802D1052081F82F
:10107000200070474D490860704748490A6A02439A
:101080000A627047494944390860704730B543499E
:101090004A6812F00C03464A03D0042B01D0082BF7
:1010A00021D002604A680F23424C03EA1212A35C6B
:1010B0000268DA4042604B68072505EA1323E35CC7
:1010C00022FA03F383604B6805EAD323E35CDA403A
:1010D000C2604968032303EA9131231F595CB2FBC4
:1010E000F1F1016130BD4A684B6802F470124FF0B3
:1010F000020413F4803F04EB924202D04B689B033E
:1011000001D52D4B00E02A4B5A43CAE7234A002958
:10111000516901D0014300E08143516170471F4A8A
:101120000029916901D0014300E08143916170473A
:101130001A4A0029D16901D0014300E08143D161FD
:101140007047164A0029D16801D0014300E081436D
:10115000D1607047114A0029116901D0014300E0B4
:1011600081431161704711494039086070470E4949
:10117000C86470470949C87170470848416A41F01E
:10118000807141627047054A0146002092680A4218
:1011900000D001207047014988727047001002405A
:1011A0000000FFF8FFFFF6FE0000424280044242CA
:1011B00000127A001800002000093D00F94910B51E
:1011C000884202D10121C41486E0B0F1804F09D0D9
:1011D000F54988420DD101210220FFF7BBFF002114
:1011E000022064E001210846FFF7B4FF002101203E
:1011F0005DE0EE49884206D101210420FFF7AAFFF5
:101200000021042053E0EA49884206D10121082048
:10121000FFF7A0FF0021082049E0E649884206D1F7
:1012200001211020FFF796FF002110203FE0E24946
:10123000884206D101212020FFF78CFF00212020C9
:1012400035E0DE49884202D10121441444E0DC4902
:10125000884202D10121CC043EE0DA49884202D121
:1012600001210C0538E0D849884202D101214C0502
:1012700032E0D649884206D101214020FFF76AFFBB
:101280000021402013E0D249884206D1012180206C
:10129000FFF760FF0021802009E0CE4988420AD193
:1012A000841501212046FFF755FF00212046BDE8A7
:1012B0001040FFF74FBFC849884202D101210C04FA
:1012C0000AE0C649884202D101214C0404E0C44925
:1012D00088420AD101218C042046FFF732FF2046C4
:1012E000BDE810400021FFF72CBF10BD30B50288CB
:1012F000AC4BB24C98420DD0A0420BD0B0F1804F15
:1013000008D0A94DA84205D0A84DA84202D0A84DAA
:10131000A84203D122F070054A882A43A54DA8426D
:1013200006D0A54DA84203D022F44075CA882A43AE
:1013300002808A8882850A88028598420AD0A04263
:1013400008D0A54A904205D0A44A904202D0A44AAF
:10135000904201D1097A01860121818230BD30B5E8
:10136000028C22F001020284028C8388048B22F01A
:10137000020224F073050C882C430D8915434A881A
:101380002A43884DA8420BD08C4DA84208D0924DDC
:10139000A84205D0914DA84202D0914DA8420DD14E
:1013A00022F008054A8923F440732A4322F00405F9
:1013B0008A882A438D891D43CB892B4383800483EC
:1013C000C9888186028430BD70B5028C22F010027B
:1013D0000284028C8488038B0D8823F4E6464FF642
:1013E000FF7303EA052535430E8922F0200203EA44
:1013F000061616434A8803EA02123243694EB04287
:1014000002D06E4EB04215D122F080064A8924F4F3
:10141000406403EA0212324322F040068A8803EA5B
:10142000021232438E8903EA86062643CC8903EAF8
:101430008404344384800583C9880187028470BD95
:1014400070B5028C22F480720284028C8488838BB3
:101450000D8823F073031D4322F400730E894FF6A9
:10146000FF7202EA06261E434B8802EA0323334337
:101470004C4EB04202D0514EB04215D123F400661A
:101480004B8924F4405402EA0323334323F4806657
:101490008B8802EA032333438E8902EA0616264329
:1014A000CC8902EA0414344384808583C988818707
:1014B000038470BD70B5028C22F480520284048CC7
:1014C0008288838B0D8823F4E6464FF6FF7303EA88
:1014D0000525354324F400560C8903EA04343443CB
:1014E0004E8803EA063626432E4CA04202D0334CE7
:1014F000A04205D122F480448A8903EA8212224361
:1015000082808583C988A0F84010068470BD828BD4
:1015100022F440628283828B4FF6FF7303EA01213B
:101520000A4382837047828B22F00C028283828B73
:101530000A4382837047028B22F440620283028B4B
:101540004FF6FF7303EA01210A4302837047F0B5A7
:10155000048C24F010040484078B048C4FF6FF7570
:1015600027F4734705EA03333B4305EA02221A4393
:101570000C4B05EA011698420ED0104B98420BD046
:10158000B0F1804F08D0084B984205D0074B9842E5
:1015900002D0074B984225D124F02001314341F07D
:1015A000100124E0002C014000040040000800402D
:1015B000000C0040001000400014004000340140C6
:1015C000004C014000500140005401400018004010
:1015D000001C004000200040004001400044014049
:1015E0000048014024F0A0030B4343F010010283A4
:1015F0000184F0BD028B22F00C020283028B0A43AD
:101600000283704770B5048C24F001040484058BB8
:10161000048C4FF6FF7606EA0313134325F0F30517
:10162000F94A2B4390420ED0F84A90420BD0B0F1C9
:10163000804F08D0F64A904205D0F64A904202D038
:10164000F54A904202D124F0020201E024F00A029D
:101650000A4342F001010383018470BD2DE9F05F6C
:101660000D4604460888E84FDFF8A0C3DFF8A083E2
:101670004988AA882B894FF0804960B3042832D06A
:101680004FF6FF7E082836D0208C9B4620F48050F1
:101690002084A38B268C704600EA022223F4734335
:1016A0001A4300EA0B3010430EEA013EBC420BD055
:1016B000644509D04C4507D0444505D0D54A9442ED
:1016C00002D0D54B9C4245D126F4005141EA0E018F
:1016D00041F4805143E02046FFF794FFE98820461B
:1016E000BDE8F05F86E72046FFF731FFE988204636
:1016F000BDE8F05F1FE7208C20F480702084B4F8F0
:101700001CA0208C0EEA031313432AF0F30A0EEAFE
:10171000012B43EA0A03BC420BD0644509D04C4577
:1017200007D0444505D0BB4A944202D0BA4A9442FD
:1017300004D120F4007040EA0B0002E020F42060A5
:10174000084340F48070A3832084E9882046BDE8E4
:10175000F05FE8E626F402420A4342F48051A08397
:1017600020462184E988BDE8F05FD0E62DE9F0410C
:101770000C46002649880746012501B90226A288A1
:10178000012A00D10225208823890028384610D05C
:10179000FFF7DDFEE1883846FFF7CDFE23892A46B4
:1017A00031463846FFF72EFFE1883846BDE8F04164
:1017B00020E7FFF727FFE1883846FFF71BFF238963
:1017C0002A4631463846FFF7C2FEE1883846BDE872
:1017D000F041B0E610B50A884B88CC881A438B8854
:1017E00023431A430B891A434B8989891A430A43B5
:1017F000A0F8442010BD4FF6FF71818000210180C8
:10180000C180418001727047002101804180818048
:10181000C180018141818181C181704700210180A6
:10182000418001228280C1800181704700210180B6
:1018300041808180C180018141818181704700297F
:10184000018802D041F0010101E021F00101018095
:101850007047002930F8441F02D041F4004101E0F4
:10186000C1F30E0101807047002A828901D00A432A
:1018700000E08A4382817047818270471143A0F85B
:1018800048107047002A828901D00A4300E08A4349
:1018900082817047018921F0070101817047028927
:1018A00022F070020A430281704700B50346FFF739
:1018B000F6FF188940F00700188100BD70B5164684
:1018C0000D46602904464FF0010231460AD0FFF769
:1018D00099FE29462046FFF7E2FF208940F00700E5
:1018E000208170BDFFF733FEF3E730B504894FF672
:1018F000FF7505EA03231343E4B20B43234303813B
:1019000030BD10B50446FFF7F0FF208940F07700A6
:10191000208110BD10B50446FFF7E7FF208940F491
:101920008040208110BD018582827047028822F0AC
:1019300070020A430280704770B50589048B068CDB
:1019400025F007050D434FF6FC410C4040F2011114
:101950000C434FF6FF7101EA031126F022061143F2
:10196000314305810483018470BD028B22F0700233
:101970000A4302837047028B4FF6FF7322F4E04262
:1019800003EA0121114301837047828B22F0700228
:101990000A4382837047828B4FF6FF7322F4E04242
:1019A00003EA01211143818370470029018802D095
:1019B00041F0800101E021F08001018070470029A1
:1019C000818802D041F0040101E021F0040181800E
:1019D00070470029818802D041F0080101E021F020
:1019E0000801818070470029818802D041F00101FF
:1019F00001E021F0010181807047028B22F0080292
:101A00000A43028370470000002C0140003401406B
:101A10000004004000080040000C0040028B4FF61C
:101A2000FF7322F4006203EA012111430183E9E715
:101A3000828B22F008020A438283E3E7828B4FF60F
:101A4000FF7322F4006203EA012111438183D9E785
:101A5000028B22F004020A430283D3E7028B4FF683
:101A6000FF7322F4806203EA012111430183C9E775
:101A7000828B22F004020A438283C3E7828B4FF6F3
:101A8000FF7322F4806203EA012111438183B9E7E5
:101A9000028B22F080020A430283B3E7028B4FF6E7
:101AA000FF73C2F30E0203EA012111430183A9E788
:101AB000828B22F080020A438283A3E7828B4FF657
:101AC000FF73C2F30E0203EA01211143818399E7F8
:101AD000028C22F002020A43028493E7028C22F075
:101AE00008020A4302848DE7028C4FF6FF7322F04E
:101AF000200203EA01111143018483E7028C4FF6AF
:101B0000FF7322F0800203EA01111143018479E797
:101B1000028C4FF6FF7322F4007203EA0121114395
:101B200001846FE7028C4FF6FF7322F4006203EA30
:101B300001211143018465E7028C4FF6FF7322F403
:101B4000005203EA0131114301845BE710B5012320
:101B5000048C8B409C430484038C8A40134303848D
:101B600010BD10B50423048C8B409C430484038C6B
:101B70008A401343038410BD30B50124058C00F165
:101B800018038C40A543058489B108290FD0091F8B
:101B9000C1F34E001844016821F4E041016001687E
:101BA0004FF6FF7303EA02221143016030BD03EBDD
:101BB0005100016821F0700101600168F4E700291B
:101BC000018802D041F0020101E021F00201018010
:101BD00018E70029018802D041F0040101E021F05A
:101BE000040101800EE70029818802D041F08001C4
:101BF00001E021F08001818004E7028822F00802E0
:101C0000028002880A430280FCE6828822F0700289
:101C1000828082880A438280F4E6028922F00702E9
:101C2000028102890A430281ECE6028922F08002E5
:101C3000028102890A430281E4E68184E2E6818529
:101C4000E0E68186DEE60187DCE68187DAE6A0F859
:101C50004010D7E6028822F44072028002880A43CC
:101C60000280CFE6808ECDE6008FCBE6808FC9E67E
:101C7000B0F84000C6E6808CC4E6008DC2E602469D
:101C80000020128A0A4200D00120BBE6C94301822B
:101C9000B8E602460020138A92890B4202EA01024A
:101CA00002D0002A00D00120ACE6C9430182A9E697
:101CB000C44910B588420AD101218C032046FFF7A0
:101CC00040FA2046BDE810400021FFF73ABABE496D
:101CD000884202D101214C0410E0BC49884202D163
:101CE00001218C040AE0BA49884202D10121CC04C6
:101CF00004E0B84988420AD101210C052046FFF7CB
:101D000029FA2046BDE810400021FFF723BA10BD94
:101D100030B50446008A85B00D464CF6FF71084088
:101D2000E98801432182A1894EF6F3100140A88879
:101D30002A8910436A890A431043A081A08A4FF67A
:101D4000FF410840A9890143A1826846FFF79EF937
:101D50009C48844201D1039800E00298A1890904BB
:101D600000EBC00101EB0010296801D5490000E03B
:101D70008900B0FBF1F06422B0FBF2F109010B091C
:101D80006FF018056B4300EB8300A3891D044FF02F
:101D9000320306D503EBC000B0FBF2F000F0070001
:101DA00005E003EB0010B0FBF2F000F00F00084379
:101DB000208105B030BD4FF41651016000218180B3
:101DC000C18001810C2242818181704710B5038A54
:101DD0004FF2FF0213400A884C8822438C88C9883E
:101DE0000C4322431A43028210BD0021018041802E
:101DF0008180C18070470029818902D041F400515F
:101E000001E021F400518181704710B5C1F3421304
:101E100001F01F040121A140012B07D0022B07D0A4
:101E20001430002A026805D00A4304E00C30F8E7B9
:101E30001030F6E78A43026010BD002A828A01D082
:101E40000A4300E08A4382827047028A22F00F022E
:101E50000282028A0A4302827047828922F4006267
:101E6000828182890A43828170470029818902D058
:101E700041F0020101E021F0020181817047028AF4
:101E800022F020020282028A0A430282704700295D
:101E9000018A02D041F4804101E021F480410182B5
:101EA0007047C1F30801818070478088C0F3080043
:101EB0007047818941F0010181817047028BD2B264
:101EC0000283028B42EA012101837047028B02F4F4
:101ED0007F420283028B0A43028370470029818A72
:101EE00002D041F0200101E021F020018182704701
:101EF0000029818A02D041F0100101E021F0100197
:101F0000818270470029818A02D041F0080101E0F6
:101F100021F00801818270470029818902D041F4B3
:101F2000004101E0C1F30E01818170470029818ADF
:101F300002D041F4006101E021F400618182704728
:101F4000828A22F004028282828A0A438282704755
:101F50000029818A02D041F0020101E021F0020152
:101F6000818270470246002012880A4200D0012078
:101F70007047C9430180704730B501F01F0201244A
:101F80000025C1F3421304FA02F2012B0FD0022BF9
:101F90000FD0838A4FEA11210088134204FA01F41A
:101FA00000EA040001D000B10125284630BD838934
:101FB000F0E7038AEEE70A0A01219140C943018054
:101FC00070470000003801400044004000480040D5
:101FD000004C0040005000400EB50121ADF800104B
:101FE000ADF8040010210020ADF80210ADF8060095
:101FF00069461A48FFF77AF90EBDFEF72AFC34202D
:10200000FEF735FE1648006880B2A0F57A41BF3968
:102010001FD001F057FE00BF00F036FB01F067FF54
:1020200002F070FA02F08EF900F040F802F00CF8BD
:1020300002F0D0FA02F03DFD00F0DEFB02F009FCF8
:1020400000F003F900F008FB02F0E8FA00F05CFB96
:10205000FCE701F070FEDFE701F0A1BF00100040D7
:1020600000FC000810B50E4C40F225512046FFF749
:1020700083FF002808D02046FFF717FF0A4A094BC4
:1020800011885854491C118010BD7047FEE7FEE7C7
:10209000FEE7FEE770477047704700F002BB0000A4
:1020A00000380140E0040020580000202DE9F041F4
:1020B000012188B0C802FFF732F801210420FFF7A0
:1020C0002EF801210846FFF72AF818208DF81F0086
:1020D00003208DF81E003B4D4FF48074ADF81C407A
:1020E00007A92846FEF731FE21462846FEF79BFE4B
:1020F0004FF43474ADF810400025ADF81250324F53
:10210000324EDFF8CC8038683188B0FBF4F0B0FB99
:10211000F1F0ADF81400ADF8165004A94046FFF7F1
:10212000E5F86020ADF800000120ADF80200396844
:102130003088B1FBF4F2B2FBF0F2B1FBF4F1B1FB89
:10214000F0F07188ADF8085048431421B0FBF1F06D
:10215000101A401CADF8060069464046FFF7FFF82C
:1021600001214046FFF775FB08214046FFF745FC7B
:1021700001214046FFF719FC01214046FFF75FFBB4
:1021800008B0BDE8F08130B50F4A114D13684FF427
:102190003472B3FBF2F4B4FBF0F42C352C80B3FBB7
:1021A000F2F4B4FBF0F4B3FBF2F2B2FBF0F048430C
:1021B0001421B0FBF1F00649201A3431401C08808C
:1021C00030BD704700080140000000205A00002088
:1021D000002C014038B501210420FEF7A0FF0121A9
:1021E0001020FEF79CFF01210846FEF798FF032010
:1021F0008DF8020018208DF803004FF40070ADF840
:1022000000006946FE4C2046FEF79FFD04208DF835
:1022100003000002ADF8000069462046FEF795FD78
:1022200038BD08B54FF4C060FEF726F825208DF8BC
:10223000000000208DF8010001208DF802008DF8CB
:1022400003006846FEF71DF808BD7FB5FFF7E9FFFC
:10225000FFF7C0FF01218803FEF761FF4FF4E13073
:10226000009000200C21ADF80A10ADF80400E54CF8
:10227000ADF80C00ADF80600ADF808006946204640
:10228000FFF746FD40F22555012229462046FFF77B
:10229000BCFD01212046FFF7AEFD00222946204665
:1022A000FFF7B3FD7FBD70B50C46D649D64D8842C9
:1022B00010D108880D4609E02846FFF7F2FD4021BD
:1022C0002846FFF74FFE0028F9D0641C217800292A
:1022D000F2D170BDA8420AD070BD2846FFF7E1FDDB
:1022E00040212846FFF73EFE0028F9D0641C2178E3
:1022F0000029F2D170BD2DE9F04115460E46074682
:1023000000240BE0315D3846FFF7CBFD4021384615
:10231000FFF728FE0028F9D0641CA4B2AC42F1D328
:10232000BDE8F08130B4B949AA2200240A704A708D
:10233000F1228A70CC70C2780A7182784A71427830
:102340008A710278CA71C2790A7282794A724279B4
:102350008A720279CA72C27A0A73827A4A73427A9C
:102360008A73027ACA73C27B0A74827B4A74427B84
:102370008A74027BCA74C27C0A75827C4A75427C6C
:102380008A75027CCA75427D0A76027D4A76C27DD4
:102390008A76827DCA76C27E0A77827E4A77427EBC
:1023A0008A77027ECA77C27F81F82020827F81F8F7
:1023B0002120427F81F82220027F81F8232090F89B
:1023C0002120234681F8242090F8200081F8250060
:1023D00026222220C8700846C15C5B1C2144DBB267
:1023E000CCB29342F8D3845430BC88498548521CFF
:1023F00081E7874896E72DE9F003844CDDE909760B
:102400004FF0AA08DDF8189004F8068B4FF0000C86
:1024100004F8058C4FF0F10804F8048C4FEA1068BA
:1024200004F8028C4FEA104804F8018C4FEA102897
:1024300084F800806070080EA070080CE070080A34
:1024400020716171100EA071100CE071100A2072E1
:102450006272180EA072180CE072180A207363736F
:102460004FEA1960A0734FEA1940E0734FEA192050
:10247000207484F811909DF81D00A0749DF81C0034
:10248000E0749DF8210020759DF820006075380EDD
:10249000A075380CE075380A20766776300EA07685
:1024A000300CE076300A207766779DF82D00A07713
:1024B0009DF82C00E07726222220654604F8030CC4
:1024C0005248415D6D1C6144EDB201F0FF0C954234
:1024D000F7D300F802C0BDE8F0034C494948521C4C
:1024E00009E710B54B4A002001464B4C138802E027
:1024F0002154401C80B29842FAD3118010BD30B5EF
:1025000087B0054600240C20ADF81200ADF80C4051
:10251000ADF81440ADF80E40ADF8104002A93948AE
:102520000295FFF7F5FB00213C4B3DA208460094C5
:1025300002F00DFC3948CDE9000407232A460021AA
:10254000282002F0A1FC07B030BD2DE9F047DFF8EC
:10255000D8902C4F354C2F4DDFF8BCA0002600BF83
:10256000FFF7BFFF59F82600FFF7C9FF30A1384633
:10257000FFF799FE2046298800E0401E022902D27A
:102580000028FAD135E0A0B39AF800104F2930D1D5
:102590009AF801004B282CD1FFF7A3FF25A138465C
:1025A000FFF781FEA0462046298800E0401E022950
:1025B00001D20028FAD19AF800004F2803D19AF8E6
:1025C00001004B2846D01EA13846FFF76CFE288834
:1025D00002E000BFA8F10108022802D2B8F1000F02
:1025E000F8D19AF800104F2903D19AF801004B282E
:1025F00030D0761CF6B20C2EB2D30020BDE8F087A6
:10260000000801400038014000480040E00500207B
:102610005C07002058000020E00400203400002067
:10262000627561643A00000060000020FFFF3F0017
:102630004154000041542B424155444200000000E7
:1026400041542B554152543D3932313630302C30C3
:102650002C302C000120D1E758484FF47A71002229
:102660008160C0E90021564B4161C0E90331554901
:10267000816102210162C161534941626421C162E9
:1026800002634263816270474FF0E0204F4941612D
:102690004F4AF02182F8141D002181610721016158
:1026A000704710B54B4C208C401C80B26421B0FBAD
:1026B000F1F2208401FB120028B902F0F0F846493B
:1026C00000EB80000880218C3C48B1F57A7F04D172
:1026D00000222284416BC0E90C12016809B1491E35
:1026E0000160816A09B1491E00E0C16A81624168E6
:1026F00009B1491E00E081684160C16909B1491E04
:1027000000E0016AC16110BD2DE9F0472B4C606B00
:10271000401C606301F00AFD01F0A7FD4FF4006169
:102720002E48FEF76CFB30B92D48007818B101F047
:1027300060FF2C4908802C4DA88A01F065FED4E981
:102740000A01884225D1072002F002F803F03FF881
:10275000264E274F32463B4602F0A8FFDFF8949002
:102760004FF0663842464B4602F09AFF03F07CF881
:10277000A861062001F0ECFF03F029F832463B4641
:1027800002F094FF42464B4602F08AFF03F06CF8D9
:10279000E861D4E90101884201D1E0688047D4E9C9
:1027A0000701884203D1606ABDE8F0470047BDE8F1
:1027B000F087024908600028FDD1704738060020E4
:1027C0001F380008953F0008F32300083F19010057
:1027D0000FE000E014060020CE00002000080140B9
:1027E000BC000020CC0000205C0700207B14AE471A
:1027F000E17A943F66127140FA480021416001601D
:10280000017302F00AB910B58AB002F006F9F6A118
:102810000024D1E900010094CDE90101F44B01AAA3
:102820002146082002F053FCF2A0F14BD0E9001041
:102830000094CDE9031003AA1021082002F047FC00
:10284000EEA0EB4BD0E900100094CDE9051005AAED
:102850002021082002F03BFCEAA0E54BD0E9001063
:102860000094CDE9071007AA3021082002F02FFCC0
:102870000AB010BD2DE9FC41E4480026DFF8908342
:1028800004880746354600BF01F087FB012808D0C1
:10289000022804D004282BD005280DD129E0641C7F
:1028A00000E0641EF0B2CDE90080A4B20423224609
:1028B00030214B2002F0E8FAA4F57F40FF3815D014
:1028C000C82C00D900246D1CADB2A5F56A40603853
:1028D000DAD1F04386B2F0B2CDE9008000250423BE
:1028E000224630214B2002F0CFFACDE7C824EAE798
:1028F0003C800121CDE900813A88042330214B201E
:1029000002F0C2FABDE8FC812DE9FE4FC148002665
:1029100007463546DFF800B34FF07E5ADFF8F08205
:102920004FF00309D0F8004001F035FB01280ED02C
:10293000022804D0042823D005281CD121E02046F9
:1029400002F07FFF5A46B54B02F009FE06E0204632
:1029500002F077FF5A46B14B02F0A2FE02F084FF6C
:10296000CDF800900446CDE90186012322462021BE
:102970004B2002F0BCFA14F1FF4F0FD3002410E0FB
:102980003C600122CDF80090CDE901820123202195
:102990004B203A6802F0ABFABDE8FE8F544500DDEB
:1029A00054466D1CADB2A5F56A406038BCD1F04309
:1029B000C6B2CDF80090CDE901860025012322465C
:1029C00020214B2002F093FAAEE72DE9FC41944818
:1029D0000026074604883546DFF8348201F0DDFA28
:1029E000012808D0022804D004282BD005280DD1B6
:1029F0002BE0641C00E0641EF0B2CDE90080A4B2BC
:102A00000423224610214B2002F03EFAA4F57F4019
:102A1000FF3815D0C82C00D900246D1CADB2A5F527
:102A20006A406038DAD1F04386B2F0B2CDE9008076
:102A300000250423224610214B2002F025FACDE781
:102A4000C824EAE73C8001F09FF90121CDE900812B
:102A50003A88042310214B2002F016FA52E72DE9A0
:102A6000FE4F7048002607463546DFF8ACB14FF000
:102A70007E5ADFF89C814FF00309046801F08BFA5D
:102A800001280ED0022804D0042823D005281CD108
:102A900021E0204602F0D5FE5A46604B02F05FFD71
:102AA00006E0204602F0CDFE5A465C4B02F0F8FDEF
:102AB00002F0DAFECDF800900446CDE9018601234C
:102AC000224600214B2002F012FA14F1FF4F0ED3E0
:102AD00000240FE03C600122CDF80090CDE9018296
:102AE000012300214B203A6802F001FA54E75445D3
:102AF00000DD54466D1CADB2A5F56A406038BDD10D
:102B0000F043C6B2CDF80090CDE90186002501233F
:102B1000224629464B2002F0EAF9AFE72DE9FC47AF
:102B200041480026804604783546DFF8E4903F4F60
:102B300001F031FA012808D0022804D0042825D059
:102B400005280DD128E0641C00E0641ECDE9009644
:102B5000E4B2072357F824203021462002F094F9EC
:102B60000C2C00D90C246D1CADB2A5F56A40603860
:102B7000DED1F043C6B2CDE90096002557F82420F7
:102B800007233021462002F07FF9D1E7A8F8004062
:102B900057F82400FFF7B3FC0121CDE90091B8F804
:102BA00000000723302157F82020462002F06CF95E
:102BB000BDE8FC872DE9FC47DFF874800026144F40
:102BC000B8F8004035464FF4C87900BF01F0E5F988
:102BD000012831D002282DD004283CD0052836D138
:102BE0003EE0000070060020000203040000000028
:102BF0004000002001020304000000000506070851
:102C000000000000090A0B0C0000000096000020E4
:102C100034000020AC0000207B14AE47E17A843FF2
:102C200098000020B00000205E000020600000201E
:102C3000B6000020641C00E0641EF0B2CDE9007014
:102C4000A4B2032322462021502002F01DF9322C89
:102C500011D2322412E02046A8F8004001F02CFCEA
:102C60000120CDE900700323B8F800202021502076
:102C700002F00AF99CE74C4500D94C466D1CADB2F8
:102C8000A5F56A406038A1D1F04386B2F0B2CDE933
:102C900000700025032322462021502002F0F4F882
:102CA00094E72DE9FC47DFF8F48300263546B8F8B1
:102CB000024040F6B839FA4F01F06DF9012808D00A
:102CC000022804D0042813D005280DD112E0643462
:102CD00000E0643CF0B2CDE90070A4B204232246C7
:102CE0001021502002F0D0F8642C0ED264240FE0A2
:102CF000A8F802400120CDE900700423B8F80220B2
:102D00001021502002F0C0F852E74C4500D94C4643
:102D10006D1CADB2A5F56A406038CDD1F04386B2E6
:102D2000F0B2CDE900700025042322461021502086
:102D300002F0AAF8C0E72DE9FC41DFF86083002625
:102D4000354698F80040D64F01F025F9012808D003
:102D5000022804D0042824D005280CD123E0641CC8
:102D600000E0641ECDE90076E4B202232246002191
:102D7000502002F089F80CB3192C00D919246D1CCD
:102D8000ADB2A5F56A406038DED1F043C6B2CDE9F8
:102D900000760025022322462946502002F074F8CE
:102DA000D2E7A8F800400120CDE900700223B8F86E
:102DB00000200021502002F067F8A3E50124DEE79F
:102DC00008280DD2DFE800F00405060708090A0B01
:102DD000B1E766E7EEE6A1E641E6F6E594E549E50A
:102DE000704770B58CB001F018FEAEA10024D1E997
:102DF00000010094CDE90301AC4B03AA2146204613
:102E000002F065F90326A64D0096A948CDE90154C4
:102E10000268012300214B2002F069F8A5A0A34B12
:102E2000D0E900100094CDE9051005AA102100207A
:102E300002F04DF9A148CDE9005402880423102185
:102E40004B2002F021F89EA1984BD1E9000100949B
:102E5000CDE9070107AA2021002002F038F90096E9
:102E60009948CDE901540268012320214B2002F04A
:102E70003EF896A18D4BD1E900010094CDE90901FE
:102E800009AA3021002002F022F99248CDE900542D
:102E90000288042330214B2001F0F6FFFF20009030
:102EA0004023802200217A2002F064F820237F2230
:102EB00011217B20009402F05DF80CB070BD70B55C
:102EC00088B001F0AAFD84A0002400680490774B2C
:102ED00004AA21460094204602F0F9F8704D6F4E86
:102EE000CDE90054022332880021502001F0CCFFAC
:102EF0007AA06E4B00680094059005AA102100206E
:102F000002F0E5F8CDE90054042372881021502026
:102F100001F0BAFF72A0654B0068069006AA202156
:102F20000094002002F0D3F86E48CDE900540288E6
:102F300003232021502001F0A7FF6BA05B4BD0E9B9
:102F40000010CDE9021002AA00943021002002F006
:102F5000BEF8CDE9005406234FF4E132302146207B
:102F600001F092FFFF2000904023802200217A2070
:102F700002F000F80F237F2202217B20009401F051
:102F8000F9FF08B070BD3EB50446800802D00128A4
:102F900005D102E0FFF793FF01E0FFF722FF0323D3
:102FA00001213F4A3D48082C3DD2DFE804F0040AE5
:102FB0001118232B323DCDE9002102230288002184
:102FC00004E0CDE90021042342881021502032E0A2
:102FD000CDE900214348032320210288F6E7CDE90B
:102FE0000021444942480723097850F82120302124
:102FF000462020E0CDE900322D4802910123002136
:1030000002680DE0CDE900212C480423102102883C
:1030100010E0CDE900322C48029101230268202102
:103020004B2001F064FF3EBD2A48CDE90021042376
:10303000028830214B2001F027FF3EBD10B500244F
:10304000FFF73DFF19E000BF00F0A5FF012809D000
:1030500002280DD0042814D00528F5D1BDE8104071
:1030600000F092BE641CE4B2082C06D1002404E0F7
:10307000641EE4B2082C00D907242046FFF783FF22
:10308000E2E72046FFF79CFE02E00A20FFF791FBF3
:1030900000F05AFF0028D7D0F7E70000900000208A
:1030A000340000200D0E0F1C000000004000002026
:1030B000B00000200D0E1213000000009800002048
:1030C0000D110F1C00000000AC0000200D111213A8
:1030D00000000000960000201819000018200000D1
:1030E0001B1C0000B60000201D1E1F1C000000005D
:1030F000600000205E00002038B501F08EFC002446
:10310000FD4BFEA221462046009401F020FEFA4B22
:10311000FEA210210020009401F019FEF64BFDA242
:1031200020210020009401F012FE38BD10B5FFF7F9
:10313000E3FF00BF00F02FFF0528FBD110BD08B54D
:1031400001F06BFC00200090EB4BF4A2082114204E
:1031500001F0FDFD08BDFEB502270024E64D0097F5
:10316000F24ECDE901543B4621461020726801F031
:10317000BEFE0097CDE901541021022308463268B3
:1031800001F0B5FE306902F02FFBCDE90054024694
:1031900004232021102001F077FECDE90054F28AAB
:1031A00004233021102001F06FFECDE90054B28AD3
:1031B00004230021502001F067FE0097CDE901545F
:1031C000022310215020B26801F091FE0097CDE952
:1031D0000154022320215020F26801F088FEFEBD38
:1031E00038B501F01AFC0024C34BD1A22146204679
:1031F000009401F0ACFDC04BD0A21021002000943F
:1032000001F0A5FDBC4BD0A220210020009401F0CC
:103210009EFDB94BCFA230210020009401F097FD14
:10322000B54BCFA200214020009401F090FDB24B9D
:10323000CCA210214020009401F089FDAE4BCCA21D
:1032400020214020009401F082FDAB4BCBA2302125
:103250004020009401F07BFD38BD38B501F0DDFB66
:103260000024C84B02220E212820009401F0A5FC66
:103270004FF47A752846FFF79CFAC24B01220E21C3
:103280002820009401F099FC2846FFF792FABD4BE4
:1032900000220E212820009401F08FFC2846BDE872
:1032A0003840FFF786BA2DE9F04F87B00746002572
:1032B000FFF7D3FFFFF794FF01F071F8002001F052
:1032C00078F8DFF8C492994C4FF08046A84600BFCA
:1032D00000F02CFF00F0C9FF07B1A582FFF73BFF0C
:1032E00012E000BFA6F81080D4E90612E08A0DF1C2
:1032F000080A238C8AE80F00A18A2069CDE9000121
:1033000094E80F00FFF777F8308A0028EAD1C7B1B8
:10331000DFF878A24FF47A6BB9F80010484699B1FB
:10332000A0F80080BAF8000000EB800005EBC000B8
:1033300085B2284601F068F85D45EDD107B0BDE8DB
:10334000F08FA08A01F060F800F027FE052803D076
:103350000120FFF72EFABBE707B00020BDE8F04FD1
:1033600001F027B8F8B50024FFF7E9FE884E40F6D3
:103370003B770025641CE4B2502C00D1002400F0FF
:1033800054FF70886538B8420BD25B4B282C0095EF
:1033900001D380A200E083A21E21002001F0D7FC0F
:1033A000E8E7554B83A21E210020009501F0CFFCD9
:1033B00000F0F1FD032804D0042802D00528D9D15B
:1033C000F8BD0020FFF76FFFFFF7B9FED2E77FB52A
:1033D00001F023FBAFF200300068002402907A4B2A
:1033E00002AA21460094204601F071FE0120424DC0
:1033F000CDE90050654E0223002132885A2001F0A9
:1034000043FDAFF22830006803906F4B03AA1021F0
:103410000094002001F05BFECDE900540423728883
:1034200010215A2001F030FD2B4668A220215020A7
:10343000009401F08CFC7FBD3EB501F0EEFA65A171
:103440000024D1E900010094CDE901015E4B01AAFD
:103450000821142001F03BFE274B60A208215420D4
:10346000009401F074FC244B5DA2302150200094A4
:1034700001F06DFC204B5CA230213220009401F061
:1034800066FC1D4B59A230210020009401F05FFC26
:103490003EBD3EB501F0C1FA55A10024D1E90001BD
:1034A0000094CDE90101484B01AA2146204601F0D4
:1034B0000EFE114B50A230215020009401F047FC29
:1034C0000D4B4AA230210020009401F040FC3EBD8B
:1034D0002DE9FC47FFF7DDFF0025074B20A2102157
:1034E0002846009501F033FCFF2630237F2220215F
:1034F0000020009684E000003400002050574D5F0B
:103500006F75745F6D6F6465000000004672653A08
:10351000000000007468723A0000000062652063D9
:1035200061726566756C2121000000005C07002057
:10353000553A20202020207600000000493A202023
:103540002020204100000000463A20202020206753
:1035500000000000523A20202020207300000000CC
:10356000543A0000503A202020202077000000002C
:10357000453A20202020672F77000000513A202074
:10358000202000004C000020102C01409000002062
:10359000A200002074686F74746C65206E6F7420D4
:1035A0003021210020202020202020202020202029
:1035B000202020002020202020202020202020202B
:1035C0002020202020000000400000204E455854BC
:1035D0002D3E000021220D24000000003F000000CD
:1035E000736B69703E3E00002A0000003C3C000006
:1035F00010010221220000006E6578743E3E00003A
:1036000001F0B8FCF74FDFF8E0936FF00B0800BF54
:1036100000F00BFECDE90075024610210423084698
:1036200001F032FC00F001FE02F0BBF8414601F06F
:103630008AFF494601F017FF02F0D6F80446C2B2ED
:103640002E2322210220009501F094FCE0B23023C9
:103650007F222021009601F08DFC00F09CFC0328C5
:1036600005D0042803D00528D2D1BDE8FC8701206D
:10367000FFF719FEFFF70DFFCAE710B5FFF7DCFEF5
:1036800000F089FC032807D0042802D00528F7D1D0
:1036900010BDFFF71DFFF1E70120FFF704FEEDE786
:1036A0002DE9FC410024FFF792FE0325CD4ECF4FBC
:1036B00000F071FC012807D0022839D0042840D03E
:1036C0000528F5D1BDE8FC81641CE4B2032C00D1CF
:1036D0000024B4FBF5F005FB104078B30020CDE9E1
:1036E000006002233A8800215A2001F0CDFBB4FB90
:1036F000F5F005FB1040012800D00020CDE9006066
:1037000004237A8810215A2001F0BEFBB4FBF5F0A7
:1037100005FB1040022801D0002000E00120B14B41
:10372000AFF2581200902021502001F010FBBFE7AB
:10373000641EE4B2FF2CCCD10224CAE7FFE70120CB
:10374000CDE744B1012C09D0022CB1D1FFF795FF90
:10375000FFF73DFEACE7FFF7EEFAA9E7FFF7A1FAA6
:10376000A6E70024FFF74FF810253BE000F013FC1C
:1037700001281CD0022809D00428F7D124B3102C2A
:1037800025D0202C26D0302C29D126E004F11000A1
:10379000C3B248222146082001F0B1FC103CE4B23B
:1037A000302C00D9302404F11000C3B21BE004F126
:1037B0001006F3B248222146082001F0A0FCF4B222
:1037C000302CF0D90024EEE7FFF76AFF07E0FFF79F
:1037D000C9FD04E0FFF7AAFC01E0FFF72FFCFFF7AB
:1037E00012F800242B4648222146082001F087FCCD
:1037F000BCE73EB57EA10024D1E900010094CDE9EB
:1038000001017D4B01AA0A21042001F0A0FA754BA9
:103810007AA22D211420009401F099FA3EBD7B4834
:1038200010B5406828B1012806D1FFF7D0FDFFF799
:1038300098FFBDE81040DCE710BD2DE9FE4F74494C
:10384000002601EB800751F820403546DFF8C4B16F
:103850004FF07E5ADFF88C814FF0040900F09DFB99
:1038600001280ED0022804D0042823D005281CD11A
:1038700021E0204601F0E5FF5A46674B01F06FFE5C
:1038800006E0204601F0DDFF5A46634B01F008FFD9
:1038900001F0EAFFCDF800900446CDE9018601234E
:1038A000224620214B2001F022FB14F1FF4F0FD3C1
:1038B000002410E03C600122CDF80090CDE90182A7
:1038C000012320214B203A6801F011FBBDE8FE8F57
:1038D000544500DD54466D1CADB2A5F56A40603814
:1038E000BCD1F043C6B2CDF80090CDE901860025E9
:1038F0000123224620214B2001F0F9FAAEE770B5F2
:103900008CB001F08AF8AFF66401D1E9000100241F
:103910000094CDE90301414B03AA2146204601F062
:10392000D6FB06262F4D00963D48CDE9015402688E
:10393000012300215A2001F0DAFAAFF68800D0E91D
:1039400000100094CDE905100021344B05AA08466B
:1039500001F0BDFB3348CDE9005402880423102157
:103960005A2001F091FAAFF69C01D1E900010094D0
:10397000CDE90701294B07AA3021002001F0A7FB60
:103980002948CDE900540288042330215A2001F04F
:103990007BFAAFF6D400D0E900100094CDE909100D
:1039A0001E4B09AA2021002001F091FB00961F4820
:1039B000CDE901540268012300215A2001F097FA51
:1039C000FF2000904023802200217A2001F0D2FACB
:1039D0002F237F2220217B20009401F0CBFA0CB012
:1039E00070BD0000340000200000FE429000002066
:1039F000202122232400000028000020504F57459A
:103A00005220425920584A4A000000007006002007
:103A10008C060020FCA9F1D24D62503F40000020EE
:103A2000B00000209800002096000020AC0000208C
:103A300070B58CB000F0F1FFAFF69811D1E900013C
:103A400000240094CDE90301904B03AA21462046AF
:103A500001F03DFB06268E4D00968E48CDE90154BF
:103A60000268012300215A2001F041FAAFF6BC1090
:103A7000D0E900100094CDE905100021834B05AA80
:103A8000084601F024FB8448CDE900540288042351
:103A900010215A2001F0F8F9AFF6D011D1E9000158
:103AA0000094CDE90701794B07AA3021002001F0ED
:103AB0000EFB7A48CDE900540288042330215A20B5
:103AC00001F0E2F9AFF60820D0E900100094CDE94A
:103AD00009106E4B09AA2021002001F0F8FA009687
:103AE0006F48CDE901540268012300215A2001F0FA
:103AF000FEF9FF2000904023802200217A2001F06F
:103B000039FA3E237F222F217B20009401F032FAE4
:103B100065E738B500F081FF00245D4B61A22146C6
:103B20002046009401F013F9594B60A210210020A7
:103B3000009401F00CF938BD2DE9F04F89B0002454
:103B4000FFF7E7FF0120DFF848A104270097CDE940
:103B500001A0DFF860B103465646D8460021202078
:103B6000DBF80C2001F0C3F900250097CDE90165D1
:103B7000012310212020D8F8082001F0B8F90121F4
:103B80008E073046FDF75BFE00F0D0FA00F06DFBCB
:103B90002DE03582DFF82081D8F8000001F024FE06
:103BA00087B2B8F8140001F0FCFDDFF81081009036
:103BB000B8F8040001F0F5FDDFF804910790B9F8BA
:103BC000040001F0EEFD0690B8F8060001F0E9FDF2
:103BD0008046B9F8060001F0E4FD02950195CDE9B3
:103BE0000457DDE9062303954146FEF704FC308ABD
:103BF0000028CED100F0CFF9012808D0022828D023
:103C000004282FD005283CD109B0BDE8F08F641CF2
:103C1000E4B2022C01D1002422E00CB31EE000BF6C
:103C20004FF00408CDF80080CDE901A25F460123E2
:103C300000212020DBF80C2001F059F9CDF800809C
:103C4000CDE901A4012310212020BA6801F04FF929
:103C500017E0641EE4B2012CDFD901240022DFE763
:103C60000122DDE724B10020801CFFF7E6FD04E01F
:103C70000120F9E70A20FEF79CFD00F065F9002815
:103C8000F8D10120FEF795FD7EE7000040000020FE
:103C900034000020B0000020980000209600002092
:103CA000AC0000204355523A000000004241543A13
:103CB000000000008C0600205C0700209A00002015
:103CC000A200002010B5314C2046FCF7FDFD4FF658
:103CD000BF212046FCF7BBFE2D480188A01CFCF745
:103CE000B6FE2C480188201DFCF7B1FE2A48018849
:103CF000A01DFCF7ACFE2948018824480830FCF7D9
:103D0000A6FE2748018821480A30FCF7A0FE254876
:103D100001781E480C30FCF79AFE234801681B48C6
:103D20000E30FCF770FE214801681848BDE81040CD
:103D30001230FCF768BE1548801C006814490880E2
:103D40001248001D0068134908801048801D006853
:103D5000114908800D4808300068104908800B4858
:103D60000A3000680E49088008480C3000680D4988
:103D7000087006480E3000680B490860034812308E
:103D800000680A49086070479CE7000000FC0008D2
:103D90009800002096000020900000209200002053
:103DA000B60000205E000020AC000020B000002023
:103DB00096480178012901D0002070470021017048
:103DC0000120704791480178012901D000207047F7
:103DD00000210170012070478C480178012901D031
:103DE000002070470021017001207047874801784A
:103DF000012901D000207047002101700120704787
:103E000070B5012190B00846FDF780F90121480204
:103E1000FDF785F97E4E3046FCF71EFC7D4800908C
:103E20007A4801A9801D0024042581E83100802002
:103E3000CDE90440400006908000079020200890C3
:103E40000002CDE9090469463046FCF772FC012105
:103E50003046FCF798FC01208DF830008DF83100D9
:103E60000B944FF46020CDE90D046A4C8DF83C5062
:103E70004C3C0BA92046FCF773FA4FF44040FDF789
:103E8000E4F80723012200212046FCF7E9FA072382
:103E9000022201212046FCF7E3FA07230322022134
:103EA0002046FCF7DDFA0723042203212046FCF715
:103EB000D7FA01212046FCF785FA01212046FCF7BC
:103EC00077FA2046FCF791FA2046FCF793FA00288F
:103ED000FAD12046FCF795FA2046FCF797FA00281D
:103EE000FAD101212046FCF798FA10B070BD08B550
:103EF00001210420FDF713F90F20ADF80000042084
:103F00008DF8030069464448FCF71FFFBDE80840F0
:103F100076E7642190FBF1F03C494880704770B52A
:103F200000243A4E25460E360120FEF742FCF0886A
:103F30006D1C2044EDB284B20A2DF5D30A20B4FBE7
:103F4000F0F03249888070BD30480E300088A0F211
:103F5000452113291CD34639312901D2012070474C
:103F6000A0F54771272901D202207047A0F2E9315C
:103F7000272901D203207047A0F5A761402901D26B
:103F800004207047A0F2D170312801D2052070477B
:103F900000207047704700207047002070471F487E
:103FA0001F494068884201DC012070471D49884252
:103FB00001DC022070471C49884201DA0320704767
:103FC0001A49884201DC042070471949884201DA05
:103FD000052070471749884201DA062070471649C4
:103FE000884201DA072070471449884201DC082022
:103FF00070471349884201DA092070471149884205
:1040000001DA0A2070470020704700009400002069
:10401000080002404C240140000801405C070020D9
:1040200033338B4033330B410000584133338B41E2
:104030009A99AD41CDCCD0419A99F34133330B429B
:104040009A991C4200002E42A548A4490160A54946
:104050004160A5498160C1604FF07E510161A04976
:104060006420B4314861704730B5A14A9F4B9C48E9
:1040700014781430198820F8141000EB44015D887E
:104080000D849D88A1F84050DB88A1F86030994BE1
:10409000641C1B88A1F88030E1B21170102901D393
:1040A000002111700022114630F81130491CC9B2AC
:1040B0001A441029F8D31109894A0C3A00231180B7
:1040C0004FEA030100EB4104491C248CC9B223448C
:1040D0001029F7D3190951800023194600EB410438
:1040E000491CB4F84040C9B223441029F6D3190939
:1040F000918000234FEA030100EB4104491CB4F80E
:104100006040C9B223441029F6D31909D180002395
:104110004FEA030100EB4104491CB4F88040C9B2E6
:1041200023441029F6D31809108130BD2DE9F0473A
:10413000FFF79AFF704C608801F033FB684D06462C
:104140004FF07E59D5F804804846414601F085F984
:10415000314601F088F9A5F10C060746708801F098
:1041600020FB414601F07FF9394601F024F901F0C6
:104170003BFB6080A08801F014FBD5F8088007465F
:104180004146484601F069F9394601F06CF90746A5
:10419000B08801F006FB414601F065F9394601F0AF
:1041A0000AF901F021FBA080E08801F0FAFAED683D
:1041B00007462946484601F050F9394601F053F9BF
:1041C0000746F08801F0EDFA294601F04CF939462E
:1041D00001F0F1F801F035FB0022484B01F0BFF986
:1041E00001F016FBE080BDE8F08770B5424E3088E4
:1041F00001F0D7FA04463A4805684FF07E50294648
:1042000001F02BF9214601F02EF9044637480088C9
:1042100001F0C7FA294601F026F9214601F0CBF852
:1042200001F0E2FA80B2308070BD70B5324E708815
:1042300001F0B7FA04462A4845684FF07E502946F7
:1042400001F00BF9214601F00EF904462748408899
:1042500001F0A7FA294601F006F9214601F0ABF872
:1042600001F0C2FA80B2708070BD70B5224D244951
:10427000E8880988401A643001F08AFA21490968FF
:1042800001F0F1F8164C2049D03406462060A88889
:104290000988401A643001F07BFA1C49096801F072
:1042A000E2F801466060304601F0DDF80646A060A5
:1042B000A4F1DC00008901F074FA3146206101F0BC
:1042C00004F9E06068884FF47A61A082884200D9DE
:1042D000A1820F480088E08270BD0000A4707D3F7D
:1042E0008C06002072F97F3FCDCCCC3D9A00002097
:1042F000B4000020CC000020A20000200000E03F1D
:1043000098000020B000002096000020AC000020A3
:10431000CE00002038B501210820FCF700FF18204E
:104320008DF8030003208DF8020080206A4CADF860
:10433000000069462046FCF708FD80212046FCF776
:1043400074FD38BD3EB5FFF7E5FF01210420FCF701
:10435000EFFE6249624A00240888624DB2FBF0F029
:1043600048804821ADF80010ADF80400ADF80240D7
:10437000ADF8064069462846FCF7B8FF5A49602068
:104380000880012048804FF47A70C8800C8128464C
:10439000FDF71AF801212846FDF751FA3EBD5249B2
:1043A0006420C8804F48FDF70FB840214D48FDF705
:1043B000E2BA2DE9F0410646642800D900264748B4
:1043C000408801F004FA0C460546484A484B01F083
:1043D0006DF98846214607462C460D46304601F0C9
:1043E000F6F9444A444B01F061F922462B4601F0AC
:1043F0005DF93A46434601F0B2F801F009FA39494D
:1044000038310880BDE8F0812DE9F0410446B0F56F
:104410007A6F00D9002431484088054601F0D7F969
:10442000324A334B01F042F907460E4605FB04F0D1
:1044300001F0BCF9314A324B01F038F93A463346C3
:1044400001F08DF801F0E4F9264938310880D9E708
:1044500025496420C8802348FDF72CB84021214815
:10446000FDF799BA2DE9F0410646642800D90026E7
:104470001A48408801F0ABF90C4605461B4A1C4B14
:1044800001F014F98846214607462C460D46304671
:1044900001F09DF9174A184B01F008F922462B4606
:1044A00001F004F93A46434601F059F801F0B0F939
:1044B0000C4940310880A5E710B5B0F5C87F01D997
:1044C000002010BD0649B1FBF0F004494880FFF719
:1044D00039FF012010BD0000000C0140B600002093
:1044E00040420F0000080040800700209A999999E7
:1044F0009999A93FFCA9F1D24D62403F2D431CEB95
:10450000E236EA3EF8B501210420FCF708FE4FF43C
:104510008055ADF8005003208DF8020010203D4E6C
:104520008DF8030069463046FCF70FFC6C10ADF8BF
:10453000004069463046FCF708FC29463046FCF747
:1045400074FC21463046FCF76EFCADF800400420B8
:104550008DF8030069463046FCF7F7FBF8BD2DE9FE
:10456000F0412D4C00202B4F207005464FF4805613
:104570004FF40068606031463846FCF754FC6068D0
:104580003146400060603846FCF74FFC41463846F3
:10459000FCF735FC012802D16068401C60606D1C8E
:1045A000EDB2182DE7D331463846FCF73CFC606885
:1045B000314680F4000060603846FCF736FC01208C
:1045C00020706068BDE8F08110B501F0EAF812498A
:1045D000C86010BD70B50F4D4FF4006421462846E9
:1045E000FCF70DFC0128F9D0FFF7B9FF0A498860F4
:1045F00070BD10B5FFF7B3FF074CA168401A00D596
:10460000404201F0C5F8E16800F05FFF01F0ECF80E
:1046100080B210BD00080140BC00002038B5012167
:104620000820FCF77CFD4FF44054ADF80040142006
:104630008DF8030003207C4D8DF802006946284662
:10464000FCF783FB21462846FCF7EDFB38BD70B52F
:10465000754D4FF4805421462846FCF7E4FB660074
:1046600031462846FCF7DFFB00F0B2F82146284629
:10467000FCF7DBFB00F0ACF831462846BDE87040A3
:10468000FCF7D3BB2DE9F041674F04464FF40056C9
:1046900031463846FCF7C9FB00254FF4805800BF6F
:1046A00004F0800080284146384623D0FCF7BDFB4B
:1046B0006006040E31463846FCF7B5FB00F088F87A
:1046C00031463846FCF7B1FB0A20401E10F0FF00CF
:1046D000FBD16D1CEDB2082DE2D30A20401E10F074
:1046E000FF00FBD141463846FCF79DFBBDE8F04199
:1046F00000F06EB8FCF797FBDAE72DE9F0470025EC
:104700000824494E67024FF001094FF4005839461A
:104710003046FCF788FB00F05BF841463046FCF77A
:1047200082FB39463046FCF76AFB20B1611E09FA6C
:1047300001F02843C5B200F04BF841463046FCF783
:1047400074FB641E14F0FF04E1D12846BDE8F08735
:104750002DE9F0410446FFF77AFFB420FFF792FFFE
:1047600000F03CF82046FFF78DFF00F037F8FFF728
:104770006EFFB520FFF786FF00F030F8FFF7BDFFB2
:10478000044600F03CF8FFF7B8FF44EA002400F0CC
:1047900036F8FFF7B2FF00F01BF8234E4FF4005538
:1047A00029463046FCF741FB6F1039463046FCF78E
:1047B0003CFB00F00DF829463046FCF734FB00F0D6
:1047C00007F839463046FCF72EFB2046BDE8F0815D
:1047D0002820401E10F0FF00FBD1704770B5124D2D
:1047E0004FF4005421462846FCF71DFBFFF7F0FF6D
:1047F00021462846FCF719FBBDE87040E8E770B594
:10480000094C4FF480512046FCF70FFB65142946F4
:104810002046FCF708FBFFF7DBFF29462046FCF7A4
:1048200004FBBDE87040D3E7000C014008B501214E
:104830000420FCF774FC04208DF8030003208DF89D
:1048400002008020ADF8000069461848FCF77DFAA8
:1048500008BD3EB5FFF7EAFF01210220FCF768FC26
:1048600000204FF6FF71ADF80410ADF80000104CB9
:10487000ADF80200ADF8060069462046FCF736FDAB
:104880000B490831088840F0070008806021204665
:10489000FDF705F801212046FCF7D1FF3EBD044994
:1048A0002431088800220A80704700000008014077
:1048B0000004004010B5FF4C20212046FCF7B3FA5D
:1048C00080212046FCF7AFFA80212046FCF7ADFAA4
:1048D0002046BDE810402021FCF7A7BA10B5F54CE2
:1048E00020212046FCF79FFA80212046FCF79DFA04
:1048F0002046BDE810408021FCF795BA10B5ED4C7C
:1049000020212046FCF78FFA2046BDE810402021E8
:10491000FCF78BBA70B5E74E044620213046FCF711
:1049200084FA002504F0800080284FF08001304692
:1049300010D0FCF77AFA6006040E20213046FCF70E
:1049400072FA20213046FCF770FA6D1CEDB2082D8A
:10495000E8D370BDFCF767FAEDE710B50446FFF742
:10496000A9FF7820FFF7D6FFFFF7C8FF0020FFF769
:10497000D1FFFFF7C3FF2046FFF7CCFFFFF7BEFFD5
:10498000BDE81040AAE710B50446FFF793FF782072
:10499000FFF7C0FFFFF7B2FF4020FFF7BBFFFFF7B5
:1049A000ADFF2046FFF7B6FFFFF7A8FFBDE81040B8
:1049B00094E7C0B201B1E6E7CFE710B50A46044676
:1049C000002102F1B000FFF7F4FF102040EA1410BC
:1049D0000021FFF7EEFF04F00F00BDE810400021BA
:1049E000E7E710B500218D20FFF7E3FF0021142039
:1049F000FFF7DFFF0021BDE81040AF20D9E710B579
:104A000000218D20FFF7D5FF00211020FFF7D1FFF7
:104A10000021BDE81040AE20CBE770B50024002196
:104A200004F1B000FFF7C5FF00210846FFF7C1FF02
:104A300000211020FFF7BDFF002501210020FFF716
:104A4000B8FF6D1CADB2802DF7D3641CA4B2082C46
:104A5000E5D30020984A01464FF480631154401C6E
:104A600080B29842FAD370BD70B50024002104F1E1
:104A7000B000FFF79EFF00210846FFF79AFF0021D4
:104A80001020FFF796FF002501210846FFF791FF50
:104A90006D1CEDB2802DF7D3641CE4B2082CE5D375
:104AA00070BD0246012000E05043491EC9B2FBD24E
:104AB000704738B501210420FCF731FBA020ADF888
:104AC000000010208DF8030003207A4C8DF80200BE
:104AD00069462046FCF739F9A0212046FCF7A3F9E6
:104AE0000021AE20FFF765FF00210846FFF761FFB8
:104AF00000211020FFF75DFF00214020FFF759FF44
:104B00000021B020FFF755FF00218120FFF751FF62
:104B10000021FF20FFF74DFF0021A120FFF749FFF3
:104B20000021A620FFF745FF0021A820FFF741FF45
:104B300000213F20FFF73DFF0021C820FFF739FF8C
:104B40000021D320FFF735FF00210846FFF731FF92
:104B50000021D520FFF72DFF00218020FFF729FF3E
:104B60000021D820FFF725FF00210520FFF721FFB6
:104B70000021D920FFF71DFF0021F120FFF719FFC9
:104B80000021DA20FFF715FF00211220FFF711FFA7
:104B90000021DB20FFF70DFF00213020FFF709FF88
:104BA00000218D20FFF705FF00211420FFF701FFF2
:104BB0000021AF20FFF7FDFE38BD2DE9FC5F1D464B
:104BC00083467F2801D94FF0000B3F2900D90021EF
:104BD000287A4FEAD10A50430190E88801F007068D
:104BE0000246401EC31700EB5370012303EBE000A5
:104BF000C0B2711E00905018C11700EB517003EB4A
:104C0000E000C7B20BEBCA19002473E02B49002067
:104C10008E46C1E90000DDE9000222440DE000BF3C
:104C2000B5F804C0411E2B68884601FB0C31704466
:104C30008B5C00F8013C08F0FF000028F0D10C98D4
:104C400030B17046D0E90012CB43D143CEE90031F8
:104C5000DFF868803246D8E9000100F09DFB164A73
:104C600009EB04034FF0FF0ED35C0EFA06FC23EAB7
:104C70000C03184309EBC7132344803B1FFA83FC42
:104C8000C8E90001BCF5806F23D2EB8833445FEAAA
:104C900043781ED012F80CC003F007080EFA08F390
:104CA00003EA0C034FEAC70CACF1080C03FA0CF34F
:104CB00006E0000000080140E0000020D0000020D5
:104CC0004FEAE37CDFF8F88303434CEA010CC8E9C0
:104CD000003C0020FA4909E009EBC013234411F815
:104CE00000C09BB2401C02F803C0C0B2B842F3D36C
:104CF000641CE4B2A888A04288D800261DE0514672
:104D00005846FFF75AFE002409EBC61809E000BF19
:104D1000EC4808EB0401405C0121FFF74AFE641CEB
:104D2000E4B2A888A042F3D80AF1010000F0FF0A1B
:104D3000BAF1070F03D8761CF6B2BE42DFD30020CB
:104D4000BDE8FC9F00EBC110DE49085C70472DE90F
:104D5000F8430546089F00971078144620381E46F1
:104D60008846C2B204E02038C2B2334641460097BA
:104D70002846FFF722FF30792844C5B214F8010F06
:104D80000028F0D1BDE8F8832DE9FE431F460A9EB6
:104D900014008846054607D52D220096FFF70DFF23
:104DA000387964422844C5B242F2107094FBF0F0A6
:104DB00030308DF804004FF47A7094FBF0F10A2043
:104DC00091FBF0F200FB121130318DF805106421D7
:104DD00094FBF1F191FBF0F200FB121130318DF8F0
:104DE000061094FBF0F191FBF0F200FB1211303150
:104DF0008DF8071094FBF0F100FB114030308DF876
:104E0000080000208DF809003B4601AA41462846CB
:104E10000096FFF79CFFBDE8FE83FEB542F21074DA
:104E2000B2FBF4F430348DF804404FF47A74B2FBE2
:104E3000F4F60A24B6FBF4F704FB176630368DF857
:104E400005606426B2FBF6F6B6FBF4F704FB1766C2
:104E500030368DF80660B2FBF4F6B6FBF4F704FBCF
:104E6000176630368DF80760B2FBF4F604FB1622A5
:104E700030328DF808200022089D8DF8092001AA03
:104E80000095FFF764FFFEBD2DE9F84F83468A4683
:104E9000DDE90A98581EC1B21C4617460A20FFF7E2
:104EA00000FE0646601C00F0FBFD054600200A21BE
:104EB0000CE000BFB7FBF6F2B2FBF1F301FB1322EB
:104EC000B6FBF1F630322A54401CC0B2A042F1D3F6
:104ED000002028554B462A4651465846CDF80080BA
:104EE000FFF735FF2846BDE8F84F00F0B1BD2DE9CA
:104EF000FF4F83B08146DDE911461D468B46DDF844
:104F000040A0059800F070FC1FFA80F80A20514676
:104F1000FFF7C7FD00F045FC0746404600F041FCA6
:104F2000059900F09DFA394600F09DFA00F05CFC0E
:104F3000CDE9004687B22B46424659464846FFF720
:104F4000A3FF0096A188234605FB0190C0B25EA294
:104F50005946FFF7FCFECDE90046A1886D1C05FB14
:104F60000190C0B253463A465946FFF78DFF07B04D
:104F7000BDE8F08F2DE9FF4F81B0019882427DD9C5
:104F80008B427BD9101AC7B2581AC5B2681EC21715
:104F900000EB5270012202EBE000C0B201F0070BFF
:104FA000009005EB0B004FEAD10A401EC11700EB41
:104FB0005170019902EBE000C6B201EBCA1900245E
:104FC00056E03F490020C1E90000009805E00B18B9
:104FD0000E9A401E03F8012CC0B20028F7D13849C0
:104FE0005A46D1E9000100F0D7F9364A09EB04032B
:104FF0004FF0FF0ED35C0EFA0BFC23EA0C031843B0
:105000002F4BC3E9000109EBC6132344803B9BB23D
:10501000B3F5806F1BD20BEB050C5FEA4C7816D012
:1050200012F803800CF0070C0EFA0CF303EA0803E5
:105030004FEAC60CACF1080C03FA0CF34FEAE37C20
:10504000DFF87C8003434CEA010CC8E9003C0020F7
:105050001B4909E009EBC013234411F800C09BB2BF
:10506000401C02F803C0C0B2B042F3D3641CE4B2E7
:10507000BC42A6D30025DFF84CB01DE01EE051462F
:105080000198FFF79AFC002409EBC51809E000BF5E
:1050900008EB04011BF801000121FFF78AFC641CE6
:1050A000E4B2BC42F4D30AF1010000F0FF0ABAF105
:1050B000070F03D86D1CEDB2B542E0D305B057E73A
:1050C000D0000020E00000202E00000070472DE9F5
:1050D000F8431446089F00971E46884605461278F6
:1050E00003E03346414628460097FFF766FD3079D6
:1050F00014F8012F2844C5B2002AF2D142E62DE966
:10510000F84F81467F2801D94FF00009402900D986
:105110000021A2EB0902D4B25A1A4FEAD10AD2B244
:1051200001F0070E02EB0E01491ECA17002001EB29
:105130005271012202EBE101CDB209EBCA1B4AE038
:1051400068B1691E884236D1BEF1000F33D000220B
:10515000FF230BEBC0188E4F03FA0EF328E0002359
:10516000FF210BEBC012DFF828C201FA0EF100920A
:105170000CE0009A1A4497B21CF8072021EA0206B4
:105180008A4332435B1C0CF80720DBB2A342F0D306
:105190001FE000BF08EB02011FFA81FC17F80C109A
:1051A000CE439E4319403143521C07F80C10D2B233
:1051B000A242EFD30DE000210BEBC017744A06E0CA
:1051C0007B189BB2D65CF643491CD654C9B2A142A7
:1051D000F6D3401CC0B2A842B2D300271CE051460F
:1051E0004846FFF7EAFB00260BEBC71809E000BFB3
:1051F000674808EB0601405C0121FFF7DAFB761CEB
:10520000F6B2A642F4D30AF1010000F0FF0ABAF1A7
:10521000070F03D87F1CFFB2AF42E0D3BDE8F88F81
:105220002DE9FC5F1D4683467F2801D94FF0000B16
:105230003F2900D90021287A01F007065043019048
:10524000E8884FEAD10A0246401EC31700EB5370AC
:10525000012303EBE000C0B20090701E1044C117A0
:1052600000EB517003EBE000C7B20BEBCA1900244E
:1052700066E048490020C1E90000DDE90002131999
:105280000EE000BFB5F80480421ED5F800C0964677
:1052900002FB08C20844D25C00F8012C0EF0FF00AB
:1052A0000028EFD1DFF8EC80D8E90021D043C943D2
:1052B000324600F071F8364A09EB04034FF0FF0E56
:1052C000D35C0EFA06FC23EA0C03184309EBC71360
:1052D0002344803B9BB2C8E90001B3F5806F1DD227
:1052E000B5F806C00CEB06085FEA487C16D012F849
:1052F00003C008F007080EFA08F303EA0C034FEAAC
:10530000C70CACF1080C03FA0CF34FEAE37CDFF8AE
:10531000848003434CEA010CC8E9003C00201D4B8B
:105320000AE000BF09EBC01121441FFA81FC195C9F
:10533000401C02F80C10C0B2B842F3D3641CE4B2B3
:10534000A888A04295D800261DE051465846FFF790
:1053500034FB002409EBC61809E000BF0C4808EB39
:105360000401405C0121FFF724FB641CE4B2A8881F
:10537000A042F3D80AF1010000F0FF0ABAF1070FCA
:1053800003D8761CF6B2BE42DFD30020D8E400007A
:10539000E0000020D0000020202A04DB203A00FAA0
:1053A00002F1002070479140C2F1200320FA03F37C
:1053B000194390407047F0B480EA0102D40F4200D4
:1053C000B2EB410F02D20246084611464A0042D0D3
:1053D000C30DDDB2C1F3C752AD1A202D35DAC1F3CA
:1053E000160141F4000204B15242C5F1200602FA4E
:1053F00006F12A411044B3EBD05F23D0C4B1012D94
:10540000A0EBC35009DCF0BC4FF0004202EAC352EB
:10541000DBB200F5000000F06EBA400000F18070D1
:1054200000EBC350A0F1807040EAD170490009E060
:10543000490841EAC071A0EBC35000F500004008E4
:1054400000EBC350F0BC00F04DBA6142012202EB08
:105450004101001BF6E7F0BC704781F00041AAE76C
:1054600080F00040A7E780EA010210B502F0004397
:10547000400022D04A001FD0010E01EB1261C0F3A0
:105480005600C2F3560240F4000042F40002A0FBB2
:10549000022000047F39140400D0401C50EA12405E
:1054A00001D44000491EC2B20C0604EBD010401CCF
:1054B0004008802A02D003E0002010BD20F0010047
:1054C000002900DA0020184310BD30B480EA010240
:1054D00002F0004530F0004221F0004013D090B1BE
:1054E000C30DD40DC2F31601C0F31600E41A41F443
:1054F000000140F400027D34914201D3641C00E0BD
:105500004900002C02DA30BC002070474FF4000044
:105510000023914201D3891A034340084FEA410115
:10552000F7D151B1914202D14FF0004105E002D2D2
:105530004FF0010101E06FF0010103EBC45028447A
:1055400030BC00F0CFB9420005D0C0F3C752524280
:10555000914201DC0020704700EBC15070472DE9FB
:10556000FE4F804681EA0300C00F0C46009021F0F8
:10557000004123F00045B8EB0200A94105D24046A6
:10558000214690461C460B46024623F0004010433D
:1055900047D0270DC7F30A00C3F30A510290401AFF
:1055A000019040286BDAC3F3130040F4801B00988D
:1055B000924620B10023D2EB030A63EB0B0B019858
:1055C0005946C0F140025046FFF7E6FE06460D463A
:1055D00050465946019A00F073F910EB08006141FA
:1055E000002487EA115284EAE7731A4340D0009AF4
:1055F00062B3019A012A4FEA075215DC001B61EBE6
:1056000002014FF0004202EA0752CDE90042001CBD
:1056100041F5801132462B4600F0AAF903B0BDE8EF
:10562000F08F40462146F9E7001B61EB0201001CA8
:1056300041F5801300185B412018A2F5001747EBD5
:10564000030140EAD570B6196D4111E06D084FEACB
:10565000360645EAC0754FEA0752001B61EB0201AE
:10566000001C41F5801149084FEA300000195141F2
:1056700032462B4603B0BDE8F04F00F06AB90098FF
:10568000012240000023D0EB020263EBE07300989C
:1056900021464FEAE074B8EB000061EB0401E9E752
:1056A00083F000435BE781F0004158E72DE9FE4FAE
:1056B00081EA030404F0004421F0004100944FF01B
:1056C000000B23F0004350EA01045ED052EA0304C9
:1056D0005BD0C3F30A54C1F30A552C44A4F2F3344B
:1056E0000194A0FB0254C1F3130141F48011C3F3F0
:1056F000130343F4801301FB024400FB034E840AAE
:10570000970A44EA815447EA8357A4FB0768029545
:105710008D0A05FB07854FEA932C04FB0C542705E3
:10572000029D4FEA065847EA1637B5EB08056EEBBF
:10573000070C870E920E47EA811742EA8312A7FBF5
:105740000201B6EB0B0164EB00042B0D43EA0C33B2
:105750005E1844EB1C50DA465146E7FB0201C5F3E4
:1057600013044FEA0B3343EA14534FEA0432019C0B
:1057700043EA0603A4F10C040294009CCDE900B4B2
:1057800000F0F6F803B0BDE8F08F00200146F9E71D
:10579000C10F80EAE0700844CA079623002100F098
:1057A000AAB896230022114600F0A5B80EB5C10F85
:1057B00080EAE0700844CA07002140F233438DE8D4
:1057C0000E000A460B4600F0D3F803B000BD0EB53C
:1057D00040F2334102910021CDE900110A460B4607
:1057E00000F0C6F803B000BD20F00040C10DC0F3CA
:1057F000160040F400007F2901DA00207047962946
:1058000003DCC1F19601C840704796398840704763
:10581000C1F30A5210B5C1F3130140F2FF3341F452
:1058200080119A4201DA002010BD40F233439A42BF
:10583000A2F2334203DC524200F032F810BD904035
:1058400010BD00F0004230F000400AD0C10D01F55B
:105850006071C0F3160042EA0151C20840071143CB
:10586000704700200146704701F0004330B421F03A
:10587000004150EA010206D00A0DA2F56072C1F3A0
:105880001301002A02DC30BC00207047440F44EAB8
:10589000C104C100E01830BC00EBC25000F022B8D7
:1058A000202A04DB203A21FA02F00021704721FA75
:1058B00002F3D040C2F120029140084319467047DC
:1058C000202A06DBCB17203A41FA02F043EAE073C4
:1058D00006E041FA02F3D040C2F1200291400843B1
:1058E000194670470029A8BF7047401C490008BFEF
:1058F00020F00100704710B4B0FA80FC00FA0CF000
:1059000050EA010404BF10BC704749B1CCF1200437
:1059100021FA04F411FA0CF118BF012121430843C4
:10592000A3EB0C01CB1D4FEA00614FEA102042BFF0
:10593000002010BC704700EBC35010440029A4BFE6
:1059400010BC7047401C490008BF20F0010010BC8B
:10595000704710B5141E73F1000408DA401C41F1C1
:10596000000192185B411A4301D120F0010010BDE3
:105970002DE9F04D92469B4611B1B1FA81F202E059
:10598000B0FA80F220329046FFF706FD04460F463B
:1059900040EA0A0041EA0B0153465A46084313D035
:1059A000114653EA010019D0C8F140025046FFF7F2
:1059B00077FF05460E46504659464246FFF7ECFC37
:1059C000084305D0012004E020463946BDE8F08DAB
:1059D0000020054346EAE0762C4337430A986305E6
:1059E000E40AA0EB08000022FD0A44EA47540A300A
:1059F00002D500200146E9E7010510196941DDE9FA
:105A0000084500196941BDE8F04DA2E7064C074D75
:105A100006E0E06840F0010394E80700984710347E
:105A2000AC42F6D3FAF766FB5469000874690008C3
:105A300002E008C8121F08C1002AFAD17047704757
:105A4000002001E001C1121F002AFBD170470000B5
:105A500010B5002821D0114B0022001F196803E067
:105A6000814203D80A4649680029F9D152B1136826
:105A7000841A9C4204D1006818441060104602E069
:105A8000506000E0186039B102680B1A934203D1EC
:105A90000B681A4402604968416010BDD8000020BC
:105AA000F0B50B30154D20F007010024144A0FE02B
:105AB00003688B420BD38B4205D95E1A43184768A3
:105AC000C3E9006700E04368136002C004E0021D00
:105AD00010680028ECD12046002802D1286808B1BF
